{"contracts/ContentRegistry.sol":{"ContentRegistry":{"abi":[{"anonymous":false,"inputs":[{"indexed":true,"internalType":"uint256","name":"jobId","type":"uint256"},{"indexed":true,"internalType":"address","name":"agent","type":"address"},{"indexed":true,"internalType":"bytes32","name":"contentHash","type":"bytes32"},{"indexed":false,"internalType":"string","name":"contentType","type":"string"},{"indexed":false,"internalType":"string","name":"content","type":"string"},{"indexed":false,"internalType":"string","name":"agentName","type":"string"},{"indexed":false,"internalType":"uint256","name":"timestamp","type":"uint256"}],"name":"ContentPublished","type":"event"},{"inputs":[{"internalType":"uint256","name":"jobId","type":"uint256"},{"internalType":"bytes32","name":"contentHash","type":"bytes32"},{"internalType":"string","name":"contentType","type":"string"},{"internalType":"string","name":"content","type":"string"},{"internalType":"string","name":"agentName","type":"string"}],"name":"publish","outputs":[],"stateMutability":"nonpayable","type":"function"}],"evm":{"bytecode":{"linkReferences":{},"object":"6080806040523461001657610199908161001c8239f35b600080fdfe608080604052600436101561001357600080fd5b600090813560e01c63400a4e5d1461002a57600080fd5b3461010b5760a036600319011261010b5767ffffffffffffffff6044358181116101075761005c90369060040161010f565b906064358381116101035761007590369060040161010f565b93906084359182116100ff576100c6946100aa6100996100b894369060040161010f565b95909660808a5260808a0191610142565b918783036020890152610142565b918483036040860152610142565b90426060820152602435917f80e39f37c37949591d0a8335db0c395c78cd82b32d3b3c65f03e0323aaaebf65339280600435930390a480f35b8680fd5b8580fd5b8380fd5b5080fd5b9181601f8401121561013d5782359167ffffffffffffffff831161013d576020838186019501011161013d57565b600080fd5b908060209392818452848401376000828201840152601f01601f191601019056fea2646970667358221220cf144db27cbee1b85be0f3e47f87f87dd9af3a4e2a042dc2f0839115cd6a521864736f6c63430008140033","opcodes":"PUSH1 0x80 DUP1 PUSH1 0x40 MSTORE CALLVALUE PUSH2 0x16 JUMPI PUSH2 0x199 SWAP1 DUP2 PUSH2 0x1C DUP3 CODECOPY RETURN JUMPDEST PUSH1 0x0 DUP1 REVERT INVALID PUSH1 0x80 DUP1 PUSH1 0x40 MSTORE PUSH1 0x4 CALLDATASIZE LT ISZERO PUSH2 0x13 JUMPI PUSH1 0x0 DUP1 REVERT JUMPDEST PUSH1 0x0 SWAP1 DUP2 CALLDATALOAD PUSH1 0xE0 SHR PUSH4 0x400A4E5D EQ PUSH2 0x2A JUMPI PUSH1 0x0 DUP1 REVERT JUMPDEST CALLVALUE PUSH2 0x10B JUMPI PUSH1 0xA0 CALLDATASIZE PUSH1 0x3 NOT ADD SLT PUSH2 0x10B JUMPI PUSH8 0xFFFFFFFFFFFFFFFF PUSH1 0x44 CALLDATALOAD DUP2 DUP2 GT PUSH2 0x107 JUMPI PUSH2 0x5C SWAP1 CALLDATASIZE SWAP1 PUSH1 0x4 ADD PUSH2 0x10F JUMP JUMPDEST SWAP1 PUSH1 0x64 CALLDATALOAD DUP4 DUP2 GT PUSH2 0x103 JUMPI PUSH2 0x75 SWAP1 CALLDATASIZE SWAP1 PUSH1 0x4 ADD PUSH2 0x10F JUMP JUMPDEST SWAP4 SWAP1 PUSH1 0x84 CALLDATALOAD SWAP2 DUP3 GT PUSH2 0xFF JUMPI PUSH2 0xC6 SWAP5 PUSH2 0xAA PUSH2 0x99 PUSH2 0xB8 SWAP5 CALLDATASIZE SWAP1 PUSH1 0x4 ADD PUSH2 0x10F JUMP JUMPDEST SWAP6 SWAP1 SWAP7 PUSH1 0x80 DUP11 MSTORE PUSH1 0x80 DUP11 ADD SWAP2 PUSH2 0x142 JUMP JUMPDEST SWAP2 DUP8 DUP4 SUB PUSH1 0x20 DUP10 ADD MSTORE PUSH2 0x142 JUMP JUMPDEST SWAP2 DUP5 DUP4 SUB PUSH1 0x40 DUP7 ADD MSTORE PUSH2 0x142 JUMP JUMPDEST SWAP1 TIMESTAMP PUSH1 0x60 DUP3 ADD MSTORE PUSH1 0x24 CALLDATALOAD SWAP2 PUSH32 0x80E39F37C37949591D0A8335DB0C395C78CD82B32D3B3C65F03E0323AAAEBF65 CALLER SWAP3 DUP1 PUSH1 0x4 CALLDATALOAD SWAP4 SUB SWAP1 LOG4 DUP1 RETURN JUMPDEST DUP7 DUP1 REVERT JUMPDEST DUP6 DUP1 REVERT JUMPDEST DUP4 DUP1 REVERT JUMPDEST POP DUP1 REVERT JUMPDEST SWAP2 DUP2 PUSH1 0x1F DUP5 ADD SLT ISZERO PUSH2 0x13D JUMPI DUP3 CALLDATALOAD SWAP2 PUSH8 0xFFFFFFFFFFFFFFFF DUP4 GT PUSH2 0x13D JUMPI PUSH1 0x20 DUP4 DUP2 DUP7 ADD SWAP6 ADD ADD GT PUSH2 0x13D JUMPI JUMP JUMPDEST PUSH1 0x0 DUP1 REVERT JUMPDEST SWAP1 DUP1 PUSH1 0x20 SWAP4 SWAP3 DUP2 DUP5 MSTORE DUP5 DUP5 ADD CALLDATACOPY PUSH1 0x0 DUP3 DUP3 ADD DUP5 ADD MSTORE PUSH1 0x1F ADD PUSH1 0x1F NOT AND ADD ADD SWAP1 JUMP INVALID LOG2 PUSH5 0x6970667358 0x22 SLT KECCAK256 0xCF EQ 0x4D 0xB2 PUSH29 0xBEE1B85BE0F3E47F87F87DD9AF3A4E2A042DC2F0839115CD6A52186473 PUSH16 0x6C634300081400330000000000000000 "},"methodIdentifiers":{"publish(uint256,bytes32,string,string,string)":"400a4e5d"}}}}}