{"contracts/AgentMarketplace.sol":{"AgentMarketplace":{"abi":[{"inputs":[{"internalType":"address","name":"_identityContract","type":"address"}],"stateMutability":"nonpayable","type":"constructor"},{"anonymous":false,"inputs":[{"indexed":true,"internalType":"uint256","name":"jobId","type":"uint256"},{"indexed":true,"internalType":"uint256","name":"bidId","type":"uint256"},{"indexed":true,"internalType":"address","name":"worker","type":"address"},{"indexed":false,"internalType":"uint256","name":"timestamp","type":"uint256"}],"name":"BidAccepted","type":"event"},{"anonymous":false,"inputs":[{"indexed":true,"internalType":"uint256","name":"bidId","type":"uint256"},{"indexed":true,"internalType":"uint256","name":"jobId","type":"uint256"},{"indexed":true,"internalType":"address","name":"bidder","type":"address"},{"indexed":false,"internalType":"uint256","name":"price","type":"uint256"},{"indexed":false,"internalType":"bytes32","name":"bidHash","type":"bytes32"},{"indexed":false,"internalType":"uint256","name":"timestamp","type":"uint256"}],"name":"BidSubmitted","type":"event"},{"anonymous":false,"inputs":[{"indexed":true,"internalType":"uint256","name":"jobId","type":"uint256"},{"indexed":true,"internalType":"address","name":"poster","type":"address"},{"indexed":true,"internalType":"address","name":"worker","type":"address"},{"indexed":false,"internalType":"uint8","name":"rating","type":"uint8"},{"indexed":false,"internalType":"uint256","name":"timestamp","type":"uint256"}],"name":"ClientRatedByWorker","type":"event"},{"anonymous":false,"inputs":[{"indexed":true,"internalType":"uint256","name":"jobId","type":"uint256"},{"indexed":true,"internalType":"address","name":"worker","type":"address"},{"indexed":false,"internalType":"bytes32","name":"deliverableHash","type":"bytes32"},{"indexed":false,"internalType":"uint256","name":"timestamp","type":"uint256"}],"name":"DeliverySubmitted","type":"event"},{"anonymous":false,"inputs":[{"indexed":true,"internalType":"uint256","name":"jobId","type":"uint256"},{"indexed":false,"internalType":"uint256","name":"timestamp","type":"uint256"}],"name":"JobCancelled","type":"event"},{"anonymous":false,"inputs":[{"indexed":true,"internalType":"uint256","name":"jobId","type":"uint256"},{"indexed":true,"internalType":"address","name":"worker","type":"address"},{"indexed":false,"internalType":"uint256","name":"timestamp","type":"uint256"}],"name":"JobFailedTimeout","type":"event"},{"anonymous":false,"inputs":[{"indexed":true,"internalType":"uint256","name":"jobId","type":"uint256"},{"indexed":true,"internalType":"address","name":"worker","type":"address"},{"indexed":false,"internalType":"bool","name":"success","type":"bool"},{"indexed":false,"internalType":"uint8","name":"rating","type":"uint8"},{"indexed":false,"internalType":"uint256","name":"payment","type":"uint256"},{"indexed":false,"internalType":"bytes32","name":"evidenceHash","type":"bytes32"},{"indexed":false,"internalType":"uint256","name":"timestamp","type":"uint256"}],"name":"JobFinalized","type":"event"},{"anonymous":false,"inputs":[{"indexed":true,"internalType":"uint256","name":"jobId","type":"uint256"},{"indexed":true,"internalType":"address","name":"poster","type":"address"},{"indexed":false,"internalType":"bytes32","name":"descriptionHash","type":"bytes32"},{"indexed":false,"internalType":"uint256","name":"escrowAmount","type":"uint256"},{"indexed":false,"internalType":"uint256","name":"deadline","type":"uint256"},{"indexed":false,"internalType":"uint256","name":"timestamp","type":"uint256"}],"name":"JobPosted","type":"event"},{"inputs":[],"name":"MAX_DEADLINE","outputs":[{"internalType":"uint256","name":"","type":"uint256"}],"stateMutability":"view","type":"function"},{"inputs":[],"name":"MIN_DEADLINE","outputs":[{"internalType":"uint256","name":"","type":"uint256"}],"stateMutability":"view","type":"function"},{"inputs":[{"internalType":"uint256","name":"jobId","type":"uint256"},{"internalType":"uint256","name":"bidId","type":"uint256"}],"name":"acceptBid","outputs":[],"stateMutability":"nonpayable","type":"function"},{"inputs":[],"name":"bidCounter","outputs":[{"internalType":"uint256","name":"","type":"uint256"}],"stateMutability":"view","type":"function"},{"inputs":[{"internalType":"uint256","name":"jobId","type":"uint256"},{"internalType":"uint256","name":"price","type":"uint256"},{"internalType":"bytes32","name":"bidHash","type":"bytes32"}],"name":"bidOnJob","outputs":[],"stateMutability":"nonpayable","type":"function"},{"inputs":[{"internalType":"uint256","name":"","type":"uint256"}],"name":"bids","outputs":[{"internalType":"uint256","name":"id","type":"uint256"},{"internalType":"uint256","name":"jobId","type":"uint256"},{"internalType":"address","name":"bidder","type":"address"},{"internalType":"uint256","name":"price","type":"uint256"},{"internalType":"bytes32","name":"bidHash","type":"bytes32"},{"internalType":"uint256","name":"createdAt","type":"uint256"},{"internalType":"enum AgentMarketplace.BidState","name":"state","type":"uint8"}],"stateMutability":"view","type":"function"},{"inputs":[{"internalType":"uint256","name":"jobId","type":"uint256"}],"name":"cancelJob","outputs":[],"stateMutability":"nonpayable","type":"function"},{"inputs":[{"internalType":"uint256","name":"jobId","type":"uint256"}],"name":"finalizeAfterDeadline","outputs":[],"stateMutability":"nonpayable","type":"function"},{"inputs":[{"internalType":"uint256","name":"jobId","type":"uint256"},{"internalType":"bool","name":"success","type":"bool"},{"internalType":"uint8","name":"rating","type":"uint8"},{"internalType":"bytes32","name":"evidenceHash","type":"bytes32"}],"name":"finalizeJob","outputs":[],"stateMutability":"nonpayable","type":"function"},{"inputs":[{"internalType":"uint256","name":"bidId","type":"uint256"}],"name":"getBid","outputs":[{"components":[{"internalType":"uint256","name":"id","type":"uint256"},{"internalType":"uint256","name":"jobId","type":"uint256"},{"internalType":"address","name":"bidder","type":"address"},{"internalType":"uint256","name":"price","type":"uint256"},{"internalType":"bytes32","name":"bidHash","type":"bytes32"},{"internalType":"uint256","name":"createdAt","type":"uint256"},{"internalType":"enum AgentMarketplace.BidState","name":"state","type":"uint8"}],"internalType":"struct AgentMarketplace.Bid","name":"","type":"tuple"}],"stateMutability":"view","type":"function"},{"inputs":[{"internalType":"uint256","name":"jobId","type":"uint256"}],"name":"getJob","outputs":[{"components":[{"internalType":"uint256","name":"id","type":"uint256"},{"internalType":"address","name":"poster","type":"address"},{"internalType":"bytes32","name":"descriptionHash","type":"bytes32"},{"internalType":"uint256","name":"escrowAmount","type":"uint256"},{"internalType":"uint256","name":"deadline","type":"uint256"},{"internalType":"uint256","name":"createdAt","type":"uint256"},{"internalType":"enum AgentMarketplace.JobState","name":"state","type":"uint8"},{"internalType":"uint256","name":"acceptedBidId","type":"uint256"},{"internalType":"address","name":"assignedWorker","type":"address"},{"internalType":"bytes32","name":"deliverableHash","type":"bytes32"},{"internalType":"uint8","name":"rating","type":"uint8"},{"internalType":"bytes32","name":"evidenceHash","type":"bytes32"},{"internalType":"bool","name":"clientRated","type":"bool"}],"internalType":"struct AgentMarketplace.Job","name":"","type":"tuple"}],"stateMutability":"view","type":"function"},{"inputs":[{"internalType":"uint256","name":"jobId","type":"uint256"}],"name":"getJobBids","outputs":[{"internalType":"uint256[]","name":"","type":"uint256[]"}],"stateMutability":"view","type":"function"},{"inputs":[],"name":"getOpenJobs","outputs":[{"internalType":"uint256[]","name":"","type":"uint256[]"}],"stateMutability":"view","type":"function"},{"inputs":[],"name":"identityContract","outputs":[{"internalType":"contract AgentIdentity","name":"","type":"address"}],"stateMutability":"view","type":"function"},{"inputs":[{"internalType":"uint256","name":"","type":"uint256"},{"internalType":"uint256","name":"","type":"uint256"}],"name":"jobBids","outputs":[{"internalType":"uint256","name":"","type":"uint256"}],"stateMutability":"view","type":"function"},{"inputs":[],"name":"jobCounter","outputs":[{"internalType":"uint256","name":"","type":"uint256"}],"stateMutability":"view","type":"function"},{"inputs":[{"internalType":"uint256","name":"","type":"uint256"}],"name":"jobs","outputs":[{"internalType":"uint256","name":"id","type":"uint256"},{"internalType":"address","name":"poster","type":"address"},{"internalType":"bytes32","name":"descriptionHash","type":"bytes32"},{"internalType":"uint256","name":"escrowAmount","type":"uint256"},{"internalType":"uint256","name":"deadline","type":"uint256"},{"internalType":"uint256","name":"createdAt","type":"uint256"},{"internalType":"enum AgentMarketplace.JobState","name":"state","type":"uint8"},{"internalType":"uint256","name":"acceptedBidId","type":"uint256"},{"internalType":"address","name":"assignedWorker","type":"address"},{"internalType":"bytes32","name":"deliverableHash","type":"bytes32"},{"internalType":"uint8","name":"rating","type":"uint8"},{"internalType":"bytes32","name":"evidenceHash","type":"bytes32"},{"internalType":"bool","name":"clientRated","type":"bool"}],"stateMutability":"view","type":"function"},{"inputs":[{"internalType":"bytes32","name":"descriptionHash","type":"bytes32"},{"internalType":"uint256","name":"deadline","type":"uint256"}],"name":"postJob","outputs":[],"stateMutability":"payable","type":"function"},{"inputs":[{"internalType":"uint256","name":"jobId","type":"uint256"},{"internalType":"uint8","name":"rating","type":"uint8"}],"name":"rateClient","outputs":[],"stateMutability":"nonpayable","type":"function"},{"inputs":[{"internalType":"uint256","name":"jobId","type":"uint256"},{"internalType":"bytes32","name":"deliverableHash","type":"bytes32"}],"name":"submitDelivery","outputs":[],"stateMutability":"nonpayable","type":"function"}],"evm":{"bytecode":{"linkReferences":{},"object":"60803461007457601f61212438819003918201601f19168301916001600160401b038311848410176100795780849260209460405283398101031261007457516001600160a01b0381169081900361007457600080546001600160a01b03191691909117905560405161209490816100908239f35b600080fd5b634e487b7160e01b600052604160045260246000fdfe6080604052600436101561001257600080fd5b6000803560e01c806302e9d5e414611a5857806303f6935414611a3a5780630a197a0d146118025780631321c95e146116df578063180aedf31461160b5780631dffa3dc1461146c5780633c889e6f146113575780634423c5f1146112d85780634cb9d7fd1461124557806350355d761461122757806367031bae146112005780636f0e530f146111e2578063840850d1146111a257806385ae341d14611185578063bb8bdced14610e75578063bf22c45714610c6a578063d2f5b5d214610844578063d8dc8c281461066a578063d9badb5d1461041d5763ecde458a146100f957600080fd5b3461041a57606036600319011261041a5760043560249081359160443560018060a01b03918286541692604051809463c3c5a54760e01b8252336004830152818460209788935afa801561040f576101589189916103e2575b50611eaa565b841515806103d6575b61016a90611f1f565b848752600384526040872060ff60068201541660068110156103c3576103875781600182015416331461034b578615158061033d575b156103055787916101b8600460069301544210611f60565b6101c3600254611eed565b80600255858988604051946101d786611e37565b8486528186018c81526040896004828a019533875260608b0197885260808b0198895260a08b0199428b5260c08c019d8e528352522096518755516001870155600286019151166001600160601b0360a01b82541617905551600384015551600483015551600582015501905160038110156102f25760ff8019835416911617905583865260058352604086209060025491805491680100000000000000008310156102e057509061028e91600182018155611ddf565b819291549060031b91821b91600019901b1916179055600254916040519485528401524260408401527f453d1b64723c7c78bd4fe45db34908788013a27f13786884b2ea90ff660375d560603394a480f35b634e487b7160e01b8952604160045288fd5b634e487b7160e01b885260216004528288fd5b60405162461bcd60e51b81526004810186905260118185015270496e76616c69642062696420707269636560781b6044820152606490fd5b5060038101548711156101a0565b60405162461bcd60e51b8152600481018690526015818501527421b0b73737ba103134b21037b71037bbb7103537b160591b6044820152606490fd5b60405162461bcd60e51b815260048101869052601581850152744a6f62206e6f74206f70656e20666f72206269647360581b6044820152606490fd5b634e487b7160e01b895260216004528389fd5b50600154851115610161565b6104029150863d8811610408575b6103fa8183611e70565b810190611e92565b38610152565b503d6103f0565b6040513d8a823e3d90fd5b80fd5b503461041a57602080600319360112610666576004358015158061065a575b61044590611f1f565b80835260038252604083206004810154421061061f5760068101805460ff8116600681101561060b5760018114908115610600575b50156105bb5760ff19166004179055600181015460038201546001600160a01b039291869182918291829187168282156105b2575bf1156105a7576008019084818354168015156000146105765782825416803b15610572576040516342e2071960e01b81526001600160a01b0392909216600483015260006024830181905260448301819052606483015282908290608490829084905af180156105675761054f575b50507f6cd89a2112165729f32b36e2b1fc73bfc7c6acc4649ef7ddb14f5f99ec321e7591541692604051428152a380f35b61055890611e0d565b61056357843861051e565b8480fd5b6040513d84823e3d90fd5b8280fd5b50505050907f7e3805011acb8d49832d7ef085841e251e66267c06e54e0ac20cb09f3c696d3b90604051428152a280f35b6040513d86823e3d90fd5b506108fc6104af565b60405162461bcd60e51b815260048101869052601960248201527f496e76616c696420737461746520666f722074696d656f7574000000000000006044820152606490fd5b60029150143861047a565b634e487b7160e01b87526021600452602487fd5b60405162461bcd60e51b8152600481018490526013602482015272111958591b1a5b99481b9bdd081c185cdcd959606a1b6044820152606490fd5b5060015481111561043c565b5080fd5b503461041a57604036600319011261041a5760043560249081359181151580610838575b61069790611f1f565b81845260036020908152604085206008810154919290916001600160a01b031633036107ff57600682019081549060ff821660068110156107ec576001036107a95760048401544210156107745786156107315750916009916002879460ff1916179055015560405192835242908301527ff46a13d6d6628b4030d28874eaa1507890be050b8d2a85ced0bf95c46229bab560403393a380f35b8460196064926040519262461bcd60e51b845260048401528201527f44656c6976657261626c652068617368207265717569726564000000000000006044820152fd5b84600f6064926040519262461bcd60e51b845260048401528201526e111958591b1a5b99481c185cdcd959608a1b6044820152fd5b8460196064926040519262461bcd60e51b845260048401528201527f4a6f62206e6f7420696e2061737369676e6564207374617465000000000000006044820152fd5b50634e487b7160e01b8852602160045287fd5b8260136064926040519262461bcd60e51b84526004840152820152722737ba1030b9b9b4b3b732b2103bb7b935b2b960691b6044820152fd5b5060015482111561068e565b503461041a57608036600319011261041a57602460043581358015158103610a6c576044359260ff8416809403610c655760643583151580610c59575b61088a90611f1f565b838652602091600383526040872090600182019160018060a01b039586845416803303610c1557600683019182549060ff82166006811015610c0257600203610bca57918c918c936108df6064861115612003565b600a870160ff19958682541617905589600b880155600014610ac55750505060039082541617905560078101548952600485526040892061096f60405161092581611e37565b8254815260018301548882015288600284015416604082015260c060ff60066003860154956060850196875260048101546080860152600581015460a08601520154169101611fa2565b519260038201549084820391808311610ab257918b9392918987869414918215610a86575b50505050506008019181808080878b885416828215610a7d575bf115610a705786825416908784541690823b15610a6c57608484928388958e60405197889687956342e2071960e01b875260048701528501526044840152600160648401525af1801561056757610a4c575b5050907fa524c1b9832972b3599646a423b8ad058ce6e38720fd41e9ecb6019eaedb39d49460a0949392541696604051936001855284015260408301526060820152426080820152a380f35b610a5a909594939295611e0d565b610a68579091928738610a00565b8780fd5b8380fd5b50604051903d90823e3d90fd5b506108fc6109ae565b9284939284939284935416908390610aa9575bf115610a70578138808981610994565b506108fc610a99565b634e487b7160e01b8c526011600452848cfd5b82965082959750829491929360049116179055600386015490828215610bc1575bf115610bb657866008858254169201918583541690803b15610572576040516342e2071960e01b81526001600160a01b0392909216600483015260006024830181905260448301819052606483015282908290608490829084905af1801561056757610b98575b5050907fa524c1b9832972b3599646a423b8ad058ce6e38720fd41e9ecb6019eaedb39d49360a09392541695604051928884528301528660408301526060820152426080820152a380f35b610ba59094939294611e0d565b610bb25790918638610b4d565b8680fd5b6040513d88823e3d90fd5b506108fc610ae6565b60405162461bcd60e51b8152600481018a905260118188015270129bd8881b9bdd0819195b1a5d995c9959607a1b6044820152606490fd5b634e487b7160e01b8e526021600452868efd5b60405162461bcd60e51b8152600481018890526018818601527f4f6e6c7920706f737465722063616e2066696e616c697a6500000000000000006044820152606490fd5b50600154841115610881565b600080fd5b503461041a57602036600319011261041a57604090600435816101808451610c9181611e53565b82815282602082015282868201528260608201528260808201528260a08201528260c08201528260e082015282610100820152826101208201528261014082015282610160820152015280151580610e69575b610ced90611f1f565b8152600360205220604051610d0181611e53565b8154815260018201546001600160a01b03166020820152600282015460408201526003820154606082015260048201546080820152600582015460a082015260068083015460ff169290831015610e5357600c60ff916101a09460c0850152600781015460e085015260018060a01b03600882015416610100850152600981015461012085015282600a82015416610140850152600b8101546101608501520154161515610180820152610180604051918051835260018060a01b03602082015116602084015260408101516040840152606081015160608401526080810151608084015260a081015160a0840152610e0260c082015160c0850190611dc5565b60e081015160e084015260018060a01b036101008201511661010084015261012081015161012084015260ff6101408201511661014084015261016081015161016084015201511515610180820152f35b634e487b7160e01b600052602160045260246000fd5b50600154811115610ce4565b50604036600319011261041a576004356024356024602060018060a01b038554166040519283809263c3c5a54760e01b82523360048301525afa80156105a757610ec591859161116c5750611eaa565b34156111275761012c8110158061111a575b156110e257811561109d57610eed600154611eed565b80600155610efb8242611f12565b9060405191610f0983611e53565b81835233602084015284604084015234606084015260808301524260a08301528460c08301528460e08301528461010083015284610120830152846101408301528461016083015284610180830152845260036020526040842081518155600181019060018060a01b03602084015116916001600160601b0360a01b928382541617905560408301516002820155606083015160038201556080830151600482015560a08301516005820155600681019160c08401519260068410156110895760ff9261018092600c928519968688835416911617905560e08701516007830155600882019060018060a01b0361010089015116908254161790556101208601516009820155600a8101846101408801511686825416179055610160860151600b8201550193015115159183541691161790556110496001549142611f12565b60405192835234602084015260408301524260608301527ff67a067d6343d772e6d49193d7ead92e1e0586282af6e88f8affe9a081ca8fca60803393a380f35b634e487b7160e01b88526021600452602488fd5b60405162461bcd60e51b815260206004820152601960248201527f4465736372697074696f6e2068617368207265717569726564000000000000006044820152606490fd5b60405162461bcd60e51b815260206004820152601060248201526f496e76616c696420646561646c696e6560801b6044820152606490fd5b5062015180811115610ed7565b60405162461bcd60e51b815260206004820152601960248201527f457363726f7720616d6f756e74206d757374206265203e2030000000000000006044820152606490fd5b610402915060203d602011610408576103fa8183611e70565b503461041a578060031936011261041a57602060405161012c8152f35b503461041a576111b136611d74565b9190815260056020526040812090815483101561041a5760206111d48484611ddf565b90546040519160031b1c8152f35b503461041a578060031936011261041a576020604051620151808152f35b503461041a578060031936011261041a57546040516001600160a01b039091168152602090f35b503461041a578060031936011261041a576020600154604051908152f35b503461041a5760208060031936011261066657600435801515806112cc575b61126d90611f1f565b82526005815260408220916040518092808554928381520194835280832092905b8282106112b5576112b1856112a581890382611e70565b60405191829182611d8a565b0390f35b83548652948501946001938401939091019061128e565b50600154811115611264565b503461041a57602036600319011261041a57604060e091600435815260046020522061135581549160018101549060018060a01b03600282015416600382015460048301549160ff600660058601549501541694604051978852602088015260408701526060860152608085015260a084015260c0830190611dd2565bf35b503461041a57602036600319011261041a57604060e0916004358160c0845161137f81611e37565b82815282602082015282868201528260608201528260808201528260a0820152015280151580611460575b6113b390611fae565b8152600460205220611355604051916113cb83611e37565b805483526001810154906020840191825260018060a01b03806002830154169060408601918252600383015490606087019182526004840154926080880193845260ff600660058701549660a08b019788520154169561142f60c08a019788611fa2565b60405198518952516020890152511660408701525160608601525160808501525160a08401525160c0830190611dd2565b506002548111156113aa565b503461041a576020806003193601126106665760043590811515806115ff575b61149590611f1f565b818352600381526040832060018101546001600160a01b031690338290036115c15760068101805460ff811660068110156110895761157c578587526005855260408720546115375760ff191660051790556003015484918291829182919082821561152e575bf115610567577f7e3805011acb8d49832d7ef085841e251e66267c06e54e0ac20cb09f3c696d3b90604051428152a280f35b506108fc6114fc565b60405162461bcd60e51b815260048101869052601b60248201527f43616e6e6f742063616e63656c206a6f622077697468206269647300000000006044820152606490fd5b60405162461bcd60e51b815260048101869052601960248201527f43616e206f6e6c792063616e63656c206f70656e206a6f6273000000000000006044820152606490fd5b60405162461bcd60e51b815260048101849052601660248201527513db9b1e481c1bdcdd195c8818d85b8818d85b98d95b60521b6044820152606490fd5b5060015482111561148c565b503461041a57602036600319011261041a5760406101a091600435815260036020522080549060018060a01b039081600182015416916002820154906003830154906004840154906116b8600586015460ff600688015416906007880154936008890154169460098901549660ff600a8b0154169860ff600c600b8d01549c0154169b60206040519e8f908152015260408d015260608c015260808b015260a08a015260c0890190611dc5565b60e08701526101008601526101208501526101408401526101608301521515610180820152f35b503461041a578060031936011261041a57806001908154915b828111156117a9575061170a83612046565b926117186040519485611e70565b808452611727601f1991612046565b01906020913683860137809160015b8481111561174c57604051806112b18882611d8a565b80835260038252600660ff8160408620015416908110156117955790611776911561177b57611eed565b611736565b8061178f61178887611eed565b9689611fef565b52611eed565b634e487b7160e01b84526021600452602484fd5b8082526003602052600660ff8160408520015416908110156117ee57156117d9575b6117d490611eed565b6116f8565b926117e66117d491611eed565b9390506117cb565b634e487b7160e01b83526021600452602483fd5b503461041a57604036600319011261041a5760043560249081359160ff8316809303610a6c5781151580611a2e575b61183a90611f1f565b81845260036020526040842060088101546001600160a01b03929190831633036119dd5760ff60068201541660068110156119ca57600381149081156119bf575b501561198357600c8101805460ff81166119355760019061189f6064891115612003565b60ff1916179055856001848254169201928484541692803b1561057257879383604492604051968795869463bc6e44b760e01b865260048601528401525af18015610bb657611922575b505416906040519283524260208401527f3b808369a5237d9d11d2775db815c2c160f8875be08d2a36cc90f191281a65e460403394a480f35b61192e90959195611e0d565b93386118e9565b60405162461bcd60e51b8152602060048201526021818601527f436c69656e7420616c726561647920726174656420666f722074686973206a6f6044820152603160f91b6064820152608490fd5b60405162461bcd60e51b81526020600482015260158184015274129bd8881b9bdd081e595d08199a5b985b1a5e9959605a1b6044820152606490fd5b60049150143861187b565b634e487b7160e01b875260216004528287fd5b60405162461bcd60e51b8152602060048201528083018390527f4f6e6c792061737369676e656420776f726b65722063616e207261746520636c6044820152631a595b9d60e21b6064820152608490fd5b50600154821115611831565b503461041a578060031936011261041a576020600254604051908152f35b503461041a57611a6736611d74565b9080151580611d68575b611a7a90611f1f565b81151580611d5c575b611a8c90611fae565b808352600360205260408320918084526004602052604084209260018060a01b036001820154163303611d1757600681019081549160ff8316600681101561108957611ce35784600187015403611ca757600686019260ff8454166003811015611c9357611c5c57600190611b0660048501544210611f60565b60ff1916179055826007820155600860018060a01b036002870154169101906001600160601b0360a01b825416179055600160ff19825416179055818452600560205260408420916040518084602082965493848152019088526020882092885b818110611c43575050611b7c92500384611e70565b845b8351811015611c045782611b928286611fef565b51141580611bd7575b90611ba991611bae57611eed565b611b7e565b611bb88186611fef565b518752600460205260408720600601805460ff19166002179055611eed565b50611be28185611fef565b518652600460205260ff600660408820015416600381101561060b5715611b9b565b50849184600260018060a01b0391015416917ffc3d557e46010cdf2a5a80a495f308239f5be888eb5bb151be68d5c369728b246020604051428152a480f35b8454835260019485019488945060209093019201611b67565b60405162461bcd60e51b815260206004820152600f60248201526e426964206e6f742070656e64696e6760881b6044820152606490fd5b634e487b7160e01b89526021600452602489fd5b60405162461bcd60e51b81526020600482015260146024820152732134b2103737ba103337b9103a3434b9903537b160611b6044820152606490fd5b60405162461bcd60e51b815260206004820152600c60248201526b2537b1103737ba1037b832b760a11b6044820152606490fd5b60405162461bcd60e51b815260206004820152601b60248201527f4f6e6c7920706f737465722063616e20616363657074206269647300000000006044820152606490fd5b50600254821115611a83565b50600154811115611a71565b6040906003190112610c65576004359060243590565b6020908160408183019282815285518094520193019160005b828110611db1575050505090565b835185529381019392810192600101611da3565b906006821015610e535752565b906003821015610e535752565b8054821015611df75760005260206000200190600090565b634e487b7160e01b600052603260045260246000fd5b67ffffffffffffffff8111611e2157604052565b634e487b7160e01b600052604160045260246000fd5b60e0810190811067ffffffffffffffff821117611e2157604052565b6101a0810190811067ffffffffffffffff821117611e2157604052565b90601f8019910116810190811067ffffffffffffffff821117611e2157604052565b90816020910312610c6557518015158103610c655790565b15611eb157565b60405162461bcd60e51b81526020600482015260146024820152731059d95b9d081b9bdd081c9959da5cdd195c995960621b6044820152606490fd5b6000198114611efc5760010190565b634e487b7160e01b600052601160045260246000fd5b91908201809211611efc57565b15611f2657565b60405162461bcd60e51b8152602060048201526012602482015271129bd888191bd95cc81b9bdd08195e1a5cdd60721b6044820152606490fd5b15611f6757565b60405162461bcd60e51b8152602060048201526013602482015272129bd888191958591b1a5b99481c185cdcd959606a1b6044820152606490fd5b6003821015610e535752565b15611fb557565b60405162461bcd60e51b8152602060048201526012602482015271109a5908191bd95cc81b9bdd08195e1a5cdd60721b6044820152606490fd5b8051821015611df75760209160051b010190565b1561200a57565b60405162461bcd60e51b81526020600482015260146024820152730526174696e67206d75737420626520302d3130360641b6044820152606490fd5b67ffffffffffffffff8111611e215760051b6020019056fea264697066735822122007ed3183a90fd4583fc54913c4e2478ebaaa70546c19051c968bef27a36fa23f64736f6c63430008140033","opcodes":"PUSH1 0x80 CALLVALUE PUSH2 0x74 JUMPI PUSH1 0x1F PUSH2 0x2124 CODESIZE DUP2 SWAP1 SUB SWAP2 DUP3 ADD PUSH1 0x1F NOT AND DUP4 ADD SWAP2 PUSH1 0x1 PUSH1 0x1 PUSH1 0x40 SHL SUB DUP4 GT DUP5 DUP5 LT OR PUSH2 0x79 JUMPI DUP1 DUP5 SWAP3 PUSH1 0x20 SWAP5 PUSH1 0x40 MSTORE DUP4 CODECOPY DUP2 ADD SUB SLT PUSH2 0x74 JUMPI MLOAD PUSH1 0x1 PUSH1 0x1 PUSH1 0xA0 SHL SUB DUP2 AND SWAP1 DUP2 SWAP1 SUB PUSH2 0x74 JUMPI PUSH1 0x0 DUP1 SLOAD PUSH1 0x1 PUSH1 0x1 PUSH1 0xA0 SHL SUB NOT AND SWAP2 SWAP1 SWAP2 OR SWAP1 SSTORE PUSH1 0x40 MLOAD PUSH2 0x2094 SWAP1 DUP2 PUSH2 0x90 DUP3 CODECOPY RETURN JUMPDEST PUSH1 0x0 DUP1 REVERT JUMPDEST PUSH4 0x4E487B71 PUSH1 0xE0 SHL PUSH1 0x0 MSTORE PUSH1 0x41 PUSH1 0x4 MSTORE PUSH1 0x24 PUSH1 0x0 REVERT INVALID PUSH1 0x80 PUSH1 0x40 MSTORE PUSH1 0x4 CALLDATASIZE LT ISZERO PUSH2 0x12 JUMPI PUSH1 0x0 DUP1 REVERT JUMPDEST PUSH1 0x0 DUP1 CALLDATALOAD PUSH1 0xE0 SHR DUP1 PUSH4 0x2E9D5E4 EQ PUSH2 0x1A58 JUMPI DUP1 PUSH4 0x3F69354 EQ PUSH2 0x1A3A JUMPI DUP1 PUSH4 0xA197A0D EQ PUSH2 0x1802 JUMPI DUP1 PUSH4 0x1321C95E EQ PUSH2 0x16DF JUMPI DUP1 PUSH4 0x180AEDF3 EQ PUSH2 0x160B JUMPI DUP1 PUSH4 0x1DFFA3DC EQ PUSH2 0x146C JUMPI DUP1 PUSH4 0x3C889E6F EQ PUSH2 0x1357 JUMPI DUP1 PUSH4 0x4423C5F1 EQ PUSH2 0x12D8 JUMPI DUP1 PUSH4 0x4CB9D7FD EQ PUSH2 0x1245 JUMPI DUP1 PUSH4 0x50355D76 EQ PUSH2 0x1227 JUMPI DUP1 PUSH4 0x67031BAE EQ PUSH2 0x1200 JUMPI DUP1 PUSH4 0x6F0E530F EQ PUSH2 0x11E2 JUMPI DUP1 PUSH4 0x840850D1 EQ PUSH2 0x11A2 JUMPI DUP1 PUSH4 0x85AE341D EQ PUSH2 0x1185 JUMPI DUP1 PUSH4 0xBB8BDCED EQ PUSH2 0xE75 JUMPI DUP1 PUSH4 0xBF22C457 EQ PUSH2 0xC6A JUMPI DUP1 PUSH4 0xD2F5B5D2 EQ PUSH2 0x844 JUMPI DUP1 PUSH4 0xD8DC8C28 EQ PUSH2 0x66A JUMPI DUP1 PUSH4 0xD9BADB5D EQ PUSH2 0x41D JUMPI PUSH4 0xECDE458A EQ PUSH2 0xF9 JUMPI PUSH1 0x0 DUP1 REVERT JUMPDEST CALLVALUE PUSH2 0x41A JUMPI PUSH1 0x60 CALLDATASIZE PUSH1 0x3 NOT ADD SLT PUSH2 0x41A JUMPI PUSH1 0x4 CALLDATALOAD PUSH1 0x24 SWAP1 DUP2 CALLDATALOAD SWAP2 PUSH1 0x44 CALLDATALOAD PUSH1 0x1 DUP1 PUSH1 0xA0 SHL SUB SWAP2 DUP3 DUP7 SLOAD AND SWAP3 PUSH1 0x40 MLOAD DUP1 SWAP5 PUSH4 0xC3C5A547 PUSH1 0xE0 SHL DUP3 MSTORE CALLER PUSH1 0x4 DUP4 ADD MSTORE DUP2 DUP5 PUSH1 0x20 SWAP8 DUP9 SWAP4 GAS STATICCALL DUP1 ISZERO PUSH2 0x40F JUMPI PUSH2 0x158 SWAP2 DUP10 SWAP2 PUSH2 0x3E2 JUMPI JUMPDEST POP PUSH2 0x1EAA JUMP JUMPDEST DUP5 ISZERO ISZERO DUP1 PUSH2 0x3D6 JUMPI JUMPDEST PUSH2 0x16A SWAP1 PUSH2 0x1F1F JUMP JUMPDEST DUP5 DUP8 MSTORE PUSH1 0x3 DUP5 MSTORE PUSH1 0x40 DUP8 KECCAK256 PUSH1 0xFF PUSH1 0x6 DUP3 ADD SLOAD AND PUSH1 0x6 DUP2 LT ISZERO PUSH2 0x3C3 JUMPI PUSH2 0x387 JUMPI DUP2 PUSH1 0x1 DUP3 ADD SLOAD AND CALLER EQ PUSH2 0x34B JUMPI DUP7 ISZERO ISZERO DUP1 PUSH2 0x33D JUMPI JUMPDEST ISZERO PUSH2 0x305 JUMPI DUP8 SWAP2 PUSH2 0x1B8 PUSH1 0x4 PUSH1 0x6 SWAP4 ADD SLOAD TIMESTAMP LT PUSH2 0x1F60 JUMP JUMPDEST PUSH2 0x1C3 PUSH1 0x2 SLOAD PUSH2 0x1EED JUMP JUMPDEST DUP1 PUSH1 0x2 SSTORE DUP6 DUP10 DUP9 PUSH1 0x40 MLOAD SWAP5 PUSH2 0x1D7 DUP7 PUSH2 0x1E37 JUMP JUMPDEST DUP5 DUP7 MSTORE DUP2 DUP7 ADD DUP13 DUP2 MSTORE PUSH1 0x40 DUP10 PUSH1 0x4 DUP3 DUP11 ADD SWAP6 CALLER DUP8 MSTORE PUSH1 0x60 DUP12 ADD SWAP8 DUP9 MSTORE PUSH1 0x80 DUP12 ADD SWAP9 DUP10 MSTORE PUSH1 0xA0 DUP12 ADD SWAP10 TIMESTAMP DUP12 MSTORE PUSH1 0xC0 DUP13 ADD SWAP14 DUP15 MSTORE DUP4 MSTORE MSTORE KECCAK256 SWAP7 MLOAD DUP8 SSTORE MLOAD PUSH1 0x1 DUP8 ADD SSTORE PUSH1 0x2 DUP7 ADD SWAP2 MLOAD AND PUSH1 0x1 PUSH1 0x1 PUSH1 0x60 SHL SUB PUSH1 0xA0 SHL DUP3 SLOAD AND OR SWAP1 SSTORE MLOAD PUSH1 0x3 DUP5 ADD SSTORE MLOAD PUSH1 0x4 DUP4 ADD SSTORE MLOAD PUSH1 0x5 DUP3 ADD SSTORE ADD SWAP1 MLOAD PUSH1 0x3 DUP2 LT ISZERO PUSH2 0x2F2 JUMPI PUSH1 0xFF DUP1 NOT DUP4 SLOAD AND SWAP2 AND OR SWAP1 SSTORE DUP4 DUP7 MSTORE PUSH1 0x5 DUP4 MSTORE PUSH1 0x40 DUP7 KECCAK256 SWAP1 PUSH1 0x2 SLOAD SWAP2 DUP1 SLOAD SWAP2 PUSH9 0x10000000000000000 DUP4 LT ISZERO PUSH2 0x2E0 JUMPI POP SWAP1 PUSH2 0x28E SWAP2 PUSH1 0x1 DUP3 ADD DUP2 SSTORE PUSH2 0x1DDF JUMP JUMPDEST DUP2 SWAP3 SWAP2 SLOAD SWAP1 PUSH1 0x3 SHL SWAP2 DUP3 SHL SWAP2 PUSH1 0x0 NOT SWAP1 SHL NOT AND OR SWAP1 SSTORE PUSH1 0x2 SLOAD SWAP2 PUSH1 0x40 MLOAD SWAP5 DUP6 MSTORE DUP5 ADD MSTORE TIMESTAMP PUSH1 0x40 DUP5 ADD MSTORE PUSH32 0x453D1B64723C7C78BD4FE45DB34908788013A27F13786884B2EA90FF660375D5 PUSH1 0x60 CALLER SWAP5 LOG4 DUP1 RETURN JUMPDEST PUSH4 0x4E487B71 PUSH1 0xE0 SHL DUP10 MSTORE PUSH1 0x41 PUSH1 0x4 MSTORE DUP9 REVERT JUMPDEST PUSH4 0x4E487B71 PUSH1 0xE0 SHL DUP9 MSTORE PUSH1 0x21 PUSH1 0x4 MSTORE DUP3 DUP9 REVERT JUMPDEST PUSH1 0x40 MLOAD PUSH3 0x461BCD PUSH1 0xE5 SHL DUP2 MSTORE PUSH1 0x4 DUP2 ADD DUP7 SWAP1 MSTORE PUSH1 0x11 DUP2 DUP6 ADD MSTORE PUSH17 0x496E76616C696420626964207072696365 PUSH1 0x78 SHL PUSH1 0x44 DUP3 ADD MSTORE PUSH1 0x64 SWAP1 REVERT JUMPDEST POP PUSH1 0x3 DUP2 ADD SLOAD DUP8 GT ISZERO PUSH2 0x1A0 JUMP JUMPDEST PUSH1 0x40 MLOAD PUSH3 0x461BCD PUSH1 0xE5 SHL DUP2 MSTORE PUSH1 0x4 DUP2 ADD DUP7 SWAP1 MSTORE PUSH1 0x15 DUP2 DUP6 ADD MSTORE PUSH21 0x21B0B73737BA103134B21037B71037BBB7103537B1 PUSH1 0x59 SHL PUSH1 0x44 DUP3 ADD MSTORE PUSH1 0x64 SWAP1 REVERT JUMPDEST PUSH1 0x40 MLOAD PUSH3 0x461BCD PUSH1 0xE5 SHL DUP2 MSTORE PUSH1 0x4 DUP2 ADD DUP7 SWAP1 MSTORE PUSH1 0x15 DUP2 DUP6 ADD MSTORE PUSH21 0x4A6F62206E6F74206F70656E20666F722062696473 PUSH1 0x58 SHL PUSH1 0x44 DUP3 ADD MSTORE PUSH1 0x64 SWAP1 REVERT JUMPDEST PUSH4 0x4E487B71 PUSH1 0xE0 SHL DUP10 MSTORE PUSH1 0x21 PUSH1 0x4 MSTORE DUP4 DUP10 REVERT JUMPDEST POP PUSH1 0x1 SLOAD DUP6 GT ISZERO PUSH2 0x161 JUMP JUMPDEST PUSH2 0x402 SWAP2 POP DUP7 RETURNDATASIZE DUP9 GT PUSH2 0x408 JUMPI JUMPDEST PUSH2 0x3FA DUP2 DUP4 PUSH2 0x1E70 JUMP JUMPDEST DUP2 ADD SWAP1 PUSH2 0x1E92 JUMP JUMPDEST CODESIZE PUSH2 0x152 JUMP JUMPDEST POP RETURNDATASIZE PUSH2 0x3F0 JUMP JUMPDEST PUSH1 0x40 MLOAD RETURNDATASIZE DUP11 DUP3 RETURNDATACOPY RETURNDATASIZE SWAP1 REVERT JUMPDEST DUP1 REVERT JUMPDEST POP CALLVALUE PUSH2 0x41A JUMPI PUSH1 0x20 DUP1 PUSH1 0x3 NOT CALLDATASIZE ADD SLT PUSH2 0x666 JUMPI PUSH1 0x4 CALLDATALOAD DUP1 ISZERO ISZERO DUP1 PUSH2 0x65A JUMPI JUMPDEST PUSH2 0x445 SWAP1 PUSH2 0x1F1F JUMP JUMPDEST DUP1 DUP4 MSTORE PUSH1 0x3 DUP3 MSTORE PUSH1 0x40 DUP4 KECCAK256 PUSH1 0x4 DUP2 ADD SLOAD TIMESTAMP LT PUSH2 0x61F JUMPI PUSH1 0x6 DUP2 ADD DUP1 SLOAD PUSH1 0xFF DUP2 AND PUSH1 0x6 DUP2 LT ISZERO PUSH2 0x60B JUMPI PUSH1 0x1 DUP2 EQ SWAP1 DUP2 ISZERO PUSH2 0x600 JUMPI JUMPDEST POP ISZERO PUSH2 0x5BB JUMPI PUSH1 0xFF NOT AND PUSH1 0x4 OR SWAP1 SSTORE PUSH1 0x1 DUP2 ADD SLOAD PUSH1 0x3 DUP3 ADD SLOAD PUSH1 0x1 PUSH1 0x1 PUSH1 0xA0 SHL SUB SWAP3 SWAP2 DUP7 SWAP2 DUP3 SWAP2 DUP3 SWAP2 DUP3 SWAP2 DUP8 AND DUP3 DUP3 ISZERO PUSH2 0x5B2 JUMPI JUMPDEST CALL ISZERO PUSH2 0x5A7 JUMPI PUSH1 0x8 ADD SWAP1 DUP5 DUP2 DUP4 SLOAD AND DUP1 ISZERO ISZERO PUSH1 0x0 EQ PUSH2 0x576 JUMPI DUP3 DUP3 SLOAD AND DUP1 EXTCODESIZE ISZERO PUSH2 0x572 JUMPI PUSH1 0x40 MLOAD PUSH4 0x42E20719 PUSH1 0xE0 SHL DUP2 MSTORE PUSH1 0x1 PUSH1 0x1 PUSH1 0xA0 SHL SUB SWAP3 SWAP1 SWAP3 AND PUSH1 0x4 DUP4 ADD MSTORE PUSH1 0x0 PUSH1 0x24 DUP4 ADD DUP2 SWAP1 MSTORE PUSH1 0x44 DUP4 ADD DUP2 SWAP1 MSTORE PUSH1 0x64 DUP4 ADD MSTORE DUP3 SWAP1 DUP3 SWAP1 PUSH1 0x84 SWAP1 DUP3 SWAP1 DUP5 SWAP1 GAS CALL DUP1 ISZERO PUSH2 0x567 JUMPI PUSH2 0x54F JUMPI JUMPDEST POP POP PUSH32 0x6CD89A2112165729F32B36E2B1FC73BFC7C6ACC4649EF7DDB14F5F99EC321E75 SWAP2 SLOAD AND SWAP3 PUSH1 0x40 MLOAD TIMESTAMP DUP2 MSTORE LOG3 DUP1 RETURN JUMPDEST PUSH2 0x558 SWAP1 PUSH2 0x1E0D JUMP JUMPDEST PUSH2 0x563 JUMPI DUP5 CODESIZE PUSH2 0x51E JUMP JUMPDEST DUP5 DUP1 REVERT JUMPDEST PUSH1 0x40 MLOAD RETURNDATASIZE DUP5 DUP3 RETURNDATACOPY RETURNDATASIZE SWAP1 REVERT JUMPDEST DUP3 DUP1 REVERT JUMPDEST POP POP POP POP SWAP1 PUSH32 0x7E3805011ACB8D49832D7EF085841E251E66267C06E54E0AC20CB09F3C696D3B SWAP1 PUSH1 0x40 MLOAD TIMESTAMP DUP2 MSTORE LOG2 DUP1 RETURN JUMPDEST PUSH1 0x40 MLOAD RETURNDATASIZE DUP7 DUP3 RETURNDATACOPY RETURNDATASIZE SWAP1 REVERT JUMPDEST POP PUSH2 0x8FC PUSH2 0x4AF JUMP JUMPDEST PUSH1 0x40 MLOAD PUSH3 0x461BCD PUSH1 0xE5 SHL DUP2 MSTORE PUSH1 0x4 DUP2 ADD DUP7 SWAP1 MSTORE PUSH1 0x19 PUSH1 0x24 DUP3 ADD MSTORE PUSH32 0x496E76616C696420737461746520666F722074696D656F757400000000000000 PUSH1 0x44 DUP3 ADD MSTORE PUSH1 0x64 SWAP1 REVERT JUMPDEST PUSH1 0x2 SWAP2 POP EQ CODESIZE PUSH2 0x47A JUMP JUMPDEST PUSH4 0x4E487B71 PUSH1 0xE0 SHL DUP8 MSTORE PUSH1 0x21 PUSH1 0x4 MSTORE PUSH1 0x24 DUP8 REVERT JUMPDEST PUSH1 0x40 MLOAD PUSH3 0x461BCD PUSH1 0xE5 SHL DUP2 MSTORE PUSH1 0x4 DUP2 ADD DUP5 SWAP1 MSTORE PUSH1 0x13 PUSH1 0x24 DUP3 ADD MSTORE PUSH19 0x111958591B1A5B99481B9BDD081C185CDCD959 PUSH1 0x6A SHL PUSH1 0x44 DUP3 ADD MSTORE PUSH1 0x64 SWAP1 REVERT JUMPDEST POP PUSH1 0x1 SLOAD DUP2 GT ISZERO PUSH2 0x43C JUMP JUMPDEST POP DUP1 REVERT JUMPDEST POP CALLVALUE PUSH2 0x41A JUMPI PUSH1 0x40 CALLDATASIZE PUSH1 0x3 NOT ADD SLT PUSH2 0x41A JUMPI PUSH1 0x4 CALLDATALOAD PUSH1 0x24 SWAP1 DUP2 CALLDATALOAD SWAP2 DUP2 ISZERO ISZERO DUP1 PUSH2 0x838 JUMPI JUMPDEST PUSH2 0x697 SWAP1 PUSH2 0x1F1F JUMP JUMPDEST DUP2 DUP5 MSTORE PUSH1 0x3 PUSH1 0x20 SWAP1 DUP2 MSTORE PUSH1 0x40 DUP6 KECCAK256 PUSH1 0x8 DUP2 ADD SLOAD SWAP2 SWAP3 SWAP1 SWAP2 PUSH1 0x1 PUSH1 0x1 PUSH1 0xA0 SHL SUB AND CALLER SUB PUSH2 0x7FF JUMPI PUSH1 0x6 DUP3 ADD SWAP1 DUP2 SLOAD SWAP1 PUSH1 0xFF DUP3 AND PUSH1 0x6 DUP2 LT ISZERO PUSH2 0x7EC JUMPI PUSH1 0x1 SUB PUSH2 0x7A9 JUMPI PUSH1 0x4 DUP5 ADD SLOAD TIMESTAMP LT ISZERO PUSH2 0x774 JUMPI DUP7 ISZERO PUSH2 0x731 JUMPI POP SWAP2 PUSH1 0x9 SWAP2 PUSH1 0x2 DUP8 SWAP5 PUSH1 0xFF NOT AND OR SWAP1 SSTORE ADD SSTORE PUSH1 0x40 MLOAD SWAP3 DUP4 MSTORE TIMESTAMP SWAP1 DUP4 ADD MSTORE PUSH32 0xF46A13D6D6628B4030D28874EAA1507890BE050B8D2A85CED0BF95C46229BAB5 PUSH1 0x40 CALLER SWAP4 LOG3 DUP1 RETURN JUMPDEST DUP5 PUSH1 0x19 PUSH1 0x64 SWAP3 PUSH1 0x40 MLOAD SWAP3 PUSH3 0x461BCD PUSH1 0xE5 SHL DUP5 MSTORE PUSH1 0x4 DUP5 ADD MSTORE DUP3 ADD MSTORE PUSH32 0x44656C6976657261626C65206861736820726571756972656400000000000000 PUSH1 0x44 DUP3 ADD MSTORE REVERT JUMPDEST DUP5 PUSH1 0xF PUSH1 0x64 SWAP3 PUSH1 0x40 MLOAD SWAP3 PUSH3 0x461BCD PUSH1 0xE5 SHL DUP5 MSTORE PUSH1 0x4 DUP5 ADD MSTORE DUP3 ADD MSTORE PUSH15 0x111958591B1A5B99481C185CDCD959 PUSH1 0x8A SHL PUSH1 0x44 DUP3 ADD MSTORE REVERT JUMPDEST DUP5 PUSH1 0x19 PUSH1 0x64 SWAP3 PUSH1 0x40 MLOAD SWAP3 PUSH3 0x461BCD PUSH1 0xE5 SHL DUP5 MSTORE PUSH1 0x4 DUP5 ADD MSTORE DUP3 ADD MSTORE PUSH32 0x4A6F62206E6F7420696E2061737369676E656420737461746500000000000000 PUSH1 0x44 DUP3 ADD MSTORE REVERT JUMPDEST POP PUSH4 0x4E487B71 PUSH1 0xE0 SHL DUP9 MSTORE PUSH1 0x21 PUSH1 0x4 MSTORE DUP8 REVERT JUMPDEST DUP3 PUSH1 0x13 PUSH1 0x64 SWAP3 PUSH1 0x40 MLOAD SWAP3 PUSH3 0x461BCD PUSH1 0xE5 SHL DUP5 MSTORE PUSH1 0x4 DUP5 ADD MSTORE DUP3 ADD MSTORE PUSH19 0x2737BA1030B9B9B4B3B732B2103BB7B935B2B9 PUSH1 0x69 SHL PUSH1 0x44 DUP3 ADD MSTORE REVERT JUMPDEST POP PUSH1 0x1 SLOAD DUP3 GT ISZERO PUSH2 0x68E JUMP JUMPDEST POP CALLVALUE PUSH2 0x41A JUMPI PUSH1 0x80 CALLDATASIZE PUSH1 0x3 NOT ADD SLT PUSH2 0x41A JUMPI PUSH1 0x24 PUSH1 0x4 CALLDATALOAD DUP2 CALLDATALOAD DUP1 ISZERO ISZERO DUP2 SUB PUSH2 0xA6C JUMPI PUSH1 0x44 CALLDATALOAD SWAP3 PUSH1 0xFF DUP5 AND DUP1 SWAP5 SUB PUSH2 0xC65 JUMPI PUSH1 0x64 CALLDATALOAD DUP4 ISZERO ISZERO DUP1 PUSH2 0xC59 JUMPI JUMPDEST PUSH2 0x88A SWAP1 PUSH2 0x1F1F JUMP JUMPDEST DUP4 DUP7 MSTORE PUSH1 0x20 SWAP2 PUSH1 0x3 DUP4 MSTORE PUSH1 0x40 DUP8 KECCAK256 SWAP1 PUSH1 0x1 DUP3 ADD SWAP2 PUSH1 0x1 DUP1 PUSH1 0xA0 SHL SUB SWAP6 DUP7 DUP5 SLOAD AND DUP1 CALLER SUB PUSH2 0xC15 JUMPI PUSH1 0x6 DUP4 ADD SWAP2 DUP3 SLOAD SWAP1 PUSH1 0xFF DUP3 AND PUSH1 0x6 DUP2 LT ISZERO PUSH2 0xC02 JUMPI PUSH1 0x2 SUB PUSH2 0xBCA JUMPI SWAP2 DUP13 SWAP2 DUP13 SWAP4 PUSH2 0x8DF PUSH1 0x64 DUP7 GT ISZERO PUSH2 0x2003 JUMP JUMPDEST PUSH1 0xA DUP8 ADD PUSH1 0xFF NOT SWAP6 DUP7 DUP3 SLOAD AND OR SWAP1 SSTORE DUP10 PUSH1 0xB DUP9 ADD SSTORE PUSH1 0x0 EQ PUSH2 0xAC5 JUMPI POP POP POP PUSH1 0x3 SWAP1 DUP3 SLOAD AND OR SWAP1 SSTORE PUSH1 0x7 DUP2 ADD SLOAD DUP10 MSTORE PUSH1 0x4 DUP6 MSTORE PUSH1 0x40 DUP10 KECCAK256 PUSH2 0x96F PUSH1 0x40 MLOAD PUSH2 0x925 DUP2 PUSH2 0x1E37 JUMP JUMPDEST DUP3 SLOAD DUP2 MSTORE PUSH1 0x1 DUP4 ADD SLOAD DUP9 DUP3 ADD MSTORE DUP9 PUSH1 0x2 DUP5 ADD SLOAD AND PUSH1 0x40 DUP3 ADD MSTORE PUSH1 0xC0 PUSH1 0xFF PUSH1 0x6 PUSH1 0x3 DUP7 ADD SLOAD SWAP6 PUSH1 0x60 DUP6 ADD SWAP7 DUP8 MSTORE PUSH1 0x4 DUP2 ADD SLOAD PUSH1 0x80 DUP7 ADD MSTORE PUSH1 0x5 DUP2 ADD SLOAD PUSH1 0xA0 DUP7 ADD MSTORE ADD SLOAD AND SWAP2 ADD PUSH2 0x1FA2 JUMP JUMPDEST MLOAD SWAP3 PUSH1 0x3 DUP3 ADD SLOAD SWAP1 DUP5 DUP3 SUB SWAP2 DUP1 DUP4 GT PUSH2 0xAB2 JUMPI SWAP2 DUP12 SWAP4 SWAP3 SWAP2 DUP10 DUP8 DUP7 SWAP5 EQ SWAP2 DUP3 ISZERO PUSH2 0xA86 JUMPI JUMPDEST POP POP POP POP POP PUSH1 0x8 ADD SWAP2 DUP2 DUP1 DUP1 DUP1 DUP8 DUP12 DUP9 SLOAD AND DUP3 DUP3 ISZERO PUSH2 0xA7D JUMPI JUMPDEST CALL ISZERO PUSH2 0xA70 JUMPI DUP7 DUP3 SLOAD AND SWAP1 DUP8 DUP5 SLOAD AND SWAP1 DUP3 EXTCODESIZE ISZERO PUSH2 0xA6C JUMPI PUSH1 0x84 DUP5 SWAP3 DUP4 DUP9 SWAP6 DUP15 PUSH1 0x40 MLOAD SWAP8 DUP9 SWAP7 DUP8 SWAP6 PUSH4 0x42E20719 PUSH1 0xE0 SHL DUP8 MSTORE PUSH1 0x4 DUP8 ADD MSTORE DUP6 ADD MSTORE PUSH1 0x44 DUP5 ADD MSTORE PUSH1 0x1 PUSH1 0x64 DUP5 ADD MSTORE GAS CALL DUP1 ISZERO PUSH2 0x567 JUMPI PUSH2 0xA4C JUMPI JUMPDEST POP POP SWAP1 PUSH32 0xA524C1B9832972B3599646A423B8AD058CE6E38720FD41E9ECB6019EAEDB39D4 SWAP5 PUSH1 0xA0 SWAP5 SWAP4 SWAP3 SLOAD AND SWAP7 PUSH1 0x40 MLOAD SWAP4 PUSH1 0x1 DUP6 MSTORE DUP5 ADD MSTORE PUSH1 0x40 DUP4 ADD MSTORE PUSH1 0x60 DUP3 ADD MSTORE TIMESTAMP PUSH1 0x80 DUP3 ADD MSTORE LOG3 DUP1 RETURN JUMPDEST PUSH2 0xA5A SWAP1 SWAP6 SWAP5 SWAP4 SWAP3 SWAP6 PUSH2 0x1E0D JUMP JUMPDEST PUSH2 0xA68 JUMPI SWAP1 SWAP2 SWAP3 DUP8 CODESIZE PUSH2 0xA00 JUMP JUMPDEST DUP8 DUP1 REVERT JUMPDEST DUP4 DUP1 REVERT JUMPDEST POP PUSH1 0x40 MLOAD SWAP1 RETURNDATASIZE SWAP1 DUP3 RETURNDATACOPY RETURNDATASIZE SWAP1 REVERT JUMPDEST POP PUSH2 0x8FC PUSH2 0x9AE JUMP JUMPDEST SWAP3 DUP5 SWAP4 SWAP3 DUP5 SWAP4 SWAP3 DUP5 SWAP4 SLOAD AND SWAP1 DUP4 SWAP1 PUSH2 0xAA9 JUMPI JUMPDEST CALL ISZERO PUSH2 0xA70 JUMPI DUP2 CODESIZE DUP1 DUP10 DUP2 PUSH2 0x994 JUMP JUMPDEST POP PUSH2 0x8FC PUSH2 0xA99 JUMP JUMPDEST PUSH4 0x4E487B71 PUSH1 0xE0 SHL DUP13 MSTORE PUSH1 0x11 PUSH1 0x4 MSTORE DUP5 DUP13 REVERT JUMPDEST DUP3 SWAP7 POP DUP3 SWAP6 SWAP8 POP DUP3 SWAP5 SWAP2 SWAP3 SWAP4 PUSH1 0x4 SWAP2 AND OR SWAP1 SSTORE PUSH1 0x3 DUP7 ADD SLOAD SWAP1 DUP3 DUP3 ISZERO PUSH2 0xBC1 JUMPI JUMPDEST CALL ISZERO PUSH2 0xBB6 JUMPI DUP7 PUSH1 0x8 DUP6 DUP3 SLOAD AND SWAP3 ADD SWAP2 DUP6 DUP4 SLOAD AND SWAP1 DUP1 EXTCODESIZE ISZERO PUSH2 0x572 JUMPI PUSH1 0x40 MLOAD PUSH4 0x42E20719 PUSH1 0xE0 SHL DUP2 MSTORE PUSH1 0x1 PUSH1 0x1 PUSH1 0xA0 SHL SUB SWAP3 SWAP1 SWAP3 AND PUSH1 0x4 DUP4 ADD MSTORE PUSH1 0x0 PUSH1 0x24 DUP4 ADD DUP2 SWAP1 MSTORE PUSH1 0x44 DUP4 ADD DUP2 SWAP1 MSTORE PUSH1 0x64 DUP4 ADD MSTORE DUP3 SWAP1 DUP3 SWAP1 PUSH1 0x84 SWAP1 DUP3 SWAP1 DUP5 SWAP1 GAS CALL DUP1 ISZERO PUSH2 0x567 JUMPI PUSH2 0xB98 JUMPI JUMPDEST POP POP SWAP1 PUSH32 0xA524C1B9832972B3599646A423B8AD058CE6E38720FD41E9ECB6019EAEDB39D4 SWAP4 PUSH1 0xA0 SWAP4 SWAP3 SLOAD AND SWAP6 PUSH1 0x40 MLOAD SWAP3 DUP9 DUP5 MSTORE DUP4 ADD MSTORE DUP7 PUSH1 0x40 DUP4 ADD MSTORE PUSH1 0x60 DUP3 ADD MSTORE TIMESTAMP PUSH1 0x80 DUP3 ADD MSTORE LOG3 DUP1 RETURN JUMPDEST PUSH2 0xBA5 SWAP1 SWAP5 SWAP4 SWAP3 SWAP5 PUSH2 0x1E0D JUMP JUMPDEST PUSH2 0xBB2 JUMPI SWAP1 SWAP2 DUP7 CODESIZE PUSH2 0xB4D JUMP JUMPDEST DUP7 DUP1 REVERT JUMPDEST PUSH1 0x40 MLOAD RETURNDATASIZE DUP9 DUP3 RETURNDATACOPY RETURNDATASIZE SWAP1 REVERT JUMPDEST POP PUSH2 0x8FC PUSH2 0xAE6 JUMP JUMPDEST PUSH1 0x40 MLOAD PUSH3 0x461BCD PUSH1 0xE5 SHL DUP2 MSTORE PUSH1 0x4 DUP2 ADD DUP11 SWAP1 MSTORE PUSH1 0x11 DUP2 DUP9 ADD MSTORE PUSH17 0x129BD8881B9BDD0819195B1A5D995C9959 PUSH1 0x7A SHL PUSH1 0x44 DUP3 ADD MSTORE PUSH1 0x64 SWAP1 REVERT JUMPDEST PUSH4 0x4E487B71 PUSH1 0xE0 SHL DUP15 MSTORE PUSH1 0x21 PUSH1 0x4 MSTORE DUP7 DUP15 REVERT JUMPDEST PUSH1 0x40 MLOAD PUSH3 0x461BCD PUSH1 0xE5 SHL DUP2 MSTORE PUSH1 0x4 DUP2 ADD DUP9 SWAP1 MSTORE PUSH1 0x18 DUP2 DUP7 ADD MSTORE PUSH32 0x4F6E6C7920706F737465722063616E2066696E616C697A650000000000000000 PUSH1 0x44 DUP3 ADD MSTORE PUSH1 0x64 SWAP1 REVERT JUMPDEST POP PUSH1 0x1 SLOAD DUP5 GT ISZERO PUSH2 0x881 JUMP JUMPDEST PUSH1 0x0 DUP1 REVERT JUMPDEST POP CALLVALUE PUSH2 0x41A JUMPI PUSH1 0x20 CALLDATASIZE PUSH1 0x3 NOT ADD SLT PUSH2 0x41A JUMPI PUSH1 0x40 SWAP1 PUSH1 0x4 CALLDATALOAD DUP2 PUSH2 0x180 DUP5 MLOAD PUSH2 0xC91 DUP2 PUSH2 0x1E53 JUMP JUMPDEST DUP3 DUP2 MSTORE DUP3 PUSH1 0x20 DUP3 ADD MSTORE DUP3 DUP7 DUP3 ADD MSTORE DUP3 PUSH1 0x60 DUP3 ADD MSTORE DUP3 PUSH1 0x80 DUP3 ADD MSTORE DUP3 PUSH1 0xA0 DUP3 ADD MSTORE DUP3 PUSH1 0xC0 DUP3 ADD MSTORE DUP3 PUSH1 0xE0 DUP3 ADD MSTORE DUP3 PUSH2 0x100 DUP3 ADD MSTORE DUP3 PUSH2 0x120 DUP3 ADD MSTORE DUP3 PUSH2 0x140 DUP3 ADD MSTORE DUP3 PUSH2 0x160 DUP3 ADD MSTORE ADD MSTORE DUP1 ISZERO ISZERO DUP1 PUSH2 0xE69 JUMPI JUMPDEST PUSH2 0xCED SWAP1 PUSH2 0x1F1F JUMP JUMPDEST DUP2 MSTORE PUSH1 0x3 PUSH1 0x20 MSTORE KECCAK256 PUSH1 0x40 MLOAD PUSH2 0xD01 DUP2 PUSH2 0x1E53 JUMP JUMPDEST DUP2 SLOAD DUP2 MSTORE PUSH1 0x1 DUP3 ADD SLOAD PUSH1 0x1 PUSH1 0x1 PUSH1 0xA0 SHL SUB AND PUSH1 0x20 DUP3 ADD MSTORE PUSH1 0x2 DUP3 ADD SLOAD PUSH1 0x40 DUP3 ADD MSTORE PUSH1 0x3 DUP3 ADD SLOAD PUSH1 0x60 DUP3 ADD MSTORE PUSH1 0x4 DUP3 ADD SLOAD PUSH1 0x80 DUP3 ADD MSTORE PUSH1 0x5 DUP3 ADD SLOAD PUSH1 0xA0 DUP3 ADD MSTORE PUSH1 0x6 DUP1 DUP4 ADD SLOAD PUSH1 0xFF AND SWAP3 SWAP1 DUP4 LT ISZERO PUSH2 0xE53 JUMPI PUSH1 0xC PUSH1 0xFF SWAP2 PUSH2 0x1A0 SWAP5 PUSH1 0xC0 DUP6 ADD MSTORE PUSH1 0x7 DUP2 ADD SLOAD PUSH1 0xE0 DUP6 ADD MSTORE PUSH1 0x1 DUP1 PUSH1 0xA0 SHL SUB PUSH1 0x8 DUP3 ADD SLOAD AND PUSH2 0x100 DUP6 ADD MSTORE PUSH1 0x9 DUP2 ADD SLOAD PUSH2 0x120 DUP6 ADD MSTORE DUP3 PUSH1 0xA DUP3 ADD SLOAD AND PUSH2 0x140 DUP6 ADD MSTORE PUSH1 0xB DUP2 ADD SLOAD PUSH2 0x160 DUP6 ADD MSTORE ADD SLOAD AND ISZERO ISZERO PUSH2 0x180 DUP3 ADD MSTORE PUSH2 0x180 PUSH1 0x40 MLOAD SWAP2 DUP1 MLOAD DUP4 MSTORE PUSH1 0x1 DUP1 PUSH1 0xA0 SHL SUB PUSH1 0x20 DUP3 ADD MLOAD AND PUSH1 0x20 DUP5 ADD MSTORE PUSH1 0x40 DUP2 ADD MLOAD PUSH1 0x40 DUP5 ADD MSTORE PUSH1 0x60 DUP2 ADD MLOAD PUSH1 0x60 DUP5 ADD MSTORE PUSH1 0x80 DUP2 ADD MLOAD PUSH1 0x80 DUP5 ADD MSTORE PUSH1 0xA0 DUP2 ADD MLOAD PUSH1 0xA0 DUP5 ADD MSTORE PUSH2 0xE02 PUSH1 0xC0 DUP3 ADD MLOAD PUSH1 0xC0 DUP6 ADD SWAP1 PUSH2 0x1DC5 JUMP JUMPDEST PUSH1 0xE0 DUP2 ADD MLOAD PUSH1 0xE0 DUP5 ADD MSTORE PUSH1 0x1 DUP1 PUSH1 0xA0 SHL SUB PUSH2 0x100 DUP3 ADD MLOAD AND PUSH2 0x100 DUP5 ADD MSTORE PUSH2 0x120 DUP2 ADD MLOAD PUSH2 0x120 DUP5 ADD MSTORE PUSH1 0xFF PUSH2 0x140 DUP3 ADD MLOAD AND PUSH2 0x140 DUP5 ADD MSTORE PUSH2 0x160 DUP2 ADD MLOAD PUSH2 0x160 DUP5 ADD MSTORE ADD MLOAD ISZERO ISZERO PUSH2 0x180 DUP3 ADD MSTORE RETURN JUMPDEST PUSH4 0x4E487B71 PUSH1 0xE0 SHL PUSH1 0x0 MSTORE PUSH1 0x21 PUSH1 0x4 MSTORE PUSH1 0x24 PUSH1 0x0 REVERT JUMPDEST POP PUSH1 0x1 SLOAD DUP2 GT ISZERO PUSH2 0xCE4 JUMP JUMPDEST POP PUSH1 0x40 CALLDATASIZE PUSH1 0x3 NOT ADD SLT PUSH2 0x41A JUMPI PUSH1 0x4 CALLDATALOAD PUSH1 0x24 CALLDATALOAD PUSH1 0x24 PUSH1 0x20 PUSH1 0x1 DUP1 PUSH1 0xA0 SHL SUB DUP6 SLOAD AND PUSH1 0x40 MLOAD SWAP3 DUP4 DUP1 SWAP3 PUSH4 0xC3C5A547 PUSH1 0xE0 SHL DUP3 MSTORE CALLER PUSH1 0x4 DUP4 ADD MSTORE GAS STATICCALL DUP1 ISZERO PUSH2 0x5A7 JUMPI PUSH2 0xEC5 SWAP2 DUP6 SWAP2 PUSH2 0x116C JUMPI POP PUSH2 0x1EAA JUMP JUMPDEST CALLVALUE ISZERO PUSH2 0x1127 JUMPI PUSH2 0x12C DUP2 LT ISZERO DUP1 PUSH2 0x111A JUMPI JUMPDEST ISZERO PUSH2 0x10E2 JUMPI DUP2 ISZERO PUSH2 0x109D JUMPI PUSH2 0xEED PUSH1 0x1 SLOAD PUSH2 0x1EED JUMP JUMPDEST DUP1 PUSH1 0x1 SSTORE PUSH2 0xEFB DUP3 TIMESTAMP PUSH2 0x1F12 JUMP JUMPDEST SWAP1 PUSH1 0x40 MLOAD SWAP2 PUSH2 0xF09 DUP4 PUSH2 0x1E53 JUMP JUMPDEST DUP2 DUP4 MSTORE CALLER PUSH1 0x20 DUP5 ADD MSTORE DUP5 PUSH1 0x40 DUP5 ADD MSTORE CALLVALUE PUSH1 0x60 DUP5 ADD MSTORE PUSH1 0x80 DUP4 ADD MSTORE TIMESTAMP PUSH1 0xA0 DUP4 ADD MSTORE DUP5 PUSH1 0xC0 DUP4 ADD MSTORE DUP5 PUSH1 0xE0 DUP4 ADD MSTORE DUP5 PUSH2 0x100 DUP4 ADD MSTORE DUP5 PUSH2 0x120 DUP4 ADD MSTORE DUP5 PUSH2 0x140 DUP4 ADD MSTORE DUP5 PUSH2 0x160 DUP4 ADD MSTORE DUP5 PUSH2 0x180 DUP4 ADD MSTORE DUP5 MSTORE PUSH1 0x3 PUSH1 0x20 MSTORE PUSH1 0x40 DUP5 KECCAK256 DUP2 MLOAD DUP2 SSTORE PUSH1 0x1 DUP2 ADD SWAP1 PUSH1 0x1 DUP1 PUSH1 0xA0 SHL SUB PUSH1 0x20 DUP5 ADD MLOAD AND SWAP2 PUSH1 0x1 PUSH1 0x1 PUSH1 0x60 SHL SUB PUSH1 0xA0 SHL SWAP3 DUP4 DUP3 SLOAD AND OR SWAP1 SSTORE PUSH1 0x40 DUP4 ADD MLOAD PUSH1 0x2 DUP3 ADD SSTORE PUSH1 0x60 DUP4 ADD MLOAD PUSH1 0x3 DUP3 ADD SSTORE PUSH1 0x80 DUP4 ADD MLOAD PUSH1 0x4 DUP3 ADD SSTORE PUSH1 0xA0 DUP4 ADD MLOAD PUSH1 0x5 DUP3 ADD SSTORE PUSH1 0x6 DUP2 ADD SWAP2 PUSH1 0xC0 DUP5 ADD MLOAD SWAP3 PUSH1 0x6 DUP5 LT ISZERO PUSH2 0x1089 JUMPI PUSH1 0xFF SWAP3 PUSH2 0x180 SWAP3 PUSH1 0xC SWAP3 DUP6 NOT SWAP7 DUP7 DUP9 DUP4 SLOAD AND SWAP2 AND OR SWAP1 SSTORE PUSH1 0xE0 DUP8 ADD MLOAD PUSH1 0x7 DUP4 ADD SSTORE PUSH1 0x8 DUP3 ADD SWAP1 PUSH1 0x1 DUP1 PUSH1 0xA0 SHL SUB PUSH2 0x100 DUP10 ADD MLOAD AND SWAP1 DUP3 SLOAD AND OR SWAP1 SSTORE PUSH2 0x120 DUP7 ADD MLOAD PUSH1 0x9 DUP3 ADD SSTORE PUSH1 0xA DUP2 ADD DUP5 PUSH2 0x140 DUP9 ADD MLOAD AND DUP7 DUP3 SLOAD AND OR SWAP1 SSTORE PUSH2 0x160 DUP7 ADD MLOAD PUSH1 0xB DUP3 ADD SSTORE ADD SWAP4 ADD MLOAD ISZERO ISZERO SWAP2 DUP4 SLOAD AND SWAP2 AND OR SWAP1 SSTORE PUSH2 0x1049 PUSH1 0x1 SLOAD SWAP2 TIMESTAMP PUSH2 0x1F12 JUMP JUMPDEST PUSH1 0x40 MLOAD SWAP3 DUP4 MSTORE CALLVALUE PUSH1 0x20 DUP5 ADD MSTORE PUSH1 0x40 DUP4 ADD MSTORE TIMESTAMP PUSH1 0x60 DUP4 ADD MSTORE PUSH32 0xF67A067D6343D772E6D49193D7EAD92E1E0586282AF6E88F8AFFE9A081CA8FCA PUSH1 0x80 CALLER SWAP4 LOG3 DUP1 RETURN JUMPDEST PUSH4 0x4E487B71 PUSH1 0xE0 SHL DUP9 MSTORE PUSH1 0x21 PUSH1 0x4 MSTORE PUSH1 0x24 DUP9 REVERT JUMPDEST PUSH1 0x40 MLOAD PUSH3 0x461BCD PUSH1 0xE5 SHL DUP2 MSTORE PUSH1 0x20 PUSH1 0x4 DUP3 ADD MSTORE PUSH1 0x19 PUSH1 0x24 DUP3 ADD MSTORE PUSH32 0x4465736372697074696F6E206861736820726571756972656400000000000000 PUSH1 0x44 DUP3 ADD MSTORE PUSH1 0x64 SWAP1 REVERT JUMPDEST PUSH1 0x40 MLOAD PUSH3 0x461BCD PUSH1 0xE5 SHL DUP2 MSTORE PUSH1 0x20 PUSH1 0x4 DUP3 ADD MSTORE PUSH1 0x10 PUSH1 0x24 DUP3 ADD MSTORE PUSH16 0x496E76616C696420646561646C696E65 PUSH1 0x80 SHL PUSH1 0x44 DUP3 ADD MSTORE PUSH1 0x64 SWAP1 REVERT JUMPDEST POP PUSH3 0x15180 DUP2 GT ISZERO PUSH2 0xED7 JUMP JUMPDEST PUSH1 0x40 MLOAD PUSH3 0x461BCD PUSH1 0xE5 SHL DUP2 MSTORE PUSH1 0x20 PUSH1 0x4 DUP3 ADD MSTORE PUSH1 0x19 PUSH1 0x24 DUP3 ADD MSTORE PUSH32 0x457363726F7720616D6F756E74206D757374206265203E203000000000000000 PUSH1 0x44 DUP3 ADD MSTORE PUSH1 0x64 SWAP1 REVERT JUMPDEST PUSH2 0x402 SWAP2 POP PUSH1 0x20 RETURNDATASIZE PUSH1 0x20 GT PUSH2 0x408 JUMPI PUSH2 0x3FA DUP2 DUP4 PUSH2 0x1E70 JUMP JUMPDEST POP CALLVALUE PUSH2 0x41A JUMPI DUP1 PUSH1 0x3 NOT CALLDATASIZE ADD SLT PUSH2 0x41A JUMPI PUSH1 0x20 PUSH1 0x40 MLOAD PUSH2 0x12C DUP2 MSTORE RETURN JUMPDEST POP CALLVALUE PUSH2 0x41A JUMPI PUSH2 0x11B1 CALLDATASIZE PUSH2 0x1D74 JUMP JUMPDEST SWAP2 SWAP1 DUP2 MSTORE PUSH1 0x5 PUSH1 0x20 MSTORE PUSH1 0x40 DUP2 KECCAK256 SWAP1 DUP2 SLOAD DUP4 LT ISZERO PUSH2 0x41A JUMPI PUSH1 0x20 PUSH2 0x11D4 DUP5 DUP5 PUSH2 0x1DDF JUMP JUMPDEST SWAP1 SLOAD PUSH1 0x40 MLOAD SWAP2 PUSH1 0x3 SHL SHR DUP2 MSTORE RETURN JUMPDEST POP CALLVALUE PUSH2 0x41A JUMPI DUP1 PUSH1 0x3 NOT CALLDATASIZE ADD SLT PUSH2 0x41A JUMPI PUSH1 0x20 PUSH1 0x40 MLOAD PUSH3 0x15180 DUP2 MSTORE RETURN JUMPDEST POP CALLVALUE PUSH2 0x41A JUMPI DUP1 PUSH1 0x3 NOT CALLDATASIZE ADD SLT PUSH2 0x41A JUMPI SLOAD PUSH1 0x40 MLOAD PUSH1 0x1 PUSH1 0x1 PUSH1 0xA0 SHL SUB SWAP1 SWAP2 AND DUP2 MSTORE PUSH1 0x20 SWAP1 RETURN JUMPDEST POP CALLVALUE PUSH2 0x41A JUMPI DUP1 PUSH1 0x3 NOT CALLDATASIZE ADD SLT PUSH2 0x41A JUMPI PUSH1 0x20 PUSH1 0x1 SLOAD PUSH1 0x40 MLOAD SWAP1 DUP2 MSTORE RETURN JUMPDEST POP CALLVALUE PUSH2 0x41A JUMPI PUSH1 0x20 DUP1 PUSH1 0x3 NOT CALLDATASIZE ADD SLT PUSH2 0x666 JUMPI PUSH1 0x4 CALLDATALOAD DUP1 ISZERO ISZERO DUP1 PUSH2 0x12CC JUMPI JUMPDEST PUSH2 0x126D SWAP1 PUSH2 0x1F1F JUMP JUMPDEST DUP3 MSTORE PUSH1 0x5 DUP2 MSTORE PUSH1 0x40 DUP3 KECCAK256 SWAP2 PUSH1 0x40 MLOAD DUP1 SWAP3 DUP1 DUP6 SLOAD SWAP3 DUP4 DUP2 MSTORE ADD SWAP5 DUP4 MSTORE DUP1 DUP4 KECCAK256 SWAP3 SWAP1 JUMPDEST DUP3 DUP3 LT PUSH2 0x12B5 JUMPI PUSH2 0x12B1 DUP6 PUSH2 0x12A5 DUP2 DUP10 SUB DUP3 PUSH2 0x1E70 JUMP JUMPDEST PUSH1 0x40 MLOAD SWAP2 DUP3 SWAP2 DUP3 PUSH2 0x1D8A JUMP JUMPDEST SUB SWAP1 RETURN JUMPDEST DUP4 SLOAD DUP7 MSTORE SWAP5 DUP6 ADD SWAP5 PUSH1 0x1 SWAP4 DUP5 ADD SWAP4 SWAP1 SWAP2 ADD SWAP1 PUSH2 0x128E JUMP JUMPDEST POP PUSH1 0x1 SLOAD DUP2 GT ISZERO PUSH2 0x1264 JUMP JUMPDEST POP CALLVALUE PUSH2 0x41A JUMPI PUSH1 0x20 CALLDATASIZE PUSH1 0x3 NOT ADD SLT PUSH2 0x41A JUMPI PUSH1 0x40 PUSH1 0xE0 SWAP2 PUSH1 0x4 CALLDATALOAD DUP2 MSTORE PUSH1 0x4 PUSH1 0x20 MSTORE KECCAK256 PUSH2 0x1355 DUP2 SLOAD SWAP2 PUSH1 0x1 DUP2 ADD SLOAD SWAP1 PUSH1 0x1 DUP1 PUSH1 0xA0 SHL SUB PUSH1 0x2 DUP3 ADD SLOAD AND PUSH1 0x3 DUP3 ADD SLOAD PUSH1 0x4 DUP4 ADD SLOAD SWAP2 PUSH1 0xFF PUSH1 0x6 PUSH1 0x5 DUP7 ADD SLOAD SWAP6 ADD SLOAD AND SWAP5 PUSH1 0x40 MLOAD SWAP8 DUP9 MSTORE PUSH1 0x20 DUP9 ADD MSTORE PUSH1 0x40 DUP8 ADD MSTORE PUSH1 0x60 DUP7 ADD MSTORE PUSH1 0x80 DUP6 ADD MSTORE PUSH1 0xA0 DUP5 ADD MSTORE PUSH1 0xC0 DUP4 ADD SWAP1 PUSH2 0x1DD2 JUMP JUMPDEST RETURN JUMPDEST POP CALLVALUE PUSH2 0x41A JUMPI PUSH1 0x20 CALLDATASIZE PUSH1 0x3 NOT ADD SLT PUSH2 0x41A JUMPI PUSH1 0x40 PUSH1 0xE0 SWAP2 PUSH1 0x4 CALLDATALOAD DUP2 PUSH1 0xC0 DUP5 MLOAD PUSH2 0x137F DUP2 PUSH2 0x1E37 JUMP JUMPDEST DUP3 DUP2 MSTORE DUP3 PUSH1 0x20 DUP3 ADD MSTORE DUP3 DUP7 DUP3 ADD MSTORE DUP3 PUSH1 0x60 DUP3 ADD MSTORE DUP3 PUSH1 0x80 DUP3 ADD MSTORE DUP3 PUSH1 0xA0 DUP3 ADD MSTORE ADD MSTORE DUP1 ISZERO ISZERO DUP1 PUSH2 0x1460 JUMPI JUMPDEST PUSH2 0x13B3 SWAP1 PUSH2 0x1FAE JUMP JUMPDEST DUP2 MSTORE PUSH1 0x4 PUSH1 0x20 MSTORE KECCAK256 PUSH2 0x1355 PUSH1 0x40 MLOAD SWAP2 PUSH2 0x13CB DUP4 PUSH2 0x1E37 JUMP JUMPDEST DUP1 SLOAD DUP4 MSTORE PUSH1 0x1 DUP2 ADD SLOAD SWAP1 PUSH1 0x20 DUP5 ADD SWAP2 DUP3 MSTORE PUSH1 0x1 DUP1 PUSH1 0xA0 SHL SUB DUP1 PUSH1 0x2 DUP4 ADD SLOAD AND SWAP1 PUSH1 0x40 DUP7 ADD SWAP2 DUP3 MSTORE PUSH1 0x3 DUP4 ADD SLOAD SWAP1 PUSH1 0x60 DUP8 ADD SWAP2 DUP3 MSTORE PUSH1 0x4 DUP5 ADD SLOAD SWAP3 PUSH1 0x80 DUP9 ADD SWAP4 DUP5 MSTORE PUSH1 0xFF PUSH1 0x6 PUSH1 0x5 DUP8 ADD SLOAD SWAP7 PUSH1 0xA0 DUP12 ADD SWAP8 DUP9 MSTORE ADD SLOAD AND SWAP6 PUSH2 0x142F PUSH1 0xC0 DUP11 ADD SWAP8 DUP9 PUSH2 0x1FA2 JUMP JUMPDEST PUSH1 0x40 MLOAD SWAP9 MLOAD DUP10 MSTORE MLOAD PUSH1 0x20 DUP10 ADD MSTORE MLOAD AND PUSH1 0x40 DUP8 ADD MSTORE MLOAD PUSH1 0x60 DUP7 ADD MSTORE MLOAD PUSH1 0x80 DUP6 ADD MSTORE MLOAD PUSH1 0xA0 DUP5 ADD MSTORE MLOAD PUSH1 0xC0 DUP4 ADD SWAP1 PUSH2 0x1DD2 JUMP JUMPDEST POP PUSH1 0x2 SLOAD DUP2 GT ISZERO PUSH2 0x13AA JUMP JUMPDEST POP CALLVALUE PUSH2 0x41A JUMPI PUSH1 0x20 DUP1 PUSH1 0x3 NOT CALLDATASIZE ADD SLT PUSH2 0x666 JUMPI PUSH1 0x4 CALLDATALOAD SWAP1 DUP2 ISZERO ISZERO DUP1 PUSH2 0x15FF JUMPI JUMPDEST PUSH2 0x1495 SWAP1 PUSH2 0x1F1F JUMP JUMPDEST DUP2 DUP4 MSTORE PUSH1 0x3 DUP2 MSTORE PUSH1 0x40 DUP4 KECCAK256 PUSH1 0x1 DUP2 ADD SLOAD PUSH1 0x1 PUSH1 0x1 PUSH1 0xA0 SHL SUB AND SWAP1 CALLER DUP3 SWAP1 SUB PUSH2 0x15C1 JUMPI PUSH1 0x6 DUP2 ADD DUP1 SLOAD PUSH1 0xFF DUP2 AND PUSH1 0x6 DUP2 LT ISZERO PUSH2 0x1089 JUMPI PUSH2 0x157C JUMPI DUP6 DUP8 MSTORE PUSH1 0x5 DUP6 MSTORE PUSH1 0x40 DUP8 KECCAK256 SLOAD PUSH2 0x1537 JUMPI PUSH1 0xFF NOT AND PUSH1 0x5 OR SWAP1 SSTORE PUSH1 0x3 ADD SLOAD DUP5 SWAP2 DUP3 SWAP2 DUP3 SWAP2 DUP3 SWAP2 SWAP1 DUP3 DUP3 ISZERO PUSH2 0x152E JUMPI JUMPDEST CALL ISZERO PUSH2 0x567 JUMPI PUSH32 0x7E3805011ACB8D49832D7EF085841E251E66267C06E54E0AC20CB09F3C696D3B SWAP1 PUSH1 0x40 MLOAD TIMESTAMP DUP2 MSTORE LOG2 DUP1 RETURN JUMPDEST POP PUSH2 0x8FC PUSH2 0x14FC JUMP JUMPDEST PUSH1 0x40 MLOAD PUSH3 0x461BCD PUSH1 0xE5 SHL DUP2 MSTORE PUSH1 0x4 DUP2 ADD DUP7 SWAP1 MSTORE PUSH1 0x1B PUSH1 0x24 DUP3 ADD MSTORE PUSH32 0x43616E6E6F742063616E63656C206A6F62207769746820626964730000000000 PUSH1 0x44 DUP3 ADD MSTORE PUSH1 0x64 SWAP1 REVERT JUMPDEST PUSH1 0x40 MLOAD PUSH3 0x461BCD PUSH1 0xE5 SHL DUP2 MSTORE PUSH1 0x4 DUP2 ADD DUP7 SWAP1 MSTORE PUSH1 0x19 PUSH1 0x24 DUP3 ADD MSTORE PUSH32 0x43616E206F6E6C792063616E63656C206F70656E206A6F627300000000000000 PUSH1 0x44 DUP3 ADD MSTORE PUSH1 0x64 SWAP1 REVERT JUMPDEST PUSH1 0x40 MLOAD PUSH3 0x461BCD PUSH1 0xE5 SHL DUP2 MSTORE PUSH1 0x4 DUP2 ADD DUP5 SWAP1 MSTORE PUSH1 0x16 PUSH1 0x24 DUP3 ADD MSTORE PUSH22 0x13DB9B1E481C1BDCDD195C8818D85B8818D85B98D95B PUSH1 0x52 SHL PUSH1 0x44 DUP3 ADD MSTORE PUSH1 0x64 SWAP1 REVERT JUMPDEST POP PUSH1 0x1 SLOAD DUP3 GT ISZERO PUSH2 0x148C JUMP JUMPDEST POP CALLVALUE PUSH2 0x41A JUMPI PUSH1 0x20 CALLDATASIZE PUSH1 0x3 NOT ADD SLT PUSH2 0x41A JUMPI PUSH1 0x40 PUSH2 0x1A0 SWAP2 PUSH1 0x4 CALLDATALOAD DUP2 MSTORE PUSH1 0x3 PUSH1 0x20 MSTORE KECCAK256 DUP1 SLOAD SWAP1 PUSH1 0x1 DUP1 PUSH1 0xA0 SHL SUB SWAP1 DUP2 PUSH1 0x1 DUP3 ADD SLOAD AND SWAP2 PUSH1 0x2 DUP3 ADD SLOAD SWAP1 PUSH1 0x3 DUP4 ADD SLOAD SWAP1 PUSH1 0x4 DUP5 ADD SLOAD SWAP1 PUSH2 0x16B8 PUSH1 0x5 DUP7 ADD SLOAD PUSH1 0xFF PUSH1 0x6 DUP9 ADD SLOAD AND SWAP1 PUSH1 0x7 DUP9 ADD SLOAD SWAP4 PUSH1 0x8 DUP10 ADD SLOAD AND SWAP5 PUSH1 0x9 DUP10 ADD SLOAD SWAP7 PUSH1 0xFF PUSH1 0xA DUP12 ADD SLOAD AND SWAP9 PUSH1 0xFF PUSH1 0xC PUSH1 0xB DUP14 ADD SLOAD SWAP13 ADD SLOAD AND SWAP12 PUSH1 0x20 PUSH1 0x40 MLOAD SWAP15 DUP16 SWAP1 DUP2 MSTORE ADD MSTORE PUSH1 0x40 DUP14 ADD MSTORE PUSH1 0x60 DUP13 ADD MSTORE PUSH1 0x80 DUP12 ADD MSTORE PUSH1 0xA0 DUP11 ADD MSTORE PUSH1 0xC0 DUP10 ADD SWAP1 PUSH2 0x1DC5 JUMP JUMPDEST PUSH1 0xE0 DUP8 ADD MSTORE PUSH2 0x100 DUP7 ADD MSTORE PUSH2 0x120 DUP6 ADD MSTORE PUSH2 0x140 DUP5 ADD MSTORE PUSH2 0x160 DUP4 ADD MSTORE ISZERO ISZERO PUSH2 0x180 DUP3 ADD MSTORE RETURN JUMPDEST POP CALLVALUE PUSH2 0x41A JUMPI DUP1 PUSH1 0x3 NOT CALLDATASIZE ADD SLT PUSH2 0x41A JUMPI DUP1 PUSH1 0x1 SWAP1 DUP2 SLOAD SWAP2 JUMPDEST DUP3 DUP2 GT ISZERO PUSH2 0x17A9 JUMPI POP PUSH2 0x170A DUP4 PUSH2 0x2046 JUMP JUMPDEST SWAP3 PUSH2 0x1718 PUSH1 0x40 MLOAD SWAP5 DUP6 PUSH2 0x1E70 JUMP JUMPDEST DUP1 DUP5 MSTORE PUSH2 0x1727 PUSH1 0x1F NOT SWAP2 PUSH2 0x2046 JUMP JUMPDEST ADD SWAP1 PUSH1 0x20 SWAP2 CALLDATASIZE DUP4 DUP7 ADD CALLDATACOPY DUP1 SWAP2 PUSH1 0x1 JUMPDEST DUP5 DUP2 GT ISZERO PUSH2 0x174C JUMPI PUSH1 0x40 MLOAD DUP1 PUSH2 0x12B1 DUP9 DUP3 PUSH2 0x1D8A JUMP JUMPDEST DUP1 DUP4 MSTORE PUSH1 0x3 DUP3 MSTORE PUSH1 0x6 PUSH1 0xFF DUP2 PUSH1 0x40 DUP7 KECCAK256 ADD SLOAD AND SWAP1 DUP2 LT ISZERO PUSH2 0x1795 JUMPI SWAP1 PUSH2 0x1776 SWAP2 ISZERO PUSH2 0x177B JUMPI PUSH2 0x1EED JUMP JUMPDEST PUSH2 0x1736 JUMP JUMPDEST DUP1 PUSH2 0x178F PUSH2 0x1788 DUP8 PUSH2 0x1EED JUMP JUMPDEST SWAP7 DUP10 PUSH2 0x1FEF JUMP JUMPDEST MSTORE PUSH2 0x1EED JUMP JUMPDEST PUSH4 0x4E487B71 PUSH1 0xE0 SHL DUP5 MSTORE PUSH1 0x21 PUSH1 0x4 MSTORE PUSH1 0x24 DUP5 REVERT JUMPDEST DUP1 DUP3 MSTORE PUSH1 0x3 PUSH1 0x20 MSTORE PUSH1 0x6 PUSH1 0xFF DUP2 PUSH1 0x40 DUP6 KECCAK256 ADD SLOAD AND SWAP1 DUP2 LT ISZERO PUSH2 0x17EE JUMPI ISZERO PUSH2 0x17D9 JUMPI JUMPDEST PUSH2 0x17D4 SWAP1 PUSH2 0x1EED JUMP JUMPDEST PUSH2 0x16F8 JUMP JUMPDEST SWAP3 PUSH2 0x17E6 PUSH2 0x17D4 SWAP2 PUSH2 0x1EED JUMP JUMPDEST SWAP4 SWAP1 POP PUSH2 0x17CB JUMP JUMPDEST PUSH4 0x4E487B71 PUSH1 0xE0 SHL DUP4 MSTORE PUSH1 0x21 PUSH1 0x4 MSTORE PUSH1 0x24 DUP4 REVERT JUMPDEST POP CALLVALUE PUSH2 0x41A JUMPI PUSH1 0x40 CALLDATASIZE PUSH1 0x3 NOT ADD SLT PUSH2 0x41A JUMPI PUSH1 0x4 CALLDATALOAD PUSH1 0x24 SWAP1 DUP2 CALLDATALOAD SWAP2 PUSH1 0xFF DUP4 AND DUP1 SWAP4 SUB PUSH2 0xA6C JUMPI DUP2 ISZERO ISZERO DUP1 PUSH2 0x1A2E JUMPI JUMPDEST PUSH2 0x183A SWAP1 PUSH2 0x1F1F JUMP JUMPDEST DUP2 DUP5 MSTORE PUSH1 0x3 PUSH1 0x20 MSTORE PUSH1 0x40 DUP5 KECCAK256 PUSH1 0x8 DUP2 ADD SLOAD PUSH1 0x1 PUSH1 0x1 PUSH1 0xA0 SHL SUB SWAP3 SWAP2 SWAP1 DUP4 AND CALLER SUB PUSH2 0x19DD JUMPI PUSH1 0xFF PUSH1 0x6 DUP3 ADD SLOAD AND PUSH1 0x6 DUP2 LT ISZERO PUSH2 0x19CA JUMPI PUSH1 0x3 DUP2 EQ SWAP1 DUP2 ISZERO PUSH2 0x19BF JUMPI JUMPDEST POP ISZERO PUSH2 0x1983 JUMPI PUSH1 0xC DUP2 ADD DUP1 SLOAD PUSH1 0xFF DUP2 AND PUSH2 0x1935 JUMPI PUSH1 0x1 SWAP1 PUSH2 0x189F PUSH1 0x64 DUP10 GT ISZERO PUSH2 0x2003 JUMP JUMPDEST PUSH1 0xFF NOT AND OR SWAP1 SSTORE DUP6 PUSH1 0x1 DUP5 DUP3 SLOAD AND SWAP3 ADD SWAP3 DUP5 DUP5 SLOAD AND SWAP3 DUP1 EXTCODESIZE ISZERO PUSH2 0x572 JUMPI DUP8 SWAP4 DUP4 PUSH1 0x44 SWAP3 PUSH1 0x40 MLOAD SWAP7 DUP8 SWAP6 DUP7 SWAP5 PUSH4 0xBC6E44B7 PUSH1 0xE0 SHL DUP7 MSTORE PUSH1 0x4 DUP7 ADD MSTORE DUP5 ADD MSTORE GAS CALL DUP1 ISZERO PUSH2 0xBB6 JUMPI PUSH2 0x1922 JUMPI JUMPDEST POP SLOAD AND SWAP1 PUSH1 0x40 MLOAD SWAP3 DUP4 MSTORE TIMESTAMP PUSH1 0x20 DUP5 ADD MSTORE PUSH32 0x3B808369A5237D9D11D2775DB815C2C160F8875BE08D2A36CC90F191281A65E4 PUSH1 0x40 CALLER SWAP5 LOG4 DUP1 RETURN JUMPDEST PUSH2 0x192E SWAP1 SWAP6 SWAP2 SWAP6 PUSH2 0x1E0D JUMP JUMPDEST SWAP4 CODESIZE PUSH2 0x18E9 JUMP JUMPDEST PUSH1 0x40 MLOAD PUSH3 0x461BCD PUSH1 0xE5 SHL DUP2 MSTORE PUSH1 0x20 PUSH1 0x4 DUP3 ADD MSTORE PUSH1 0x21 DUP2 DUP7 ADD MSTORE PUSH32 0x436C69656E7420616C726561647920726174656420666F722074686973206A6F PUSH1 0x44 DUP3 ADD MSTORE PUSH1 0x31 PUSH1 0xF9 SHL PUSH1 0x64 DUP3 ADD MSTORE PUSH1 0x84 SWAP1 REVERT JUMPDEST PUSH1 0x40 MLOAD PUSH3 0x461BCD PUSH1 0xE5 SHL DUP2 MSTORE PUSH1 0x20 PUSH1 0x4 DUP3 ADD MSTORE PUSH1 0x15 DUP2 DUP5 ADD MSTORE PUSH21 0x129BD8881B9BDD081E595D08199A5B985B1A5E9959 PUSH1 0x5A SHL PUSH1 0x44 DUP3 ADD MSTORE PUSH1 0x64 SWAP1 REVERT JUMPDEST PUSH1 0x4 SWAP2 POP EQ CODESIZE PUSH2 0x187B JUMP JUMPDEST PUSH4 0x4E487B71 PUSH1 0xE0 SHL DUP8 MSTORE PUSH1 0x21 PUSH1 0x4 MSTORE DUP3 DUP8 REVERT JUMPDEST PUSH1 0x40 MLOAD PUSH3 0x461BCD PUSH1 0xE5 SHL DUP2 MSTORE PUSH1 0x20 PUSH1 0x4 DUP3 ADD MSTORE DUP1 DUP4 ADD DUP4 SWAP1 MSTORE PUSH32 0x4F6E6C792061737369676E656420776F726B65722063616E207261746520636C PUSH1 0x44 DUP3 ADD MSTORE PUSH4 0x1A595B9D PUSH1 0xE2 SHL PUSH1 0x64 DUP3 ADD MSTORE PUSH1 0x84 SWAP1 REVERT JUMPDEST POP PUSH1 0x1 SLOAD DUP3 GT ISZERO PUSH2 0x1831 JUMP JUMPDEST POP CALLVALUE PUSH2 0x41A JUMPI DUP1 PUSH1 0x3 NOT CALLDATASIZE ADD SLT PUSH2 0x41A JUMPI PUSH1 0x20 PUSH1 0x2 SLOAD PUSH1 0x40 MLOAD SWAP1 DUP2 MSTORE RETURN JUMPDEST POP CALLVALUE PUSH2 0x41A JUMPI PUSH2 0x1A67 CALLDATASIZE PUSH2 0x1D74 JUMP JUMPDEST SWAP1 DUP1 ISZERO ISZERO DUP1 PUSH2 0x1D68 JUMPI JUMPDEST PUSH2 0x1A7A SWAP1 PUSH2 0x1F1F JUMP JUMPDEST DUP2 ISZERO ISZERO DUP1 PUSH2 0x1D5C JUMPI JUMPDEST PUSH2 0x1A8C SWAP1 PUSH2 0x1FAE JUMP JUMPDEST DUP1 DUP4 MSTORE PUSH1 0x3 PUSH1 0x20 MSTORE PUSH1 0x40 DUP4 KECCAK256 SWAP2 DUP1 DUP5 MSTORE PUSH1 0x4 PUSH1 0x20 MSTORE PUSH1 0x40 DUP5 KECCAK256 SWAP3 PUSH1 0x1 DUP1 PUSH1 0xA0 SHL SUB PUSH1 0x1 DUP3 ADD SLOAD AND CALLER SUB PUSH2 0x1D17 JUMPI PUSH1 0x6 DUP2 ADD SWAP1 DUP2 SLOAD SWAP2 PUSH1 0xFF DUP4 AND PUSH1 0x6 DUP2 LT ISZERO PUSH2 0x1089 JUMPI PUSH2 0x1CE3 JUMPI DUP5 PUSH1 0x1 DUP8 ADD SLOAD SUB PUSH2 0x1CA7 JUMPI PUSH1 0x6 DUP7 ADD SWAP3 PUSH1 0xFF DUP5 SLOAD AND PUSH1 0x3 DUP2 LT ISZERO PUSH2 0x1C93 JUMPI PUSH2 0x1C5C JUMPI PUSH1 0x1 SWAP1 PUSH2 0x1B06 PUSH1 0x4 DUP6 ADD SLOAD TIMESTAMP LT PUSH2 0x1F60 JUMP JUMPDEST PUSH1 0xFF NOT AND OR SWAP1 SSTORE DUP3 PUSH1 0x7 DUP3 ADD SSTORE PUSH1 0x8 PUSH1 0x1 DUP1 PUSH1 0xA0 SHL SUB PUSH1 0x2 DUP8 ADD SLOAD AND SWAP2 ADD SWAP1 PUSH1 0x1 PUSH1 0x1 PUSH1 0x60 SHL SUB PUSH1 0xA0 SHL DUP3 SLOAD AND OR SWAP1 SSTORE PUSH1 0x1 PUSH1 0xFF NOT DUP3 SLOAD AND OR SWAP1 SSTORE DUP2 DUP5 MSTORE PUSH1 0x5 PUSH1 0x20 MSTORE PUSH1 0x40 DUP5 KECCAK256 SWAP2 PUSH1 0x40 MLOAD DUP1 DUP5 PUSH1 0x20 DUP3 SWAP7 SLOAD SWAP4 DUP5 DUP2 MSTORE ADD SWAP1 DUP9 MSTORE PUSH1 0x20 DUP9 KECCAK256 SWAP3 DUP9 JUMPDEST DUP2 DUP2 LT PUSH2 0x1C43 JUMPI POP POP PUSH2 0x1B7C SWAP3 POP SUB DUP5 PUSH2 0x1E70 JUMP JUMPDEST DUP5 JUMPDEST DUP4 MLOAD DUP2 LT ISZERO PUSH2 0x1C04 JUMPI DUP3 PUSH2 0x1B92 DUP3 DUP7 PUSH2 0x1FEF JUMP JUMPDEST MLOAD EQ ISZERO DUP1 PUSH2 0x1BD7 JUMPI JUMPDEST SWAP1 PUSH2 0x1BA9 SWAP2 PUSH2 0x1BAE JUMPI PUSH2 0x1EED JUMP JUMPDEST PUSH2 0x1B7E JUMP JUMPDEST PUSH2 0x1BB8 DUP2 DUP7 PUSH2 0x1FEF JUMP JUMPDEST MLOAD DUP8 MSTORE PUSH1 0x4 PUSH1 0x20 MSTORE PUSH1 0x40 DUP8 KECCAK256 PUSH1 0x6 ADD DUP1 SLOAD PUSH1 0xFF NOT AND PUSH1 0x2 OR SWAP1 SSTORE PUSH2 0x1EED JUMP JUMPDEST POP PUSH2 0x1BE2 DUP2 DUP6 PUSH2 0x1FEF JUMP JUMPDEST MLOAD DUP7 MSTORE PUSH1 0x4 PUSH1 0x20 MSTORE PUSH1 0xFF PUSH1 0x6 PUSH1 0x40 DUP9 KECCAK256 ADD SLOAD AND PUSH1 0x3 DUP2 LT ISZERO PUSH2 0x60B JUMPI ISZERO PUSH2 0x1B9B JUMP JUMPDEST POP DUP5 SWAP2 DUP5 PUSH1 0x2 PUSH1 0x1 DUP1 PUSH1 0xA0 SHL SUB SWAP2 ADD SLOAD AND SWAP2 PUSH32 0xFC3D557E46010CDF2A5A80A495F308239F5BE888EB5BB151BE68D5C369728B24 PUSH1 0x20 PUSH1 0x40 MLOAD TIMESTAMP DUP2 MSTORE LOG4 DUP1 RETURN JUMPDEST DUP5 SLOAD DUP4 MSTORE PUSH1 0x1 SWAP5 DUP6 ADD SWAP5 DUP9 SWAP5 POP PUSH1 0x20 SWAP1 SWAP4 ADD SWAP3 ADD PUSH2 0x1B67 JUMP JUMPDEST PUSH1 0x40 MLOAD PUSH3 0x461BCD PUSH1 0xE5 SHL DUP2 MSTORE PUSH1 0x20 PUSH1 0x4 DUP3 ADD MSTORE PUSH1 0xF PUSH1 0x24 DUP3 ADD MSTORE PUSH15 0x426964206E6F742070656E64696E67 PUSH1 0x88 SHL PUSH1 0x44 DUP3 ADD MSTORE PUSH1 0x64 SWAP1 REVERT JUMPDEST PUSH4 0x4E487B71 PUSH1 0xE0 SHL DUP10 MSTORE PUSH1 0x21 PUSH1 0x4 MSTORE PUSH1 0x24 DUP10 REVERT JUMPDEST PUSH1 0x40 MLOAD PUSH3 0x461BCD PUSH1 0xE5 SHL DUP2 MSTORE PUSH1 0x20 PUSH1 0x4 DUP3 ADD MSTORE PUSH1 0x14 PUSH1 0x24 DUP3 ADD MSTORE PUSH20 0x2134B2103737BA103337B9103A3434B9903537B1 PUSH1 0x61 SHL PUSH1 0x44 DUP3 ADD MSTORE PUSH1 0x64 SWAP1 REVERT JUMPDEST PUSH1 0x40 MLOAD PUSH3 0x461BCD PUSH1 0xE5 SHL DUP2 MSTORE PUSH1 0x20 PUSH1 0x4 DUP3 ADD MSTORE PUSH1 0xC PUSH1 0x24 DUP3 ADD MSTORE PUSH12 0x2537B1103737BA1037B832B7 PUSH1 0xA1 SHL PUSH1 0x44 DUP3 ADD MSTORE PUSH1 0x64 SWAP1 REVERT JUMPDEST PUSH1 0x40 MLOAD PUSH3 0x461BCD PUSH1 0xE5 SHL DUP2 MSTORE PUSH1 0x20 PUSH1 0x4 DUP3 ADD MSTORE PUSH1 0x1B PUSH1 0x24 DUP3 ADD MSTORE PUSH32 0x4F6E6C7920706F737465722063616E2061636365707420626964730000000000 PUSH1 0x44 DUP3 ADD MSTORE PUSH1 0x64 SWAP1 REVERT JUMPDEST POP PUSH1 0x2 SLOAD DUP3 GT ISZERO PUSH2 0x1A83 JUMP JUMPDEST POP PUSH1 0x1 SLOAD DUP2 GT ISZERO PUSH2 0x1A71 JUMP JUMPDEST PUSH1 0x40 SWAP1 PUSH1 0x3 NOT ADD SLT PUSH2 0xC65 JUMPI PUSH1 0x4 CALLDATALOAD SWAP1 PUSH1 0x24 CALLDATALOAD SWAP1 JUMP JUMPDEST PUSH1 0x20 SWAP1 DUP2 PUSH1 0x40 DUP2 DUP4 ADD SWAP3 DUP3 DUP2 MSTORE DUP6 MLOAD DUP1 SWAP5 MSTORE ADD SWAP4 ADD SWAP2 PUSH1 0x0 JUMPDEST DUP3 DUP2 LT PUSH2 0x1DB1 JUMPI POP POP POP POP SWAP1 JUMP JUMPDEST DUP4 MLOAD DUP6 MSTORE SWAP4 DUP2 ADD SWAP4 SWAP3 DUP2 ADD SWAP3 PUSH1 0x1 ADD PUSH2 0x1DA3 JUMP JUMPDEST SWAP1 PUSH1 0x6 DUP3 LT ISZERO PUSH2 0xE53 JUMPI MSTORE JUMP JUMPDEST SWAP1 PUSH1 0x3 DUP3 LT ISZERO PUSH2 0xE53 JUMPI MSTORE JUMP JUMPDEST DUP1 SLOAD DUP3 LT ISZERO PUSH2 0x1DF7 JUMPI PUSH1 0x0 MSTORE PUSH1 0x20 PUSH1 0x0 KECCAK256 ADD SWAP1 PUSH1 0x0 SWAP1 JUMP JUMPDEST PUSH4 0x4E487B71 PUSH1 0xE0 SHL PUSH1 0x0 MSTORE PUSH1 0x32 PUSH1 0x4 MSTORE PUSH1 0x24 PUSH1 0x0 REVERT JUMPDEST PUSH8 0xFFFFFFFFFFFFFFFF DUP2 GT PUSH2 0x1E21 JUMPI PUSH1 0x40 MSTORE JUMP JUMPDEST PUSH4 0x4E487B71 PUSH1 0xE0 SHL PUSH1 0x0 MSTORE PUSH1 0x41 PUSH1 0x4 MSTORE PUSH1 0x24 PUSH1 0x0 REVERT JUMPDEST PUSH1 0xE0 DUP2 ADD SWAP1 DUP2 LT PUSH8 0xFFFFFFFFFFFFFFFF DUP3 GT OR PUSH2 0x1E21 JUMPI PUSH1 0x40 MSTORE JUMP JUMPDEST PUSH2 0x1A0 DUP2 ADD SWAP1 DUP2 LT PUSH8 0xFFFFFFFFFFFFFFFF DUP3 GT OR PUSH2 0x1E21 JUMPI PUSH1 0x40 MSTORE JUMP JUMPDEST SWAP1 PUSH1 0x1F DUP1 NOT SWAP2 ADD AND DUP2 ADD SWAP1 DUP2 LT PUSH8 0xFFFFFFFFFFFFFFFF DUP3 GT OR PUSH2 0x1E21 JUMPI PUSH1 0x40 MSTORE JUMP JUMPDEST SWAP1 DUP2 PUSH1 0x20 SWAP2 SUB SLT PUSH2 0xC65 JUMPI MLOAD DUP1 ISZERO ISZERO DUP2 SUB PUSH2 0xC65 JUMPI SWAP1 JUMP JUMPDEST ISZERO PUSH2 0x1EB1 JUMPI JUMP JUMPDEST PUSH1 0x40 MLOAD PUSH3 0x461BCD PUSH1 0xE5 SHL DUP2 MSTORE PUSH1 0x20 PUSH1 0x4 DUP3 ADD MSTORE PUSH1 0x14 PUSH1 0x24 DUP3 ADD MSTORE PUSH20 0x1059D95B9D081B9BDD081C9959DA5CDD195C9959 PUSH1 0x62 SHL PUSH1 0x44 DUP3 ADD MSTORE PUSH1 0x64 SWAP1 REVERT JUMPDEST PUSH1 0x0 NOT DUP2 EQ PUSH2 0x1EFC JUMPI PUSH1 0x1 ADD SWAP1 JUMP JUMPDEST PUSH4 0x4E487B71 PUSH1 0xE0 SHL PUSH1 0x0 MSTORE PUSH1 0x11 PUSH1 0x4 MSTORE PUSH1 0x24 PUSH1 0x0 REVERT JUMPDEST SWAP2 SWAP1 DUP3 ADD DUP1 SWAP3 GT PUSH2 0x1EFC JUMPI JUMP JUMPDEST ISZERO PUSH2 0x1F26 JUMPI JUMP JUMPDEST PUSH1 0x40 MLOAD PUSH3 0x461BCD PUSH1 0xE5 SHL DUP2 MSTORE PUSH1 0x20 PUSH1 0x4 DUP3 ADD MSTORE PUSH1 0x12 PUSH1 0x24 DUP3 ADD MSTORE PUSH18 0x129BD888191BD95CC81B9BDD08195E1A5CDD PUSH1 0x72 SHL PUSH1 0x44 DUP3 ADD MSTORE PUSH1 0x64 SWAP1 REVERT JUMPDEST ISZERO PUSH2 0x1F67 JUMPI JUMP JUMPDEST PUSH1 0x40 MLOAD PUSH3 0x461BCD PUSH1 0xE5 SHL DUP2 MSTORE PUSH1 0x20 PUSH1 0x4 DUP3 ADD MSTORE PUSH1 0x13 PUSH1 0x24 DUP3 ADD MSTORE PUSH19 0x129BD888191958591B1A5B99481C185CDCD959 PUSH1 0x6A SHL PUSH1 0x44 DUP3 ADD MSTORE PUSH1 0x64 SWAP1 REVERT JUMPDEST PUSH1 0x3 DUP3 LT ISZERO PUSH2 0xE53 JUMPI MSTORE JUMP JUMPDEST ISZERO PUSH2 0x1FB5 JUMPI JUMP JUMPDEST PUSH1 0x40 MLOAD PUSH3 0x461BCD PUSH1 0xE5 SHL DUP2 MSTORE PUSH1 0x20 PUSH1 0x4 DUP3 ADD MSTORE PUSH1 0x12 PUSH1 0x24 DUP3 ADD MSTORE PUSH18 0x109A5908191BD95CC81B9BDD08195E1A5CDD PUSH1 0x72 SHL PUSH1 0x44 DUP3 ADD MSTORE PUSH1 0x64 SWAP1 REVERT JUMPDEST DUP1 MLOAD DUP3 LT ISZERO PUSH2 0x1DF7 JUMPI PUSH1 0x20 SWAP2 PUSH1 0x5 SHL ADD ADD SWAP1 JUMP JUMPDEST ISZERO PUSH2 0x200A JUMPI JUMP JUMPDEST PUSH1 0x40 MLOAD PUSH3 0x461BCD PUSH1 0xE5 SHL DUP2 MSTORE PUSH1 0x20 PUSH1 0x4 DUP3 ADD MSTORE PUSH1 0x14 PUSH1 0x24 DUP3 ADD MSTORE PUSH20 0x526174696E67206D75737420626520302D31303 PUSH1 0x64 SHL PUSH1 0x44 DUP3 ADD MSTORE PUSH1 0x64 SWAP1 REVERT JUMPDEST PUSH8 0xFFFFFFFFFFFFFFFF DUP2 GT PUSH2 0x1E21 JUMPI PUSH1 0x5 SHL PUSH1 0x20 ADD SWAP1 JUMP INVALID LOG2 PUSH5 0x6970667358 0x22 SLT KECCAK256 SMOD 0xED BALANCE DUP4 0xA9 0xF 0xD4 PC EXTCODEHASH 0xC5 0x49 SGT 0xC4 0xE2 SELFBALANCE DUP15 0xBA 0xAA PUSH17 0x546C19051C968BEF27A36FA23F64736F6C PUSH4 0x43000814 STOP CALLER "},"methodIdentifiers":{"MAX_DEADLINE()":"6f0e530f","MIN_DEADLINE()":"85ae341d","acceptBid(uint256,uint256)":"02e9d5e4","bidCounter()":"03f69354","bidOnJob(uint256,uint256,bytes32)":"ecde458a","bids(uint256)":"4423c5f1","cancelJob(uint256)":"1dffa3dc","finalizeAfterDeadline(uint256)":"d9badb5d","finalizeJob(uint256,bool,uint8,bytes32)":"d2f5b5d2","getBid(uint256)":"3c889e6f","getJob(uint256)":"bf22c457","getJobBids(uint256)":"4cb9d7fd","getOpenJobs()":"1321c95e","identityContract()":"67031bae","jobBids(uint256,uint256)":"840850d1","jobCounter()":"50355d76","jobs(uint256)":"180aedf3","postJob(bytes32,uint256)":"bb8bdced","rateClient(uint256,uint8)":"0a197a0d","submitDelivery(uint256,bytes32)":"d8dc8c28"}}}}}