{"contracts/AgentIdentity.sol":{"AgentIdentity":{"abi":[{"inputs":[],"stateMutability":"nonpayable","type":"constructor"},{"anonymous":false,"inputs":[{"indexed":true,"internalType":"address","name":"agentAddress","type":"address"},{"indexed":false,"internalType":"string","name":"name","type":"string"},{"indexed":false,"internalType":"bool","name":"verified","type":"bool"},{"indexed":false,"internalType":"uint256","name":"timestamp","type":"uint256"}],"name":"AgentRegistered","type":"event"},{"anonymous":false,"inputs":[{"indexed":true,"internalType":"address","name":"reported","type":"address"},{"indexed":true,"internalType":"address","name":"reporter","type":"address"},{"indexed":false,"internalType":"string","name":"reason","type":"string"},{"indexed":false,"internalType":"uint256","name":"timestamp","type":"uint256"}],"name":"AgentReported","type":"event"},{"anonymous":false,"inputs":[{"indexed":true,"internalType":"address","name":"agentAddress","type":"address"},{"indexed":false,"internalType":"uint256","name":"timestamp","type":"uint256"}],"name":"AgentUnregistered","type":"event"},{"anonymous":false,"inputs":[{"indexed":true,"internalType":"address","name":"client","type":"address"},{"indexed":false,"internalType":"uint256","name":"newClientScore","type":"uint256"},{"indexed":true,"internalType":"address","name":"rater","type":"address"}],"name":"ClientRated","type":"event"},{"anonymous":false,"inputs":[{"indexed":true,"internalType":"address","name":"worker","type":"address"},{"indexed":false,"internalType":"uint256","name":"newReputationScore","type":"uint256"},{"indexed":false,"internalType":"uint256","name":"payment","type":"uint256"}],"name":"WorkerRated","type":"event"},{"inputs":[{"internalType":"uint256","name":"","type":"uint256"}],"name":"agentList","outputs":[{"internalType":"address","name":"","type":"address"}],"stateMutability":"view","type":"function"},{"inputs":[{"internalType":"address","name":"agentAddress","type":"address"}],"name":"getAgent","outputs":[{"components":[{"internalType":"string","name":"name","type":"string"},{"internalType":"string","name":"description","type":"string"},{"internalType":"string","name":"capabilities","type":"string"},{"internalType":"uint256","name":"registeredAt","type":"uint256"},{"internalType":"bool","name":"active","type":"bool"},{"internalType":"bool","name":"verifiedMachineAgent","type":"bool"},{"internalType":"uint256","name":"jobsCompleted","type":"uint256"},{"internalType":"uint256","name":"jobsFailed","type":"uint256"},{"internalType":"uint256","name":"totalEarned","type":"uint256"},{"internalType":"uint256","name":"reputationScore","type":"uint256"},{"internalType":"uint256","name":"totalRatings","type":"uint256"},{"internalType":"uint256","name":"clientScore","type":"uint256"},{"internalType":"uint256","name":"clientRatings","type":"uint256"},{"internalType":"uint256","name":"reportCount","type":"uint256"}],"internalType":"struct AgentIdentity.Agent","name":"","type":"tuple"}],"stateMutability":"view","type":"function"},{"inputs":[],"name":"getAllAgents","outputs":[{"internalType":"address[]","name":"","type":"address[]"}],"stateMutability":"view","type":"function"},{"inputs":[{"internalType":"address","name":"agentAddress","type":"address"}],"name":"getClientScore","outputs":[{"internalType":"uint256","name":"","type":"uint256"}],"stateMutability":"view","type":"function"},{"inputs":[{"internalType":"address","name":"agentAddress","type":"address"}],"name":"getReportCount","outputs":[{"internalType":"uint256","name":"","type":"uint256"}],"stateMutability":"view","type":"function"},{"inputs":[{"internalType":"address","name":"","type":"address"},{"internalType":"address","name":"","type":"address"}],"name":"hasReported","outputs":[{"internalType":"bool","name":"","type":"bool"}],"stateMutability":"view","type":"function"},{"inputs":[{"internalType":"address","name":"agentAddress","type":"address"}],"name":"isRegistered","outputs":[{"internalType":"bool","name":"","type":"bool"}],"stateMutability":"view","type":"function"},{"inputs":[{"internalType":"address","name":"agentAddress","type":"address"}],"name":"isVerified","outputs":[{"internalType":"bool","name":"","type":"bool"}],"stateMutability":"view","type":"function"},{"inputs":[{"internalType":"address","name":"agentAddress","type":"address"}],"name":"isWarned","outputs":[{"internalType":"bool","name":"","type":"bool"}],"stateMutability":"view","type":"function"},{"inputs":[],"name":"marketplace","outputs":[{"internalType":"address","name":"","type":"address"}],"stateMutability":"view","type":"function"},{"inputs":[],"name":"reactivate","outputs":[],"stateMutability":"nonpayable","type":"function"},{"inputs":[{"internalType":"string","name":"name","type":"string"},{"internalType":"string","name":"description","type":"string"},{"internalType":"string","name":"capabilities","type":"string"}],"name":"register","outputs":[],"stateMutability":"nonpayable","type":"function"},{"inputs":[{"internalType":"string","name":"name","type":"string"},{"internalType":"string","name":"description","type":"string"},{"internalType":"string","name":"capabilities","type":"string"},{"internalType":"bytes","name":"signature","type":"bytes"}],"name":"registerVerified","outputs":[],"stateMutability":"nonpayable","type":"function"},{"inputs":[],"name":"registryAuthority","outputs":[{"internalType":"address","name":"","type":"address"}],"stateMutability":"view","type":"function"},{"inputs":[{"internalType":"address","name":"badActor","type":"address"},{"internalType":"string","name":"reason","type":"string"}],"name":"reportAgent","outputs":[],"stateMutability":"nonpayable","type":"function"},{"inputs":[{"internalType":"address","name":"_marketplace","type":"address"}],"name":"setMarketplace","outputs":[],"stateMutability":"nonpayable","type":"function"},{"inputs":[],"name":"totalAgents","outputs":[{"internalType":"uint256","name":"","type":"uint256"}],"stateMutability":"view","type":"function"},{"inputs":[],"name":"unregister","outputs":[],"stateMutability":"nonpayable","type":"function"},{"inputs":[{"internalType":"address","name":"agentAddress","type":"address"},{"internalType":"uint256","name":"payment","type":"uint256"},{"internalType":"uint256","name":"rating","type":"uint256"},{"internalType":"bool","name":"success","type":"bool"}],"name":"updateAgentStats","outputs":[],"stateMutability":"nonpayable","type":"function"},{"inputs":[{"internalType":"address","name":"posterAddress","type":"address"},{"internalType":"uint256","name":"rating","type":"uint256"}],"name":"updateClientStats","outputs":[],"stateMutability":"nonpayable","type":"function"}],"evm":{"bytecode":{"linkReferences":{},"object":"60a080604052346100315733608052611b0b908161003782396080518181816106b0015281816108fe01526110330152f35b600080fdfe6080604052600436101561001257600080fd5b60003560e01c806322fcf488146101575780632f80c54f1461015257806342e207191461014d5780634cd08d031461014857806358aa1c431461014357806373ad6c2d1461013e5780637d20fce914610139578063860e4ac6146101345780639e22a8931461012f578063ab27e6a41461012a578063abc8c7af14610125578063b0f94e1a14610120578063b9209e331461011b578063bc6e44b714610116578063c3c5a54714610111578063c50537121461010c578063d18611d614610107578063df8da49c14610102578063e79a198f146100fd5763fb3551ff146100f857600080fd5b610dc2565b610c3c565b610ba7565b610aaa565b610a8c565b610a4a565b610986565b61092d565b6108e8565b6108bf565b610882565b610845565b61077b565b61073a565b61068c565b610629565b610591565b610432565b6103d7565b610245565b600435906001600160a01b038216820361017257565b600080fd5b634e487b7160e01b600052604160045260246000fd5b6101c0810190811067ffffffffffffffff8211176101aa57604052565b610177565b90601f8019910116810190811067ffffffffffffffff8211176101aa57604052565b604051906101de8261018d565b565b92919267ffffffffffffffff82116101aa576040519161020a601f8201601f1916602001846101af565b829481845281830111610172578281602093846000960137010152565b9080601f8301121561017257816020610242933591016101e0565b90565b346101725760403660031901126101725761025e61015c565b60243567ffffffffffffffff81116101725761027e903690600401610227565b903360005260016020526102a361029e600460406000200160ff90541690565b611305565b6102d46102cf60046102c78460018060a01b03166000526001602052604060002090565b015460ff1690565b611351565b6001600160a01b03811690600c90610393906102f23385141561139d565b61034261033d6103396103328461031b3360018060a01b03166000526002602052604060002090565b9060018060a01b0316600052602052604060002090565b5460ff1690565b1590565b6113e2565b61034e8551151561142e565b3360009081526002602052604090206103799061036c90839061031b565b805460ff19166001179055565b6001600160a01b0316600090815260016020526040902090565b0161039e8154611249565b90557fff3a99848e62270e33c18711d123df402e08fc4abd861227c07c47104e086557604051806103d2339542908361146c565b0390a3005b34610172576020366003190112610172576004356004548110156101725760046000527f8a35acfbc15ff81a39ae7d344fd709f28e8600b4aa8c65c6b64bfe7fe36bd19b01546040516001600160a01b039091168152602090f35b346101725760803660031901126101725761044b61015c565b602435906044356064359182151583036101725761052b60087f44f54b89abec6bf7012c19b9e986e3307c6a4a087bd10a2b402360947a5878df9460018060a01b039461049d866000541633146111e7565b6104c66104c160046102c78860018060a01b03166000526001602052604060002090565b61106b565b6001600160a01b0385166000908152600160205260409020911561057c57600582016104f28154611249565b90556007820161050389825461126b565b90555b80610530575b5001549460405193849316958360209093929193604081019481520152565b0390a2005b610574600983019182549061056d6105478361125d565b6105688888019361056261055c87875461128e565b91611278565b9061126b565b6112a1565b9055611249565b90553861050c565b6006820161058a8154611249565b9055610506565b346101725760603660031901126101725767ffffffffffffffff600435818111610172576105c3903690600401610227565b602435828111610172576105db903690600401610227565b604435928311610172576105f6610627933690600401610227565b9133600052600160205261061560ff6004604060002001541615610e78565b61062181511515610ec4565b3361181b565b005b346101725760403660031901126101725761064261015c565b602435906001600160a01b03908183168303610172571660009081526002602090815260408083206001600160a01b03909416835292815291902060ff9054166040519015158152f35b34610172576020366003190112610172576106a561015c565b6001600160a01b03907f0000000000000000000000000000000000000000000000000000000000000000821633036106f557166bffffffffffffffffffffffff60a01b6000541617600055600080f35b60405162461bcd60e51b815260206004820152601760248201527f4f6e6c7920726567697374727920617574686f726974790000000000000000006044820152606490fd5b34610172576020366003190112610172576001600160a01b0361075b61015c565b16600052600160205260206002600c604060002001541015604051908152f35b34610172576000806003193601126108425760405180916004549081835260208093018092600483527f8a35acfbc15ff81a39ae7d344fd709f28e8600b4aa8c65c6b64bfe7fe36bd19b90835b81811061082557505050846107de9103856101af565b60405193838594850191818652518092526040850193925b82811061080557505050500390f35b83516001600160a01b0316855286955093810193928101926001016107f6565b82546001600160a01b0316845292860192600192830192016107c8565b80fd5b34610172576020366003190112610172576001600160a01b0361086661015c565b1660005260016020526020600c60406000200154604051908152f35b34610172576020366003190112610172576001600160a01b036108a361015c565b1660005260016020526020600a60406000200154604051908152f35b34610172576000366003190112610172576000546040516001600160a01b039091168152602090f35b34610172576000366003190112610172576040517f00000000000000000000000000000000000000000000000000000000000000006001600160a01b03168152602090f35b34610172576020366003190112610172576001600160a01b0361094e61015c565b166000526001602052602060046040600020015460ff81169081610978575b506040519015158152f35b60ff915060081c163861096d565b346101725760403660031901126101725761099f61015c565b6109d860018060a01b036109b8816000541633146111e7565b82169182600052600160205261037960ff600460406000200154166112c1565b90600b8201610a148154610a0c600a6109f08361125d565b960195610568610a0184895461128e565b610562602435611278565b809555611249565b905560405191825232917f01f5ede1e41c52791e4039ac3cce580834f3d959f316c97ed36947eb788767a39080602081016103d2565b34610172576020366003190112610172576001600160a01b03610a6b61015c565b166000526001602052602060ff600460406000200154166040519015158152f35b34610172576000366003190112610172576020600354604051908152f35b346101725760008060031936011261084257338152600160205260ff600460408320015416610b6b57336000908152600160205260409020610af1906003015415156110ae565b336000908152600160205260409020610b1490600401805460ff19166001179055565b33600090815260016020526040902060048101547f26189cae495d0d6186e014c260bceac02ea314e154afce1711c36bfc1ec2b07e90610b659060081c60ff169260405191829133954291846111c3565b0390a280f35b60405162461bcd60e51b81526020600482015260146024820152734167656e7420616c72656164792061637469766560601b6044820152606490fd5b346101725760803660031901126101725767ffffffffffffffff60043581811161017257610bd9903690600401610227565b60243582811161017257610bf1903690600401610227565b60443583811161017257610c09903690600401610227565b90606435938411610172573660238501121561017257610c366106279436906024816004013591016101e0565b92610f6d565b3461017257600080600319360112610842573381526001602052610c6960ff60046040842001541661106b565b33815260016020526004604082200160ff1981541690556040514281527ff0a1214ef5ae8963b4589231f47cc936d51c90495de03083c6551ff2f5120f4860203392a280f35b919082519283825260005b848110610cdb575050826000602080949584010152601f8019910116010190565b602081830181015184830182015201610cba565b602081528151610d41610d106101c0928360208601526101e0850190610caf565b610d2c602086015191601f199283878303016040880152610caf565b90604086015190858303016060860152610caf565b9260608101516080840152610d5f608082015160a085019015159052565b60a0810151151560c084015260c081015160e084015260e081015161010090818501528101516101209081850152810151610140908185015281015161016090818501528101516101809081850152810151906101a09182850152015191015290565b3461017257602036600319011261017257610e74610e68610e63610de461015c565b604051610df08161018d565b6060815260606020820152606060408201526101a06000918260608201528260808201528260a08201528260c08201528260e08201528261010082015282610120820152826101408201528261016082015282610180820152015260018060a01b03166000526001602052604060002090565b6114a3565b60405191829182610cef565b0390f35b15610e7f57565b60405162461bcd60e51b815260206004820152601860248201527f4167656e7420616c7265616479207265676973746572656400000000000000006044820152606490fd5b15610ecb57565b60405162461bcd60e51b81526020600482015260146024820152734e616d652063616e6e6f7420626520656d70747960601b6044820152606490fd5b15610f0e57565b60405162461bcd60e51b815260206004820152603160248201527f4e6f7420617574686f72697a65643a2076616c696420726567697374727920736044820152701a59db985d1d5c99481c995c5d5a5c9959607a1b6064820152608490fd5b6110656110316101de95336000526001602052610f9d610f9860ff6004604060002001541615151590565b610e78565b610fa984511515610ec4565b6040516bffffffffffffffffffffffff193360601b166020820190815260148252601f1991610fd96034826101af565b51902090611029604051918261101d602082019586603c917f19457468657265756d205369676e6564204d6573736167653a0a3332000000008252601c8201520190565b039081018352826101af565b519020611a09565b7f00000000000000000000000000000000000000000000000000000000000000006001600160a01b03908116911614610f07565b3361190a565b1561107257565b60405162461bcd60e51b81526020600482015260146024820152731059d95b9d081b9bdd081c9959da5cdd195c995960621b6044820152606490fd5b156110b557565b60405162461bcd60e51b81526020600482015260166024820152751059d95b9d081b995d995c881c9959da5cdd195c995960521b6044820152606490fd5b90600182811c92168015611123575b602083101461110d57565b634e487b7160e01b600052602260045260246000fd5b91607f1691611102565b906000929180549161113e836110f3565b9182825260019384811690816000146111a05750600114611160575b50505050565b90919394506000526020928360002092846000945b83861061118c57505050500101903880808061115a565b805485870183015294019385908201611175565b9294505050602093945060ff191683830152151560051b0101903880808061115a565b6111db6040929594939560608352606083019061112d565b94151560208201520152565b156111ee57565b60405162461bcd60e51b815260206004820152601960248201527f4f6e6c79206d61726b6574706c61636520636f6e7472616374000000000000006044820152606490fd5b634e487b7160e01b600052601160045260246000fd5b60001981146112585760010190565b611233565b906001820180921161125857565b9190820180921161125857565b90600a820291808304600a149015171561125857565b8181029291811591840414171561125857565b81156112ab570490565b634e487b7160e01b600052601260045260246000fd5b156112c857565b60405162461bcd60e51b815260206004820152601560248201527410db1a595b9d081b9bdd081c9959da5cdd195c9959605a1b6044820152606490fd5b1561130c57565b60405162461bcd60e51b815260206004820152601b60248201527f5265706f72746572206d757374206265207265676973746572656400000000006044820152606490fd5b1561135857565b60405162461bcd60e51b815260206004820152601960248201527f546172676574206d7573742062652072656769737465726564000000000000006044820152606490fd5b156113a457565b60405162461bcd60e51b815260206004820152601660248201527521b0b73737ba103932b837b93a103cb7bab939b2b63360511b6044820152606490fd5b156113e957565b60405162461bcd60e51b815260206004820152601b60248201527f416c7265616479207265706f727465642074686973206167656e7400000000006044820152606490fd5b1561143557565b60405162461bcd60e51b815260206004820152600f60248201526e1499585cdbdb881c995c5d5a5c9959608a1b6044820152606490fd5b929190611483602091604086526040860190610caf565b930152565b906101de61149c926040519384809261112d565b03836101af565b90600c6114ae6101d1565b926114b881611488565b84526114c660018201611488565b60208501526114d760028201611488565b604085015260038101546060850152600481015460ff818116151560808701526115089160081c16151560a0860152565b600581015460c0850152600681015460e0850152600781015461010085015260088101546101208501526009810154610140850152600a810154610160850152600b81015461018085015201546101a0830152565b90601f811161156b57505050565b600091825260208220906020601f850160051c830194106115a7575b601f0160051c01915b82811061159c57505050565b818155600101611590565b9092508290611587565b919091825167ffffffffffffffff81116101aa576115d9816115d384546110f3565b8461155d565b602080601f831160011461161557508192939460009261160a575b50508160011b916000199060031b1c1916179055565b0151905038806115f4565b90601f1983169561162b85600052602060002090565b926000905b8882106116685750508360019596971061164f575b505050811b019055565b015160001960f88460031b161c19169055388080611645565b80600185968294968601518155019501930190611630565b906101a0600c916116928151856115b1565b6116a36020820151600186016115b1565b6116b46040820151600286016115b1565b60608101516003850155611704600485016116e76116d56080850151151590565b829060ff801983541691151516179055565b60a08301511515815461ff00191690151560081b61ff0016179055565b60c0810151600585015560e08101516006850155610100810151600785015561012081015160088501556101408101516009850155610160810151600a850155610180810151600b8501550151910155565b600454680100000000000000008110156101aa5760018101806004558110156117bf5760046000527f8a35acfbc15ff81a39ae7d344fd709f28e8600b4aa8c65c6b64bfe7fe36bd19b0180546001600160a01b0319166001600160a01b03909216919091179055565b634e487b7160e01b600052603260045260246000fd5b9291906117ec604091606086526060860190610caf565b93600060208201520152565b92919061180f604091606086526060860190610caf565b93600160208201520152565b6118ce7f26189cae495d0d6186e014c260bceac02ea314e154afce1711c36bfc1ec2b07e93611905939561184d6101d1565b918783526020830152604082015242606082015261186e6080820160019052565b60008060a08301528060c08301528060e0830152806101008301526101f48061012084015281610140840152610160830152806101808301526101a08201526118c98360018060a01b03166000526001602052604060002090565b611680565b6118d781611756565b6118ea6118e5600354611249565b600355565b6040516001600160a01b0390911693909182914290836117d5565b0390a2565b6119b97f26189cae495d0d6186e014c260bceac02ea314e154afce1711c36bfc1ec2b07e93611905939561193c6101d1565b918783526020830152604082015242606082015261195d6080820160019052565b600160a082015260008060c08301528060e0830152806101008301526101f48061012084015281610140840152610160830152806101808301526101a08201526118c98360018060a01b03166000526001602052604060002090565b6119c281611756565b6119d06118e5600354611249565b6040516001600160a01b0390911693909182914290836117f8565b60ff601b9116019060ff821161125857565b6040513d6000823e3d90fd5b6041825103611a90576020916000918291848101519260606040830151920151901a92601b8410611a79575b90611a6091604051948594859094939260ff6060936080840197845216602083015260408201520152565b838052039060015afa15611a745760005190565b6119fd565b9290611a87611a60926119eb565b93909150611a35565b60405162461bcd60e51b815260206004820152601860248201527f496e76616c6964207369676e6174757265206c656e67746800000000000000006044820152606490fdfea26469706673582212204ba3d35774a4efd60bf1bd8517f85a2ab5b5e111dfa5ffb1d711c6e81cb6ab1164736f6c63430008140033","opcodes":"PUSH1 0xA0 DUP1 PUSH1 0x40 MSTORE CALLVALUE PUSH2 0x31 JUMPI CALLER PUSH1 0x80 MSTORE PUSH2 0x1B0B SWAP1 DUP2 PUSH2 0x37 DUP3 CODECOPY PUSH1 0x80 MLOAD DUP2 DUP2 DUP2 PUSH2 0x6B0 ADD MSTORE DUP2 DUP2 PUSH2 0x8FE ADD MSTORE PUSH2 0x1033 ADD MSTORE RETURN JUMPDEST PUSH1 0x0 DUP1 REVERT INVALID PUSH1 0x80 PUSH1 0x40 MSTORE PUSH1 0x4 CALLDATASIZE LT ISZERO PUSH2 0x12 JUMPI PUSH1 0x0 DUP1 REVERT JUMPDEST PUSH1 0x0 CALLDATALOAD PUSH1 0xE0 SHR DUP1 PUSH4 0x22FCF488 EQ PUSH2 0x157 JUMPI DUP1 PUSH4 0x2F80C54F EQ PUSH2 0x152 JUMPI DUP1 PUSH4 0x42E20719 EQ PUSH2 0x14D JUMPI DUP1 PUSH4 0x4CD08D03 EQ PUSH2 0x148 JUMPI DUP1 PUSH4 0x58AA1C43 EQ PUSH2 0x143 JUMPI DUP1 PUSH4 0x73AD6C2D EQ PUSH2 0x13E JUMPI DUP1 PUSH4 0x7D20FCE9 EQ PUSH2 0x139 JUMPI DUP1 PUSH4 0x860E4AC6 EQ PUSH2 0x134 JUMPI DUP1 PUSH4 0x9E22A893 EQ PUSH2 0x12F JUMPI DUP1 PUSH4 0xAB27E6A4 EQ PUSH2 0x12A JUMPI DUP1 PUSH4 0xABC8C7AF EQ PUSH2 0x125 JUMPI DUP1 PUSH4 0xB0F94E1A EQ PUSH2 0x120 JUMPI DUP1 PUSH4 0xB9209E33 EQ PUSH2 0x11B JUMPI DUP1 PUSH4 0xBC6E44B7 EQ PUSH2 0x116 JUMPI DUP1 PUSH4 0xC3C5A547 EQ PUSH2 0x111 JUMPI DUP1 PUSH4 0xC5053712 EQ PUSH2 0x10C JUMPI DUP1 PUSH4 0xD18611D6 EQ PUSH2 0x107 JUMPI DUP1 PUSH4 0xDF8DA49C EQ PUSH2 0x102 JUMPI DUP1 PUSH4 0xE79A198F EQ PUSH2 0xFD JUMPI PUSH4 0xFB3551FF EQ PUSH2 0xF8 JUMPI PUSH1 0x0 DUP1 REVERT JUMPDEST PUSH2 0xDC2 JUMP JUMPDEST PUSH2 0xC3C JUMP JUMPDEST PUSH2 0xBA7 JUMP JUMPDEST PUSH2 0xAAA JUMP JUMPDEST PUSH2 0xA8C JUMP JUMPDEST PUSH2 0xA4A JUMP JUMPDEST PUSH2 0x986 JUMP JUMPDEST PUSH2 0x92D JUMP JUMPDEST PUSH2 0x8E8 JUMP JUMPDEST PUSH2 0x8BF JUMP JUMPDEST PUSH2 0x882 JUMP JUMPDEST PUSH2 0x845 JUMP JUMPDEST PUSH2 0x77B JUMP JUMPDEST PUSH2 0x73A JUMP JUMPDEST PUSH2 0x68C JUMP JUMPDEST PUSH2 0x629 JUMP JUMPDEST PUSH2 0x591 JUMP JUMPDEST PUSH2 0x432 JUMP JUMPDEST PUSH2 0x3D7 JUMP JUMPDEST PUSH2 0x245 JUMP JUMPDEST PUSH1 0x4 CALLDATALOAD SWAP1 PUSH1 0x1 PUSH1 0x1 PUSH1 0xA0 SHL SUB DUP3 AND DUP3 SUB PUSH2 0x172 JUMPI JUMP JUMPDEST PUSH1 0x0 DUP1 REVERT JUMPDEST PUSH4 0x4E487B71 PUSH1 0xE0 SHL PUSH1 0x0 MSTORE PUSH1 0x41 PUSH1 0x4 MSTORE PUSH1 0x24 PUSH1 0x0 REVERT JUMPDEST PUSH2 0x1C0 DUP2 ADD SWAP1 DUP2 LT PUSH8 0xFFFFFFFFFFFFFFFF DUP3 GT OR PUSH2 0x1AA JUMPI PUSH1 0x40 MSTORE JUMP JUMPDEST PUSH2 0x177 JUMP JUMPDEST SWAP1 PUSH1 0x1F DUP1 NOT SWAP2 ADD AND DUP2 ADD SWAP1 DUP2 LT PUSH8 0xFFFFFFFFFFFFFFFF DUP3 GT OR PUSH2 0x1AA JUMPI PUSH1 0x40 MSTORE JUMP JUMPDEST PUSH1 0x40 MLOAD SWAP1 PUSH2 0x1DE DUP3 PUSH2 0x18D JUMP JUMPDEST JUMP JUMPDEST SWAP3 SWAP2 SWAP3 PUSH8 0xFFFFFFFFFFFFFFFF DUP3 GT PUSH2 0x1AA JUMPI PUSH1 0x40 MLOAD SWAP2 PUSH2 0x20A PUSH1 0x1F DUP3 ADD PUSH1 0x1F NOT AND PUSH1 0x20 ADD DUP5 PUSH2 0x1AF JUMP JUMPDEST DUP3 SWAP5 DUP2 DUP5 MSTORE DUP2 DUP4 ADD GT PUSH2 0x172 JUMPI DUP3 DUP2 PUSH1 0x20 SWAP4 DUP5 PUSH1 0x0 SWAP7 ADD CALLDATACOPY ADD ADD MSTORE JUMP JUMPDEST SWAP1 DUP1 PUSH1 0x1F DUP4 ADD SLT ISZERO PUSH2 0x172 JUMPI DUP2 PUSH1 0x20 PUSH2 0x242 SWAP4 CALLDATALOAD SWAP2 ADD PUSH2 0x1E0 JUMP JUMPDEST SWAP1 JUMP JUMPDEST CALLVALUE PUSH2 0x172 JUMPI PUSH1 0x40 CALLDATASIZE PUSH1 0x3 NOT ADD SLT PUSH2 0x172 JUMPI PUSH2 0x25E PUSH2 0x15C JUMP JUMPDEST PUSH1 0x24 CALLDATALOAD PUSH8 0xFFFFFFFFFFFFFFFF DUP2 GT PUSH2 0x172 JUMPI PUSH2 0x27E SWAP1 CALLDATASIZE SWAP1 PUSH1 0x4 ADD PUSH2 0x227 JUMP JUMPDEST SWAP1 CALLER PUSH1 0x0 MSTORE PUSH1 0x1 PUSH1 0x20 MSTORE PUSH2 0x2A3 PUSH2 0x29E PUSH1 0x4 PUSH1 0x40 PUSH1 0x0 KECCAK256 ADD PUSH1 0xFF SWAP1 SLOAD AND SWAP1 JUMP JUMPDEST PUSH2 0x1305 JUMP JUMPDEST PUSH2 0x2D4 PUSH2 0x2CF PUSH1 0x4 PUSH2 0x2C7 DUP5 PUSH1 0x1 DUP1 PUSH1 0xA0 SHL SUB AND PUSH1 0x0 MSTORE PUSH1 0x1 PUSH1 0x20 MSTORE PUSH1 0x40 PUSH1 0x0 KECCAK256 SWAP1 JUMP JUMPDEST ADD SLOAD PUSH1 0xFF AND SWAP1 JUMP JUMPDEST PUSH2 0x1351 JUMP JUMPDEST PUSH1 0x1 PUSH1 0x1 PUSH1 0xA0 SHL SUB DUP2 AND SWAP1 PUSH1 0xC SWAP1 PUSH2 0x393 SWAP1 PUSH2 0x2F2 CALLER DUP6 EQ ISZERO PUSH2 0x139D JUMP JUMPDEST PUSH2 0x342 PUSH2 0x33D PUSH2 0x339 PUSH2 0x332 DUP5 PUSH2 0x31B CALLER PUSH1 0x1 DUP1 PUSH1 0xA0 SHL SUB AND PUSH1 0x0 MSTORE PUSH1 0x2 PUSH1 0x20 MSTORE PUSH1 0x40 PUSH1 0x0 KECCAK256 SWAP1 JUMP JUMPDEST SWAP1 PUSH1 0x1 DUP1 PUSH1 0xA0 SHL SUB AND PUSH1 0x0 MSTORE PUSH1 0x20 MSTORE PUSH1 0x40 PUSH1 0x0 KECCAK256 SWAP1 JUMP JUMPDEST SLOAD PUSH1 0xFF AND SWAP1 JUMP JUMPDEST ISZERO SWAP1 JUMP JUMPDEST PUSH2 0x13E2 JUMP JUMPDEST PUSH2 0x34E DUP6 MLOAD ISZERO ISZERO PUSH2 0x142E JUMP JUMPDEST CALLER PUSH1 0x0 SWAP1 DUP2 MSTORE PUSH1 0x2 PUSH1 0x20 MSTORE PUSH1 0x40 SWAP1 KECCAK256 PUSH2 0x379 SWAP1 PUSH2 0x36C SWAP1 DUP4 SWAP1 PUSH2 0x31B JUMP JUMPDEST DUP1 SLOAD PUSH1 0xFF NOT AND PUSH1 0x1 OR SWAP1 SSTORE JUMP JUMPDEST PUSH1 0x1 PUSH1 0x1 PUSH1 0xA0 SHL SUB AND PUSH1 0x0 SWAP1 DUP2 MSTORE PUSH1 0x1 PUSH1 0x20 MSTORE PUSH1 0x40 SWAP1 KECCAK256 SWAP1 JUMP JUMPDEST ADD PUSH2 0x39E DUP2 SLOAD PUSH2 0x1249 JUMP JUMPDEST SWAP1 SSTORE PUSH32 0xFF3A99848E62270E33C18711D123DF402E08FC4ABD861227C07C47104E086557 PUSH1 0x40 MLOAD DUP1 PUSH2 0x3D2 CALLER SWAP6 TIMESTAMP SWAP1 DUP4 PUSH2 0x146C JUMP JUMPDEST SUB SWAP1 LOG3 STOP JUMPDEST CALLVALUE PUSH2 0x172 JUMPI PUSH1 0x20 CALLDATASIZE PUSH1 0x3 NOT ADD SLT PUSH2 0x172 JUMPI PUSH1 0x4 CALLDATALOAD PUSH1 0x4 SLOAD DUP2 LT ISZERO PUSH2 0x172 JUMPI PUSH1 0x4 PUSH1 0x0 MSTORE PUSH32 0x8A35ACFBC15FF81A39AE7D344FD709F28E8600B4AA8C65C6B64BFE7FE36BD19B ADD SLOAD PUSH1 0x40 MLOAD PUSH1 0x1 PUSH1 0x1 PUSH1 0xA0 SHL SUB SWAP1 SWAP2 AND DUP2 MSTORE PUSH1 0x20 SWAP1 RETURN JUMPDEST CALLVALUE PUSH2 0x172 JUMPI PUSH1 0x80 CALLDATASIZE PUSH1 0x3 NOT ADD SLT PUSH2 0x172 JUMPI PUSH2 0x44B PUSH2 0x15C JUMP JUMPDEST PUSH1 0x24 CALLDATALOAD SWAP1 PUSH1 0x44 CALLDATALOAD PUSH1 0x64 CALLDATALOAD SWAP2 DUP3 ISZERO ISZERO DUP4 SUB PUSH2 0x172 JUMPI PUSH2 0x52B PUSH1 0x8 PUSH32 0x44F54B89ABEC6BF7012C19B9E986E3307C6A4A087BD10A2B402360947A5878DF SWAP5 PUSH1 0x1 DUP1 PUSH1 0xA0 SHL SUB SWAP5 PUSH2 0x49D DUP7 PUSH1 0x0 SLOAD AND CALLER EQ PUSH2 0x11E7 JUMP JUMPDEST PUSH2 0x4C6 PUSH2 0x4C1 PUSH1 0x4 PUSH2 0x2C7 DUP9 PUSH1 0x1 DUP1 PUSH1 0xA0 SHL SUB AND PUSH1 0x0 MSTORE PUSH1 0x1 PUSH1 0x20 MSTORE PUSH1 0x40 PUSH1 0x0 KECCAK256 SWAP1 JUMP JUMPDEST PUSH2 0x106B JUMP JUMPDEST PUSH1 0x1 PUSH1 0x1 PUSH1 0xA0 SHL SUB DUP6 AND PUSH1 0x0 SWAP1 DUP2 MSTORE PUSH1 0x1 PUSH1 0x20 MSTORE PUSH1 0x40 SWAP1 KECCAK256 SWAP2 ISZERO PUSH2 0x57C JUMPI PUSH1 0x5 DUP3 ADD PUSH2 0x4F2 DUP2 SLOAD PUSH2 0x1249 JUMP JUMPDEST SWAP1 SSTORE PUSH1 0x7 DUP3 ADD PUSH2 0x503 DUP10 DUP3 SLOAD PUSH2 0x126B JUMP JUMPDEST SWAP1 SSTORE JUMPDEST DUP1 PUSH2 0x530 JUMPI JUMPDEST POP ADD SLOAD SWAP5 PUSH1 0x40 MLOAD SWAP4 DUP5 SWAP4 AND SWAP6 DUP4 PUSH1 0x20 SWAP1 SWAP4 SWAP3 SWAP2 SWAP4 PUSH1 0x40 DUP2 ADD SWAP5 DUP2 MSTORE ADD MSTORE JUMP JUMPDEST SUB SWAP1 LOG2 STOP JUMPDEST PUSH2 0x574 PUSH1 0x9 DUP4 ADD SWAP2 DUP3 SLOAD SWAP1 PUSH2 0x56D PUSH2 0x547 DUP4 PUSH2 0x125D JUMP JUMPDEST PUSH2 0x568 DUP9 DUP9 ADD SWAP4 PUSH2 0x562 PUSH2 0x55C DUP8 DUP8 SLOAD PUSH2 0x128E JUMP JUMPDEST SWAP2 PUSH2 0x1278 JUMP JUMPDEST SWAP1 PUSH2 0x126B JUMP JUMPDEST PUSH2 0x12A1 JUMP JUMPDEST SWAP1 SSTORE PUSH2 0x1249 JUMP JUMPDEST SWAP1 SSTORE CODESIZE PUSH2 0x50C JUMP JUMPDEST PUSH1 0x6 DUP3 ADD PUSH2 0x58A DUP2 SLOAD PUSH2 0x1249 JUMP JUMPDEST SWAP1 SSTORE PUSH2 0x506 JUMP JUMPDEST CALLVALUE PUSH2 0x172 JUMPI PUSH1 0x60 CALLDATASIZE PUSH1 0x3 NOT ADD SLT PUSH2 0x172 JUMPI PUSH8 0xFFFFFFFFFFFFFFFF PUSH1 0x4 CALLDATALOAD DUP2 DUP2 GT PUSH2 0x172 JUMPI PUSH2 0x5C3 SWAP1 CALLDATASIZE SWAP1 PUSH1 0x4 ADD PUSH2 0x227 JUMP JUMPDEST PUSH1 0x24 CALLDATALOAD DUP3 DUP2 GT PUSH2 0x172 JUMPI PUSH2 0x5DB SWAP1 CALLDATASIZE SWAP1 PUSH1 0x4 ADD PUSH2 0x227 JUMP JUMPDEST PUSH1 0x44 CALLDATALOAD SWAP3 DUP4 GT PUSH2 0x172 JUMPI PUSH2 0x5F6 PUSH2 0x627 SWAP4 CALLDATASIZE SWAP1 PUSH1 0x4 ADD PUSH2 0x227 JUMP JUMPDEST SWAP2 CALLER PUSH1 0x0 MSTORE PUSH1 0x1 PUSH1 0x20 MSTORE PUSH2 0x615 PUSH1 0xFF PUSH1 0x4 PUSH1 0x40 PUSH1 0x0 KECCAK256 ADD SLOAD AND ISZERO PUSH2 0xE78 JUMP JUMPDEST PUSH2 0x621 DUP2 MLOAD ISZERO ISZERO PUSH2 0xEC4 JUMP JUMPDEST CALLER PUSH2 0x181B JUMP JUMPDEST STOP JUMPDEST CALLVALUE PUSH2 0x172 JUMPI PUSH1 0x40 CALLDATASIZE PUSH1 0x3 NOT ADD SLT PUSH2 0x172 JUMPI PUSH2 0x642 PUSH2 0x15C JUMP JUMPDEST PUSH1 0x24 CALLDATALOAD SWAP1 PUSH1 0x1 PUSH1 0x1 PUSH1 0xA0 SHL SUB SWAP1 DUP2 DUP4 AND DUP4 SUB PUSH2 0x172 JUMPI AND PUSH1 0x0 SWAP1 DUP2 MSTORE PUSH1 0x2 PUSH1 0x20 SWAP1 DUP2 MSTORE PUSH1 0x40 DUP1 DUP4 KECCAK256 PUSH1 0x1 PUSH1 0x1 PUSH1 0xA0 SHL SUB SWAP1 SWAP5 AND DUP4 MSTORE SWAP3 DUP2 MSTORE SWAP2 SWAP1 KECCAK256 PUSH1 0xFF SWAP1 SLOAD AND PUSH1 0x40 MLOAD SWAP1 ISZERO ISZERO DUP2 MSTORE RETURN JUMPDEST CALLVALUE PUSH2 0x172 JUMPI PUSH1 0x20 CALLDATASIZE PUSH1 0x3 NOT ADD SLT PUSH2 0x172 JUMPI PUSH2 0x6A5 PUSH2 0x15C JUMP JUMPDEST PUSH1 0x1 PUSH1 0x1 PUSH1 0xA0 SHL SUB SWAP1 PUSH32 0x0 DUP3 AND CALLER SUB PUSH2 0x6F5 JUMPI AND PUSH12 0xFFFFFFFFFFFFFFFFFFFFFFFF PUSH1 0xA0 SHL PUSH1 0x0 SLOAD AND OR PUSH1 0x0 SSTORE PUSH1 0x0 DUP1 RETURN JUMPDEST PUSH1 0x40 MLOAD PUSH3 0x461BCD PUSH1 0xE5 SHL DUP2 MSTORE PUSH1 0x20 PUSH1 0x4 DUP3 ADD MSTORE PUSH1 0x17 PUSH1 0x24 DUP3 ADD MSTORE PUSH32 0x4F6E6C7920726567697374727920617574686F72697479000000000000000000 PUSH1 0x44 DUP3 ADD MSTORE PUSH1 0x64 SWAP1 REVERT JUMPDEST CALLVALUE PUSH2 0x172 JUMPI PUSH1 0x20 CALLDATASIZE PUSH1 0x3 NOT ADD SLT PUSH2 0x172 JUMPI PUSH1 0x1 PUSH1 0x1 PUSH1 0xA0 SHL SUB PUSH2 0x75B PUSH2 0x15C JUMP JUMPDEST AND PUSH1 0x0 MSTORE PUSH1 0x1 PUSH1 0x20 MSTORE PUSH1 0x20 PUSH1 0x2 PUSH1 0xC PUSH1 0x40 PUSH1 0x0 KECCAK256 ADD SLOAD LT ISZERO PUSH1 0x40 MLOAD SWAP1 DUP2 MSTORE RETURN JUMPDEST CALLVALUE PUSH2 0x172 JUMPI PUSH1 0x0 DUP1 PUSH1 0x3 NOT CALLDATASIZE ADD SLT PUSH2 0x842 JUMPI PUSH1 0x40 MLOAD DUP1 SWAP2 PUSH1 0x4 SLOAD SWAP1 DUP2 DUP4 MSTORE PUSH1 0x20 DUP1 SWAP4 ADD DUP1 SWAP3 PUSH1 0x4 DUP4 MSTORE PUSH32 0x8A35ACFBC15FF81A39AE7D344FD709F28E8600B4AA8C65C6B64BFE7FE36BD19B SWAP1 DUP4 JUMPDEST DUP2 DUP2 LT PUSH2 0x825 JUMPI POP POP POP DUP5 PUSH2 0x7DE SWAP2 SUB DUP6 PUSH2 0x1AF JUMP JUMPDEST PUSH1 0x40 MLOAD SWAP4 DUP4 DUP6 SWAP5 DUP6 ADD SWAP2 DUP2 DUP7 MSTORE MLOAD DUP1 SWAP3 MSTORE PUSH1 0x40 DUP6 ADD SWAP4 SWAP3 JUMPDEST DUP3 DUP2 LT PUSH2 0x805 JUMPI POP POP POP POP SUB SWAP1 RETURN JUMPDEST DUP4 MLOAD PUSH1 0x1 PUSH1 0x1 PUSH1 0xA0 SHL SUB AND DUP6 MSTORE DUP7 SWAP6 POP SWAP4 DUP2 ADD SWAP4 SWAP3 DUP2 ADD SWAP3 PUSH1 0x1 ADD PUSH2 0x7F6 JUMP JUMPDEST DUP3 SLOAD PUSH1 0x1 PUSH1 0x1 PUSH1 0xA0 SHL SUB AND DUP5 MSTORE SWAP3 DUP7 ADD SWAP3 PUSH1 0x1 SWAP3 DUP4 ADD SWAP3 ADD PUSH2 0x7C8 JUMP JUMPDEST DUP1 REVERT JUMPDEST CALLVALUE PUSH2 0x172 JUMPI PUSH1 0x20 CALLDATASIZE PUSH1 0x3 NOT ADD SLT PUSH2 0x172 JUMPI PUSH1 0x1 PUSH1 0x1 PUSH1 0xA0 SHL SUB PUSH2 0x866 PUSH2 0x15C JUMP JUMPDEST AND PUSH1 0x0 MSTORE PUSH1 0x1 PUSH1 0x20 MSTORE PUSH1 0x20 PUSH1 0xC PUSH1 0x40 PUSH1 0x0 KECCAK256 ADD SLOAD PUSH1 0x40 MLOAD SWAP1 DUP2 MSTORE RETURN JUMPDEST CALLVALUE PUSH2 0x172 JUMPI PUSH1 0x20 CALLDATASIZE PUSH1 0x3 NOT ADD SLT PUSH2 0x172 JUMPI PUSH1 0x1 PUSH1 0x1 PUSH1 0xA0 SHL SUB PUSH2 0x8A3 PUSH2 0x15C JUMP JUMPDEST AND PUSH1 0x0 MSTORE PUSH1 0x1 PUSH1 0x20 MSTORE PUSH1 0x20 PUSH1 0xA PUSH1 0x40 PUSH1 0x0 KECCAK256 ADD SLOAD PUSH1 0x40 MLOAD SWAP1 DUP2 MSTORE RETURN JUMPDEST CALLVALUE PUSH2 0x172 JUMPI PUSH1 0x0 CALLDATASIZE PUSH1 0x3 NOT ADD SLT PUSH2 0x172 JUMPI PUSH1 0x0 SLOAD PUSH1 0x40 MLOAD PUSH1 0x1 PUSH1 0x1 PUSH1 0xA0 SHL SUB SWAP1 SWAP2 AND DUP2 MSTORE PUSH1 0x20 SWAP1 RETURN JUMPDEST CALLVALUE PUSH2 0x172 JUMPI PUSH1 0x0 CALLDATASIZE PUSH1 0x3 NOT ADD SLT PUSH2 0x172 JUMPI PUSH1 0x40 MLOAD PUSH32 0x0 PUSH1 0x1 PUSH1 0x1 PUSH1 0xA0 SHL SUB AND DUP2 MSTORE PUSH1 0x20 SWAP1 RETURN JUMPDEST CALLVALUE PUSH2 0x172 JUMPI PUSH1 0x20 CALLDATASIZE PUSH1 0x3 NOT ADD SLT PUSH2 0x172 JUMPI PUSH1 0x1 PUSH1 0x1 PUSH1 0xA0 SHL SUB PUSH2 0x94E PUSH2 0x15C JUMP JUMPDEST AND PUSH1 0x0 MSTORE PUSH1 0x1 PUSH1 0x20 MSTORE PUSH1 0x20 PUSH1 0x4 PUSH1 0x40 PUSH1 0x0 KECCAK256 ADD SLOAD PUSH1 0xFF DUP2 AND SWAP1 DUP2 PUSH2 0x978 JUMPI JUMPDEST POP PUSH1 0x40 MLOAD SWAP1 ISZERO ISZERO DUP2 MSTORE RETURN JUMPDEST PUSH1 0xFF SWAP2 POP PUSH1 0x8 SHR AND CODESIZE PUSH2 0x96D JUMP JUMPDEST CALLVALUE PUSH2 0x172 JUMPI PUSH1 0x40 CALLDATASIZE PUSH1 0x3 NOT ADD SLT PUSH2 0x172 JUMPI PUSH2 0x99F PUSH2 0x15C JUMP JUMPDEST PUSH2 0x9D8 PUSH1 0x1 DUP1 PUSH1 0xA0 SHL SUB PUSH2 0x9B8 DUP2 PUSH1 0x0 SLOAD AND CALLER EQ PUSH2 0x11E7 JUMP JUMPDEST DUP3 AND SWAP2 DUP3 PUSH1 0x0 MSTORE PUSH1 0x1 PUSH1 0x20 MSTORE PUSH2 0x379 PUSH1 0xFF PUSH1 0x4 PUSH1 0x40 PUSH1 0x0 KECCAK256 ADD SLOAD AND PUSH2 0x12C1 JUMP JUMPDEST SWAP1 PUSH1 0xB DUP3 ADD PUSH2 0xA14 DUP2 SLOAD PUSH2 0xA0C PUSH1 0xA PUSH2 0x9F0 DUP4 PUSH2 0x125D JUMP JUMPDEST SWAP7 ADD SWAP6 PUSH2 0x568 PUSH2 0xA01 DUP5 DUP10 SLOAD PUSH2 0x128E JUMP JUMPDEST PUSH2 0x562 PUSH1 0x24 CALLDATALOAD PUSH2 0x1278 JUMP JUMPDEST DUP1 SWAP6 SSTORE PUSH2 0x1249 JUMP JUMPDEST SWAP1 SSTORE PUSH1 0x40 MLOAD SWAP2 DUP3 MSTORE ORIGIN SWAP2 PUSH32 0x1F5EDE1E41C52791E4039AC3CCE580834F3D959F316C97ED36947EB788767A3 SWAP1 DUP1 PUSH1 0x20 DUP2 ADD PUSH2 0x3D2 JUMP JUMPDEST CALLVALUE PUSH2 0x172 JUMPI PUSH1 0x20 CALLDATASIZE PUSH1 0x3 NOT ADD SLT PUSH2 0x172 JUMPI PUSH1 0x1 PUSH1 0x1 PUSH1 0xA0 SHL SUB PUSH2 0xA6B PUSH2 0x15C JUMP JUMPDEST AND PUSH1 0x0 MSTORE PUSH1 0x1 PUSH1 0x20 MSTORE PUSH1 0x20 PUSH1 0xFF PUSH1 0x4 PUSH1 0x40 PUSH1 0x0 KECCAK256 ADD SLOAD AND PUSH1 0x40 MLOAD SWAP1 ISZERO ISZERO DUP2 MSTORE RETURN JUMPDEST CALLVALUE PUSH2 0x172 JUMPI PUSH1 0x0 CALLDATASIZE PUSH1 0x3 NOT ADD SLT PUSH2 0x172 JUMPI PUSH1 0x20 PUSH1 0x3 SLOAD PUSH1 0x40 MLOAD SWAP1 DUP2 MSTORE RETURN JUMPDEST CALLVALUE PUSH2 0x172 JUMPI PUSH1 0x0 DUP1 PUSH1 0x3 NOT CALLDATASIZE ADD SLT PUSH2 0x842 JUMPI CALLER DUP2 MSTORE PUSH1 0x1 PUSH1 0x20 MSTORE PUSH1 0xFF PUSH1 0x4 PUSH1 0x40 DUP4 KECCAK256 ADD SLOAD AND PUSH2 0xB6B JUMPI CALLER PUSH1 0x0 SWAP1 DUP2 MSTORE PUSH1 0x1 PUSH1 0x20 MSTORE PUSH1 0x40 SWAP1 KECCAK256 PUSH2 0xAF1 SWAP1 PUSH1 0x3 ADD SLOAD ISZERO ISZERO PUSH2 0x10AE JUMP JUMPDEST CALLER PUSH1 0x0 SWAP1 DUP2 MSTORE PUSH1 0x1 PUSH1 0x20 MSTORE PUSH1 0x40 SWAP1 KECCAK256 PUSH2 0xB14 SWAP1 PUSH1 0x4 ADD DUP1 SLOAD PUSH1 0xFF NOT AND PUSH1 0x1 OR SWAP1 SSTORE JUMP JUMPDEST CALLER PUSH1 0x0 SWAP1 DUP2 MSTORE PUSH1 0x1 PUSH1 0x20 MSTORE PUSH1 0x40 SWAP1 KECCAK256 PUSH1 0x4 DUP2 ADD SLOAD PUSH32 0x26189CAE495D0D6186E014C260BCEAC02EA314E154AFCE1711C36BFC1EC2B07E SWAP1 PUSH2 0xB65 SWAP1 PUSH1 0x8 SHR PUSH1 0xFF AND SWAP3 PUSH1 0x40 MLOAD SWAP2 DUP3 SWAP2 CALLER SWAP6 TIMESTAMP SWAP2 DUP5 PUSH2 0x11C3 JUMP JUMPDEST SUB SWAP1 LOG2 DUP1 RETURN JUMPDEST PUSH1 0x40 MLOAD PUSH3 0x461BCD PUSH1 0xE5 SHL DUP2 MSTORE PUSH1 0x20 PUSH1 0x4 DUP3 ADD MSTORE PUSH1 0x14 PUSH1 0x24 DUP3 ADD MSTORE PUSH20 0x4167656E7420616C726561647920616374697665 PUSH1 0x60 SHL PUSH1 0x44 DUP3 ADD MSTORE PUSH1 0x64 SWAP1 REVERT JUMPDEST CALLVALUE PUSH2 0x172 JUMPI PUSH1 0x80 CALLDATASIZE PUSH1 0x3 NOT ADD SLT PUSH2 0x172 JUMPI PUSH8 0xFFFFFFFFFFFFFFFF PUSH1 0x4 CALLDATALOAD DUP2 DUP2 GT PUSH2 0x172 JUMPI PUSH2 0xBD9 SWAP1 CALLDATASIZE SWAP1 PUSH1 0x4 ADD PUSH2 0x227 JUMP JUMPDEST PUSH1 0x24 CALLDATALOAD DUP3 DUP2 GT PUSH2 0x172 JUMPI PUSH2 0xBF1 SWAP1 CALLDATASIZE SWAP1 PUSH1 0x4 ADD PUSH2 0x227 JUMP JUMPDEST PUSH1 0x44 CALLDATALOAD DUP4 DUP2 GT PUSH2 0x172 JUMPI PUSH2 0xC09 SWAP1 CALLDATASIZE SWAP1 PUSH1 0x4 ADD PUSH2 0x227 JUMP JUMPDEST SWAP1 PUSH1 0x64 CALLDATALOAD SWAP4 DUP5 GT PUSH2 0x172 JUMPI CALLDATASIZE PUSH1 0x23 DUP6 ADD SLT ISZERO PUSH2 0x172 JUMPI PUSH2 0xC36 PUSH2 0x627 SWAP5 CALLDATASIZE SWAP1 PUSH1 0x24 DUP2 PUSH1 0x4 ADD CALLDATALOAD SWAP2 ADD PUSH2 0x1E0 JUMP JUMPDEST SWAP3 PUSH2 0xF6D JUMP JUMPDEST CALLVALUE PUSH2 0x172 JUMPI PUSH1 0x0 DUP1 PUSH1 0x3 NOT CALLDATASIZE ADD SLT PUSH2 0x842 JUMPI CALLER DUP2 MSTORE PUSH1 0x1 PUSH1 0x20 MSTORE PUSH2 0xC69 PUSH1 0xFF PUSH1 0x4 PUSH1 0x40 DUP5 KECCAK256 ADD SLOAD AND PUSH2 0x106B JUMP JUMPDEST CALLER DUP2 MSTORE PUSH1 0x1 PUSH1 0x20 MSTORE PUSH1 0x4 PUSH1 0x40 DUP3 KECCAK256 ADD PUSH1 0xFF NOT DUP2 SLOAD AND SWAP1 SSTORE PUSH1 0x40 MLOAD TIMESTAMP DUP2 MSTORE PUSH32 0xF0A1214EF5AE8963B4589231F47CC936D51C90495DE03083C6551FF2F5120F48 PUSH1 0x20 CALLER SWAP3 LOG2 DUP1 RETURN JUMPDEST SWAP2 SWAP1 DUP3 MLOAD SWAP3 DUP4 DUP3 MSTORE PUSH1 0x0 JUMPDEST DUP5 DUP2 LT PUSH2 0xCDB JUMPI POP POP DUP3 PUSH1 0x0 PUSH1 0x20 DUP1 SWAP5 SWAP6 DUP5 ADD ADD MSTORE PUSH1 0x1F DUP1 NOT SWAP2 ADD AND ADD ADD SWAP1 JUMP JUMPDEST PUSH1 0x20 DUP2 DUP4 ADD DUP2 ADD MLOAD DUP5 DUP4 ADD DUP3 ADD MSTORE ADD PUSH2 0xCBA JUMP JUMPDEST PUSH1 0x20 DUP2 MSTORE DUP2 MLOAD PUSH2 0xD41 PUSH2 0xD10 PUSH2 0x1C0 SWAP3 DUP4 PUSH1 0x20 DUP7 ADD MSTORE PUSH2 0x1E0 DUP6 ADD SWAP1 PUSH2 0xCAF JUMP JUMPDEST PUSH2 0xD2C PUSH1 0x20 DUP7 ADD MLOAD SWAP2 PUSH1 0x1F NOT SWAP3 DUP4 DUP8 DUP4 SUB ADD PUSH1 0x40 DUP9 ADD MSTORE PUSH2 0xCAF JUMP JUMPDEST SWAP1 PUSH1 0x40 DUP7 ADD MLOAD SWAP1 DUP6 DUP4 SUB ADD PUSH1 0x60 DUP7 ADD MSTORE PUSH2 0xCAF JUMP JUMPDEST SWAP3 PUSH1 0x60 DUP2 ADD MLOAD PUSH1 0x80 DUP5 ADD MSTORE PUSH2 0xD5F PUSH1 0x80 DUP3 ADD MLOAD PUSH1 0xA0 DUP6 ADD SWAP1 ISZERO ISZERO SWAP1 MSTORE JUMP JUMPDEST PUSH1 0xA0 DUP2 ADD MLOAD ISZERO ISZERO PUSH1 0xC0 DUP5 ADD MSTORE PUSH1 0xC0 DUP2 ADD MLOAD PUSH1 0xE0 DUP5 ADD MSTORE PUSH1 0xE0 DUP2 ADD MLOAD PUSH2 0x100 SWAP1 DUP2 DUP6 ADD MSTORE DUP2 ADD MLOAD PUSH2 0x120 SWAP1 DUP2 DUP6 ADD MSTORE DUP2 ADD MLOAD PUSH2 0x140 SWAP1 DUP2 DUP6 ADD MSTORE DUP2 ADD MLOAD PUSH2 0x160 SWAP1 DUP2 DUP6 ADD MSTORE DUP2 ADD MLOAD PUSH2 0x180 SWAP1 DUP2 DUP6 ADD MSTORE DUP2 ADD MLOAD SWAP1 PUSH2 0x1A0 SWAP2 DUP3 DUP6 ADD MSTORE ADD MLOAD SWAP2 ADD MSTORE SWAP1 JUMP JUMPDEST CALLVALUE PUSH2 0x172 JUMPI PUSH1 0x20 CALLDATASIZE PUSH1 0x3 NOT ADD SLT PUSH2 0x172 JUMPI PUSH2 0xE74 PUSH2 0xE68 PUSH2 0xE63 PUSH2 0xDE4 PUSH2 0x15C JUMP JUMPDEST PUSH1 0x40 MLOAD PUSH2 0xDF0 DUP2 PUSH2 0x18D JUMP JUMPDEST PUSH1 0x60 DUP2 MSTORE PUSH1 0x60 PUSH1 0x20 DUP3 ADD MSTORE PUSH1 0x60 PUSH1 0x40 DUP3 ADD MSTORE PUSH2 0x1A0 PUSH1 0x0 SWAP2 DUP3 PUSH1 0x60 DUP3 ADD MSTORE DUP3 PUSH1 0x80 DUP3 ADD MSTORE DUP3 PUSH1 0xA0 DUP3 ADD MSTORE DUP3 PUSH1 0xC0 DUP3 ADD MSTORE DUP3 PUSH1 0xE0 DUP3 ADD MSTORE DUP3 PUSH2 0x100 DUP3 ADD MSTORE DUP3 PUSH2 0x120 DUP3 ADD MSTORE DUP3 PUSH2 0x140 DUP3 ADD MSTORE DUP3 PUSH2 0x160 DUP3 ADD MSTORE DUP3 PUSH2 0x180 DUP3 ADD MSTORE ADD MSTORE PUSH1 0x1 DUP1 PUSH1 0xA0 SHL SUB AND PUSH1 0x0 MSTORE PUSH1 0x1 PUSH1 0x20 MSTORE PUSH1 0x40 PUSH1 0x0 KECCAK256 SWAP1 JUMP JUMPDEST PUSH2 0x14A3 JUMP JUMPDEST PUSH1 0x40 MLOAD SWAP2 DUP3 SWAP2 DUP3 PUSH2 0xCEF JUMP JUMPDEST SUB SWAP1 RETURN JUMPDEST ISZERO PUSH2 0xE7F JUMPI JUMP JUMPDEST PUSH1 0x40 MLOAD PUSH3 0x461BCD PUSH1 0xE5 SHL DUP2 MSTORE PUSH1 0x20 PUSH1 0x4 DUP3 ADD MSTORE PUSH1 0x18 PUSH1 0x24 DUP3 ADD MSTORE PUSH32 0x4167656E7420616C726561647920726567697374657265640000000000000000 PUSH1 0x44 DUP3 ADD MSTORE PUSH1 0x64 SWAP1 REVERT JUMPDEST ISZERO PUSH2 0xECB JUMPI JUMP JUMPDEST PUSH1 0x40 MLOAD PUSH3 0x461BCD PUSH1 0xE5 SHL DUP2 MSTORE PUSH1 0x20 PUSH1 0x4 DUP3 ADD MSTORE PUSH1 0x14 PUSH1 0x24 DUP3 ADD MSTORE PUSH20 0x4E616D652063616E6E6F7420626520656D707479 PUSH1 0x60 SHL PUSH1 0x44 DUP3 ADD MSTORE PUSH1 0x64 SWAP1 REVERT JUMPDEST ISZERO PUSH2 0xF0E JUMPI JUMP JUMPDEST PUSH1 0x40 MLOAD PUSH3 0x461BCD PUSH1 0xE5 SHL DUP2 MSTORE PUSH1 0x20 PUSH1 0x4 DUP3 ADD MSTORE PUSH1 0x31 PUSH1 0x24 DUP3 ADD MSTORE PUSH32 0x4E6F7420617574686F72697A65643A2076616C69642072656769737472792073 PUSH1 0x44 DUP3 ADD MSTORE PUSH17 0x1A59DB985D1D5C99481C995C5D5A5C9959 PUSH1 0x7A SHL PUSH1 0x64 DUP3 ADD MSTORE PUSH1 0x84 SWAP1 REVERT JUMPDEST PUSH2 0x1065 PUSH2 0x1031 PUSH2 0x1DE SWAP6 CALLER PUSH1 0x0 MSTORE PUSH1 0x1 PUSH1 0x20 MSTORE PUSH2 0xF9D PUSH2 0xF98 PUSH1 0xFF PUSH1 0x4 PUSH1 0x40 PUSH1 0x0 KECCAK256 ADD SLOAD AND ISZERO ISZERO ISZERO SWAP1 JUMP JUMPDEST PUSH2 0xE78 JUMP JUMPDEST PUSH2 0xFA9 DUP5 MLOAD ISZERO ISZERO PUSH2 0xEC4 JUMP JUMPDEST PUSH1 0x40 MLOAD PUSH12 0xFFFFFFFFFFFFFFFFFFFFFFFF NOT CALLER PUSH1 0x60 SHL AND PUSH1 0x20 DUP3 ADD SWAP1 DUP2 MSTORE PUSH1 0x14 DUP3 MSTORE PUSH1 0x1F NOT SWAP2 PUSH2 0xFD9 PUSH1 0x34 DUP3 PUSH2 0x1AF JUMP JUMPDEST MLOAD SWAP1 KECCAK256 SWAP1 PUSH2 0x1029 PUSH1 0x40 MLOAD SWAP2 DUP3 PUSH2 0x101D PUSH1 0x20 DUP3 ADD SWAP6 DUP7 PUSH1 0x3C SWAP2 PUSH32 0x19457468657265756D205369676E6564204D6573736167653A0A333200000000 DUP3 MSTORE PUSH1 0x1C DUP3 ADD MSTORE ADD SWAP1 JUMP JUMPDEST SUB SWAP1 DUP2 ADD DUP4 MSTORE DUP3 PUSH2 0x1AF JUMP JUMPDEST MLOAD SWAP1 KECCAK256 PUSH2 0x1A09 JUMP JUMPDEST PUSH32 0x0 PUSH1 0x1 PUSH1 0x1 PUSH1 0xA0 SHL SUB SWAP1 DUP2 AND SWAP2 AND EQ PUSH2 0xF07 JUMP JUMPDEST CALLER PUSH2 0x190A JUMP JUMPDEST ISZERO PUSH2 0x1072 JUMPI JUMP JUMPDEST PUSH1 0x40 MLOAD PUSH3 0x461BCD PUSH1 0xE5 SHL DUP2 MSTORE PUSH1 0x20 PUSH1 0x4 DUP3 ADD MSTORE PUSH1 0x14 PUSH1 0x24 DUP3 ADD MSTORE PUSH20 0x1059D95B9D081B9BDD081C9959DA5CDD195C9959 PUSH1 0x62 SHL PUSH1 0x44 DUP3 ADD MSTORE PUSH1 0x64 SWAP1 REVERT JUMPDEST ISZERO PUSH2 0x10B5 JUMPI JUMP JUMPDEST PUSH1 0x40 MLOAD PUSH3 0x461BCD PUSH1 0xE5 SHL DUP2 MSTORE PUSH1 0x20 PUSH1 0x4 DUP3 ADD MSTORE PUSH1 0x16 PUSH1 0x24 DUP3 ADD MSTORE PUSH22 0x1059D95B9D081B995D995C881C9959DA5CDD195C9959 PUSH1 0x52 SHL PUSH1 0x44 DUP3 ADD MSTORE PUSH1 0x64 SWAP1 REVERT JUMPDEST SWAP1 PUSH1 0x1 DUP3 DUP2 SHR SWAP3 AND DUP1 ISZERO PUSH2 0x1123 JUMPI JUMPDEST PUSH1 0x20 DUP4 LT EQ PUSH2 0x110D JUMPI JUMP JUMPDEST PUSH4 0x4E487B71 PUSH1 0xE0 SHL PUSH1 0x0 MSTORE PUSH1 0x22 PUSH1 0x4 MSTORE PUSH1 0x24 PUSH1 0x0 REVERT JUMPDEST SWAP2 PUSH1 0x7F AND SWAP2 PUSH2 0x1102 JUMP JUMPDEST SWAP1 PUSH1 0x0 SWAP3 SWAP2 DUP1 SLOAD SWAP2 PUSH2 0x113E DUP4 PUSH2 0x10F3 JUMP JUMPDEST SWAP2 DUP3 DUP3 MSTORE PUSH1 0x1 SWAP4 DUP5 DUP2 AND SWAP1 DUP2 PUSH1 0x0 EQ PUSH2 0x11A0 JUMPI POP PUSH1 0x1 EQ PUSH2 0x1160 JUMPI JUMPDEST POP POP POP POP JUMP JUMPDEST SWAP1 SWAP2 SWAP4 SWAP5 POP PUSH1 0x0 MSTORE PUSH1 0x20 SWAP3 DUP4 PUSH1 0x0 KECCAK256 SWAP3 DUP5 PUSH1 0x0 SWAP5 JUMPDEST DUP4 DUP7 LT PUSH2 0x118C JUMPI POP POP POP POP ADD ADD SWAP1 CODESIZE DUP1 DUP1 DUP1 PUSH2 0x115A JUMP JUMPDEST DUP1 SLOAD DUP6 DUP8 ADD DUP4 ADD MSTORE SWAP5 ADD SWAP4 DUP6 SWAP1 DUP3 ADD PUSH2 0x1175 JUMP JUMPDEST SWAP3 SWAP5 POP POP POP PUSH1 0x20 SWAP4 SWAP5 POP PUSH1 0xFF NOT AND DUP4 DUP4 ADD MSTORE ISZERO ISZERO PUSH1 0x5 SHL ADD ADD SWAP1 CODESIZE DUP1 DUP1 DUP1 PUSH2 0x115A JUMP JUMPDEST PUSH2 0x11DB PUSH1 0x40 SWAP3 SWAP6 SWAP5 SWAP4 SWAP6 PUSH1 0x60 DUP4 MSTORE PUSH1 0x60 DUP4 ADD SWAP1 PUSH2 0x112D JUMP JUMPDEST SWAP5 ISZERO ISZERO PUSH1 0x20 DUP3 ADD MSTORE ADD MSTORE JUMP JUMPDEST ISZERO PUSH2 0x11EE JUMPI JUMP JUMPDEST PUSH1 0x40 MLOAD PUSH3 0x461BCD PUSH1 0xE5 SHL DUP2 MSTORE PUSH1 0x20 PUSH1 0x4 DUP3 ADD MSTORE PUSH1 0x19 PUSH1 0x24 DUP3 ADD MSTORE PUSH32 0x4F6E6C79206D61726B6574706C61636520636F6E747261637400000000000000 PUSH1 0x44 DUP3 ADD MSTORE PUSH1 0x64 SWAP1 REVERT JUMPDEST PUSH4 0x4E487B71 PUSH1 0xE0 SHL PUSH1 0x0 MSTORE PUSH1 0x11 PUSH1 0x4 MSTORE PUSH1 0x24 PUSH1 0x0 REVERT JUMPDEST PUSH1 0x0 NOT DUP2 EQ PUSH2 0x1258 JUMPI PUSH1 0x1 ADD SWAP1 JUMP JUMPDEST PUSH2 0x1233 JUMP JUMPDEST SWAP1 PUSH1 0x1 DUP3 ADD DUP1 SWAP3 GT PUSH2 0x1258 JUMPI JUMP JUMPDEST SWAP2 SWAP1 DUP3 ADD DUP1 SWAP3 GT PUSH2 0x1258 JUMPI JUMP JUMPDEST SWAP1 PUSH1 0xA DUP3 MUL SWAP2 DUP1 DUP4 DIV PUSH1 0xA EQ SWAP1 ISZERO OR ISZERO PUSH2 0x1258 JUMPI JUMP JUMPDEST DUP2 DUP2 MUL SWAP3 SWAP2 DUP2 ISZERO SWAP2 DUP5 DIV EQ OR ISZERO PUSH2 0x1258 JUMPI JUMP JUMPDEST DUP2 ISZERO PUSH2 0x12AB JUMPI DIV SWAP1 JUMP JUMPDEST PUSH4 0x4E487B71 PUSH1 0xE0 SHL PUSH1 0x0 MSTORE PUSH1 0x12 PUSH1 0x4 MSTORE PUSH1 0x24 PUSH1 0x0 REVERT JUMPDEST ISZERO PUSH2 0x12C8 JUMPI JUMP JUMPDEST PUSH1 0x40 MLOAD PUSH3 0x461BCD PUSH1 0xE5 SHL DUP2 MSTORE PUSH1 0x20 PUSH1 0x4 DUP3 ADD MSTORE PUSH1 0x15 PUSH1 0x24 DUP3 ADD MSTORE PUSH21 0x10DB1A595B9D081B9BDD081C9959DA5CDD195C9959 PUSH1 0x5A SHL PUSH1 0x44 DUP3 ADD MSTORE PUSH1 0x64 SWAP1 REVERT JUMPDEST ISZERO PUSH2 0x130C JUMPI JUMP JUMPDEST PUSH1 0x40 MLOAD PUSH3 0x461BCD PUSH1 0xE5 SHL DUP2 MSTORE PUSH1 0x20 PUSH1 0x4 DUP3 ADD MSTORE PUSH1 0x1B PUSH1 0x24 DUP3 ADD MSTORE PUSH32 0x5265706F72746572206D75737420626520726567697374657265640000000000 PUSH1 0x44 DUP3 ADD MSTORE PUSH1 0x64 SWAP1 REVERT JUMPDEST ISZERO PUSH2 0x1358 JUMPI JUMP JUMPDEST PUSH1 0x40 MLOAD PUSH3 0x461BCD PUSH1 0xE5 SHL DUP2 MSTORE PUSH1 0x20 PUSH1 0x4 DUP3 ADD MSTORE PUSH1 0x19 PUSH1 0x24 DUP3 ADD MSTORE PUSH32 0x546172676574206D757374206265207265676973746572656400000000000000 PUSH1 0x44 DUP3 ADD MSTORE PUSH1 0x64 SWAP1 REVERT JUMPDEST ISZERO PUSH2 0x13A4 JUMPI JUMP JUMPDEST PUSH1 0x40 MLOAD PUSH3 0x461BCD PUSH1 0xE5 SHL DUP2 MSTORE PUSH1 0x20 PUSH1 0x4 DUP3 ADD MSTORE PUSH1 0x16 PUSH1 0x24 DUP3 ADD MSTORE PUSH22 0x21B0B73737BA103932B837B93A103CB7BAB939B2B633 PUSH1 0x51 SHL PUSH1 0x44 DUP3 ADD MSTORE PUSH1 0x64 SWAP1 REVERT JUMPDEST ISZERO PUSH2 0x13E9 JUMPI JUMP JUMPDEST PUSH1 0x40 MLOAD PUSH3 0x461BCD PUSH1 0xE5 SHL DUP2 MSTORE PUSH1 0x20 PUSH1 0x4 DUP3 ADD MSTORE PUSH1 0x1B PUSH1 0x24 DUP3 ADD MSTORE PUSH32 0x416C7265616479207265706F727465642074686973206167656E740000000000 PUSH1 0x44 DUP3 ADD MSTORE PUSH1 0x64 SWAP1 REVERT JUMPDEST ISZERO PUSH2 0x1435 JUMPI JUMP JUMPDEST PUSH1 0x40 MLOAD PUSH3 0x461BCD PUSH1 0xE5 SHL DUP2 MSTORE PUSH1 0x20 PUSH1 0x4 DUP3 ADD MSTORE PUSH1 0xF PUSH1 0x24 DUP3 ADD MSTORE PUSH15 0x1499585CDBDB881C995C5D5A5C9959 PUSH1 0x8A SHL PUSH1 0x44 DUP3 ADD MSTORE PUSH1 0x64 SWAP1 REVERT JUMPDEST SWAP3 SWAP2 SWAP1 PUSH2 0x1483 PUSH1 0x20 SWAP2 PUSH1 0x40 DUP7 MSTORE PUSH1 0x40 DUP7 ADD SWAP1 PUSH2 0xCAF JUMP JUMPDEST SWAP4 ADD MSTORE JUMP JUMPDEST SWAP1 PUSH2 0x1DE PUSH2 0x149C SWAP3 PUSH1 0x40 MLOAD SWAP4 DUP5 DUP1 SWAP3 PUSH2 0x112D JUMP JUMPDEST SUB DUP4 PUSH2 0x1AF JUMP JUMPDEST SWAP1 PUSH1 0xC PUSH2 0x14AE PUSH2 0x1D1 JUMP JUMPDEST SWAP3 PUSH2 0x14B8 DUP2 PUSH2 0x1488 JUMP JUMPDEST DUP5 MSTORE PUSH2 0x14C6 PUSH1 0x1 DUP3 ADD PUSH2 0x1488 JUMP JUMPDEST PUSH1 0x20 DUP6 ADD MSTORE PUSH2 0x14D7 PUSH1 0x2 DUP3 ADD PUSH2 0x1488 JUMP JUMPDEST PUSH1 0x40 DUP6 ADD MSTORE PUSH1 0x3 DUP2 ADD SLOAD PUSH1 0x60 DUP6 ADD MSTORE PUSH1 0x4 DUP2 ADD SLOAD PUSH1 0xFF DUP2 DUP2 AND ISZERO ISZERO PUSH1 0x80 DUP8 ADD MSTORE PUSH2 0x1508 SWAP2 PUSH1 0x8 SHR AND ISZERO ISZERO PUSH1 0xA0 DUP7 ADD MSTORE JUMP JUMPDEST PUSH1 0x5 DUP2 ADD SLOAD PUSH1 0xC0 DUP6 ADD MSTORE PUSH1 0x6 DUP2 ADD SLOAD PUSH1 0xE0 DUP6 ADD MSTORE PUSH1 0x7 DUP2 ADD SLOAD PUSH2 0x100 DUP6 ADD MSTORE PUSH1 0x8 DUP2 ADD SLOAD PUSH2 0x120 DUP6 ADD MSTORE PUSH1 0x9 DUP2 ADD SLOAD PUSH2 0x140 DUP6 ADD MSTORE PUSH1 0xA DUP2 ADD SLOAD PUSH2 0x160 DUP6 ADD MSTORE PUSH1 0xB DUP2 ADD SLOAD PUSH2 0x180 DUP6 ADD MSTORE ADD SLOAD PUSH2 0x1A0 DUP4 ADD MSTORE JUMP JUMPDEST SWAP1 PUSH1 0x1F DUP2 GT PUSH2 0x156B JUMPI POP POP POP JUMP JUMPDEST PUSH1 0x0 SWAP2 DUP3 MSTORE PUSH1 0x20 DUP3 KECCAK256 SWAP1 PUSH1 0x20 PUSH1 0x1F DUP6 ADD PUSH1 0x5 SHR DUP4 ADD SWAP5 LT PUSH2 0x15A7 JUMPI JUMPDEST PUSH1 0x1F ADD PUSH1 0x5 SHR ADD SWAP2 JUMPDEST DUP3 DUP2 LT PUSH2 0x159C JUMPI POP POP POP JUMP JUMPDEST DUP2 DUP2 SSTORE PUSH1 0x1 ADD PUSH2 0x1590 JUMP JUMPDEST SWAP1 SWAP3 POP DUP3 SWAP1 PUSH2 0x1587 JUMP JUMPDEST SWAP2 SWAP1 SWAP2 DUP3 MLOAD PUSH8 0xFFFFFFFFFFFFFFFF DUP2 GT PUSH2 0x1AA JUMPI PUSH2 0x15D9 DUP2 PUSH2 0x15D3 DUP5 SLOAD PUSH2 0x10F3 JUMP JUMPDEST DUP5 PUSH2 0x155D JUMP JUMPDEST PUSH1 0x20 DUP1 PUSH1 0x1F DUP4 GT PUSH1 0x1 EQ PUSH2 0x1615 JUMPI POP DUP2 SWAP3 SWAP4 SWAP5 PUSH1 0x0 SWAP3 PUSH2 0x160A JUMPI JUMPDEST POP POP DUP2 PUSH1 0x1 SHL SWAP2 PUSH1 0x0 NOT SWAP1 PUSH1 0x3 SHL SHR NOT AND OR SWAP1 SSTORE JUMP JUMPDEST ADD MLOAD SWAP1 POP CODESIZE DUP1 PUSH2 0x15F4 JUMP JUMPDEST SWAP1 PUSH1 0x1F NOT DUP4 AND SWAP6 PUSH2 0x162B DUP6 PUSH1 0x0 MSTORE PUSH1 0x20 PUSH1 0x0 KECCAK256 SWAP1 JUMP JUMPDEST SWAP3 PUSH1 0x0 SWAP1 JUMPDEST DUP9 DUP3 LT PUSH2 0x1668 JUMPI POP POP DUP4 PUSH1 0x1 SWAP6 SWAP7 SWAP8 LT PUSH2 0x164F JUMPI JUMPDEST POP POP POP DUP2 SHL ADD SWAP1 SSTORE JUMP JUMPDEST ADD MLOAD PUSH1 0x0 NOT PUSH1 0xF8 DUP5 PUSH1 0x3 SHL AND SHR NOT AND SWAP1 SSTORE CODESIZE DUP1 DUP1 PUSH2 0x1645 JUMP JUMPDEST DUP1 PUSH1 0x1 DUP6 SWAP7 DUP3 SWAP5 SWAP7 DUP7 ADD MLOAD DUP2 SSTORE ADD SWAP6 ADD SWAP4 ADD SWAP1 PUSH2 0x1630 JUMP JUMPDEST SWAP1 PUSH2 0x1A0 PUSH1 0xC SWAP2 PUSH2 0x1692 DUP2 MLOAD DUP6 PUSH2 0x15B1 JUMP JUMPDEST PUSH2 0x16A3 PUSH1 0x20 DUP3 ADD MLOAD PUSH1 0x1 DUP7 ADD PUSH2 0x15B1 JUMP JUMPDEST PUSH2 0x16B4 PUSH1 0x40 DUP3 ADD MLOAD PUSH1 0x2 DUP7 ADD PUSH2 0x15B1 JUMP JUMPDEST PUSH1 0x60 DUP2 ADD MLOAD PUSH1 0x3 DUP6 ADD SSTORE PUSH2 0x1704 PUSH1 0x4 DUP6 ADD PUSH2 0x16E7 PUSH2 0x16D5 PUSH1 0x80 DUP6 ADD MLOAD ISZERO ISZERO SWAP1 JUMP JUMPDEST DUP3 SWAP1 PUSH1 0xFF DUP1 NOT DUP4 SLOAD AND SWAP2 ISZERO ISZERO AND OR SWAP1 SSTORE JUMP JUMPDEST PUSH1 0xA0 DUP4 ADD MLOAD ISZERO ISZERO DUP2 SLOAD PUSH2 0xFF00 NOT AND SWAP1 ISZERO ISZERO PUSH1 0x8 SHL PUSH2 0xFF00 AND OR SWAP1 SSTORE JUMP JUMPDEST PUSH1 0xC0 DUP2 ADD MLOAD PUSH1 0x5 DUP6 ADD SSTORE PUSH1 0xE0 DUP2 ADD MLOAD PUSH1 0x6 DUP6 ADD SSTORE PUSH2 0x100 DUP2 ADD MLOAD PUSH1 0x7 DUP6 ADD SSTORE PUSH2 0x120 DUP2 ADD MLOAD PUSH1 0x8 DUP6 ADD SSTORE PUSH2 0x140 DUP2 ADD MLOAD PUSH1 0x9 DUP6 ADD SSTORE PUSH2 0x160 DUP2 ADD MLOAD PUSH1 0xA DUP6 ADD SSTORE PUSH2 0x180 DUP2 ADD MLOAD PUSH1 0xB DUP6 ADD SSTORE ADD MLOAD SWAP2 ADD SSTORE JUMP JUMPDEST PUSH1 0x4 SLOAD PUSH9 0x10000000000000000 DUP2 LT ISZERO PUSH2 0x1AA JUMPI PUSH1 0x1 DUP2 ADD DUP1 PUSH1 0x4 SSTORE DUP2 LT ISZERO PUSH2 0x17BF JUMPI PUSH1 0x4 PUSH1 0x0 MSTORE PUSH32 0x8A35ACFBC15FF81A39AE7D344FD709F28E8600B4AA8C65C6B64BFE7FE36BD19B ADD DUP1 SLOAD PUSH1 0x1 PUSH1 0x1 PUSH1 0xA0 SHL SUB NOT AND PUSH1 0x1 PUSH1 0x1 PUSH1 0xA0 SHL SUB SWAP1 SWAP3 AND SWAP2 SWAP1 SWAP2 OR SWAP1 SSTORE JUMP JUMPDEST PUSH4 0x4E487B71 PUSH1 0xE0 SHL PUSH1 0x0 MSTORE PUSH1 0x32 PUSH1 0x4 MSTORE PUSH1 0x24 PUSH1 0x0 REVERT JUMPDEST SWAP3 SWAP2 SWAP1 PUSH2 0x17EC PUSH1 0x40 SWAP2 PUSH1 0x60 DUP7 MSTORE PUSH1 0x60 DUP7 ADD SWAP1 PUSH2 0xCAF JUMP JUMPDEST SWAP4 PUSH1 0x0 PUSH1 0x20 DUP3 ADD MSTORE ADD MSTORE JUMP JUMPDEST SWAP3 SWAP2 SWAP1 PUSH2 0x180F PUSH1 0x40 SWAP2 PUSH1 0x60 DUP7 MSTORE PUSH1 0x60 DUP7 ADD SWAP1 PUSH2 0xCAF JUMP JUMPDEST SWAP4 PUSH1 0x1 PUSH1 0x20 DUP3 ADD MSTORE ADD MSTORE JUMP JUMPDEST PUSH2 0x18CE PUSH32 0x26189CAE495D0D6186E014C260BCEAC02EA314E154AFCE1711C36BFC1EC2B07E SWAP4 PUSH2 0x1905 SWAP4 SWAP6 PUSH2 0x184D PUSH2 0x1D1 JUMP JUMPDEST SWAP2 DUP8 DUP4 MSTORE PUSH1 0x20 DUP4 ADD MSTORE PUSH1 0x40 DUP3 ADD MSTORE TIMESTAMP PUSH1 0x60 DUP3 ADD MSTORE PUSH2 0x186E PUSH1 0x80 DUP3 ADD PUSH1 0x1 SWAP1 MSTORE JUMP JUMPDEST PUSH1 0x0 DUP1 PUSH1 0xA0 DUP4 ADD MSTORE DUP1 PUSH1 0xC0 DUP4 ADD MSTORE DUP1 PUSH1 0xE0 DUP4 ADD MSTORE DUP1 PUSH2 0x100 DUP4 ADD MSTORE PUSH2 0x1F4 DUP1 PUSH2 0x120 DUP5 ADD MSTORE DUP2 PUSH2 0x140 DUP5 ADD MSTORE PUSH2 0x160 DUP4 ADD MSTORE DUP1 PUSH2 0x180 DUP4 ADD MSTORE PUSH2 0x1A0 DUP3 ADD MSTORE PUSH2 0x18C9 DUP4 PUSH1 0x1 DUP1 PUSH1 0xA0 SHL SUB AND PUSH1 0x0 MSTORE PUSH1 0x1 PUSH1 0x20 MSTORE PUSH1 0x40 PUSH1 0x0 KECCAK256 SWAP1 JUMP JUMPDEST PUSH2 0x1680 JUMP JUMPDEST PUSH2 0x18D7 DUP2 PUSH2 0x1756 JUMP JUMPDEST PUSH2 0x18EA PUSH2 0x18E5 PUSH1 0x3 SLOAD PUSH2 0x1249 JUMP JUMPDEST PUSH1 0x3 SSTORE JUMP JUMPDEST PUSH1 0x40 MLOAD PUSH1 0x1 PUSH1 0x1 PUSH1 0xA0 SHL SUB SWAP1 SWAP2 AND SWAP4 SWAP1 SWAP2 DUP3 SWAP2 TIMESTAMP SWAP1 DUP4 PUSH2 0x17D5 JUMP JUMPDEST SUB SWAP1 LOG2 JUMP JUMPDEST PUSH2 0x19B9 PUSH32 0x26189CAE495D0D6186E014C260BCEAC02EA314E154AFCE1711C36BFC1EC2B07E SWAP4 PUSH2 0x1905 SWAP4 SWAP6 PUSH2 0x193C PUSH2 0x1D1 JUMP JUMPDEST SWAP2 DUP8 DUP4 MSTORE PUSH1 0x20 DUP4 ADD MSTORE PUSH1 0x40 DUP3 ADD MSTORE TIMESTAMP PUSH1 0x60 DUP3 ADD MSTORE PUSH2 0x195D PUSH1 0x80 DUP3 ADD PUSH1 0x1 SWAP1 MSTORE JUMP JUMPDEST PUSH1 0x1 PUSH1 0xA0 DUP3 ADD MSTORE PUSH1 0x0 DUP1 PUSH1 0xC0 DUP4 ADD MSTORE DUP1 PUSH1 0xE0 DUP4 ADD MSTORE DUP1 PUSH2 0x100 DUP4 ADD MSTORE PUSH2 0x1F4 DUP1 PUSH2 0x120 DUP5 ADD MSTORE DUP2 PUSH2 0x140 DUP5 ADD MSTORE PUSH2 0x160 DUP4 ADD MSTORE DUP1 PUSH2 0x180 DUP4 ADD MSTORE PUSH2 0x1A0 DUP3 ADD MSTORE PUSH2 0x18C9 DUP4 PUSH1 0x1 DUP1 PUSH1 0xA0 SHL SUB AND PUSH1 0x0 MSTORE PUSH1 0x1 PUSH1 0x20 MSTORE PUSH1 0x40 PUSH1 0x0 KECCAK256 SWAP1 JUMP JUMPDEST PUSH2 0x19C2 DUP2 PUSH2 0x1756 JUMP JUMPDEST PUSH2 0x19D0 PUSH2 0x18E5 PUSH1 0x3 SLOAD PUSH2 0x1249 JUMP JUMPDEST PUSH1 0x40 MLOAD PUSH1 0x1 PUSH1 0x1 PUSH1 0xA0 SHL SUB SWAP1 SWAP2 AND SWAP4 SWAP1 SWAP2 DUP3 SWAP2 TIMESTAMP SWAP1 DUP4 PUSH2 0x17F8 JUMP JUMPDEST PUSH1 0xFF PUSH1 0x1B SWAP2 AND ADD SWAP1 PUSH1 0xFF DUP3 GT PUSH2 0x1258 JUMPI JUMP JUMPDEST PUSH1 0x40 MLOAD RETURNDATASIZE PUSH1 0x0 DUP3 RETURNDATACOPY RETURNDATASIZE SWAP1 REVERT JUMPDEST PUSH1 0x41 DUP3 MLOAD SUB PUSH2 0x1A90 JUMPI PUSH1 0x20 SWAP2 PUSH1 0x0 SWAP2 DUP3 SWAP2 DUP5 DUP2 ADD MLOAD SWAP3 PUSH1 0x60 PUSH1 0x40 DUP4 ADD MLOAD SWAP3 ADD MLOAD SWAP1 BYTE SWAP3 PUSH1 0x1B DUP5 LT PUSH2 0x1A79 JUMPI JUMPDEST SWAP1 PUSH2 0x1A60 SWAP2 PUSH1 0x40 MLOAD SWAP5 DUP6 SWAP5 DUP6 SWAP1 SWAP5 SWAP4 SWAP3 PUSH1 0xFF PUSH1 0x60 SWAP4 PUSH1 0x80 DUP5 ADD SWAP8 DUP5 MSTORE AND PUSH1 0x20 DUP4 ADD MSTORE PUSH1 0x40 DUP3 ADD MSTORE ADD MSTORE JUMP JUMPDEST DUP4 DUP1 MSTORE SUB SWAP1 PUSH1 0x1 GAS STATICCALL ISZERO PUSH2 0x1A74 JUMPI PUSH1 0x0 MLOAD SWAP1 JUMP JUMPDEST PUSH2 0x19FD JUMP JUMPDEST SWAP3 SWAP1 PUSH2 0x1A87 PUSH2 0x1A60 SWAP3 PUSH2 0x19EB JUMP JUMPDEST SWAP4 SWAP1 SWAP2 POP PUSH2 0x1A35 JUMP JUMPDEST PUSH1 0x40 MLOAD PUSH3 0x461BCD PUSH1 0xE5 SHL DUP2 MSTORE PUSH1 0x20 PUSH1 0x4 DUP3 ADD MSTORE PUSH1 0x18 PUSH1 0x24 DUP3 ADD MSTORE PUSH32 0x496E76616C6964207369676E6174757265206C656E6774680000000000000000 PUSH1 0x44 DUP3 ADD MSTORE PUSH1 0x64 SWAP1 REVERT INVALID LOG2 PUSH5 0x6970667358 0x22 SLT KECCAK256 0x4B LOG3 0xD3 JUMPI PUSH21 0xA4EFD60BF1BD8517F85A2AB5B5E111DFA5FFB1D711 0xC6 0xE8 SHR 0xB6 0xAB GT PUSH5 0x736F6C6343 STOP ADDMOD EQ STOP CALLER "},"methodIdentifiers":{"agentList(uint256)":"2f80c54f","getAgent(address)":"fb3551ff","getAllAgents()":"860e4ac6","getClientScore(address)":"ab27e6a4","getReportCount(address)":"9e22a893","hasReported(address,address)":"58aa1c43","isRegistered(address)":"c3c5a547","isVerified(address)":"b9209e33","isWarned(address)":"7d20fce9","marketplace()":"abc8c7af","reactivate()":"d18611d6","register(string,string,string)":"4cd08d03","registerVerified(string,string,string,bytes)":"df8da49c","registryAuthority()":"b0f94e1a","reportAgent(address,string)":"22fcf488","setMarketplace(address)":"73ad6c2d","totalAgents()":"c5053712","unregister()":"e79a198f","updateAgentStats(address,uint256,uint256,bool)":"42e20719","updateClientStats(address,uint256)":"bc6e44b7"}}}}}