{
  "_format": "hh-sol-artifact-1",
  "contractName": "AgentMarketplace",
  "sourceName": "contracts/AgentMarketplace.sol",
  "abi": [
    {
      "inputs": [
        {
          "internalType": "address",
          "name": "_identityContract",
          "type": "address"
        }
      ],
      "stateMutability": "nonpayable",
      "type": "constructor"
    },
    {
      "anonymous": false,
      "inputs": [
        {
          "indexed": true,
          "internalType": "uint256",
          "name": "jobId",
          "type": "uint256"
        },
        {
          "indexed": true,
          "internalType": "uint256",
          "name": "bidId",
          "type": "uint256"
        },
        {
          "indexed": true,
          "internalType": "address",
          "name": "worker",
          "type": "address"
        },
        {
          "indexed": false,
          "internalType": "uint256",
          "name": "timestamp",
          "type": "uint256"
        }
      ],
      "name": "BidAccepted",
      "type": "event"
    },
    {
      "anonymous": false,
      "inputs": [
        {
          "indexed": true,
          "internalType": "uint256",
          "name": "bidId",
          "type": "uint256"
        },
        {
          "indexed": true,
          "internalType": "uint256",
          "name": "jobId",
          "type": "uint256"
        },
        {
          "indexed": true,
          "internalType": "address",
          "name": "bidder",
          "type": "address"
        },
        {
          "indexed": false,
          "internalType": "uint256",
          "name": "price",
          "type": "uint256"
        },
        {
          "indexed": false,
          "internalType": "bytes32",
          "name": "bidHash",
          "type": "bytes32"
        },
        {
          "indexed": false,
          "internalType": "uint256",
          "name": "timestamp",
          "type": "uint256"
        }
      ],
      "name": "BidSubmitted",
      "type": "event"
    },
    {
      "anonymous": false,
      "inputs": [
        {
          "indexed": true,
          "internalType": "uint256",
          "name": "jobId",
          "type": "uint256"
        },
        {
          "indexed": true,
          "internalType": "address",
          "name": "poster",
          "type": "address"
        },
        {
          "indexed": true,
          "internalType": "address",
          "name": "worker",
          "type": "address"
        },
        {
          "indexed": false,
          "internalType": "uint8",
          "name": "rating",
          "type": "uint8"
        },
        {
          "indexed": false,
          "internalType": "uint256",
          "name": "timestamp",
          "type": "uint256"
        }
      ],
      "name": "ClientRatedByWorker",
      "type": "event"
    },
    {
      "anonymous": false,
      "inputs": [
        {
          "indexed": true,
          "internalType": "uint256",
          "name": "jobId",
          "type": "uint256"
        },
        {
          "indexed": true,
          "internalType": "address",
          "name": "worker",
          "type": "address"
        },
        {
          "indexed": false,
          "internalType": "bytes32",
          "name": "deliverableHash",
          "type": "bytes32"
        },
        {
          "indexed": false,
          "internalType": "uint256",
          "name": "timestamp",
          "type": "uint256"
        }
      ],
      "name": "DeliverySubmitted",
      "type": "event"
    },
    {
      "anonymous": false,
      "inputs": [
        {
          "indexed": true,
          "internalType": "uint256",
          "name": "jobId",
          "type": "uint256"
        },
        {
          "indexed": false,
          "internalType": "uint256",
          "name": "timestamp",
          "type": "uint256"
        }
      ],
      "name": "JobCancelled",
      "type": "event"
    },
    {
      "anonymous": false,
      "inputs": [
        {
          "indexed": true,
          "internalType": "uint256",
          "name": "jobId",
          "type": "uint256"
        },
        {
          "indexed": true,
          "internalType": "address",
          "name": "worker",
          "type": "address"
        },
        {
          "indexed": false,
          "internalType": "uint256",
          "name": "timestamp",
          "type": "uint256"
        }
      ],
      "name": "JobFailedTimeout",
      "type": "event"
    },
    {
      "anonymous": false,
      "inputs": [
        {
          "indexed": true,
          "internalType": "uint256",
          "name": "jobId",
          "type": "uint256"
        },
        {
          "indexed": true,
          "internalType": "address",
          "name": "worker",
          "type": "address"
        },
        {
          "indexed": false,
          "internalType": "bool",
          "name": "success",
          "type": "bool"
        },
        {
          "indexed": false,
          "internalType": "uint8",
          "name": "rating",
          "type": "uint8"
        },
        {
          "indexed": false,
          "internalType": "uint256",
          "name": "payment",
          "type": "uint256"
        },
        {
          "indexed": false,
          "internalType": "bytes32",
          "name": "evidenceHash",
          "type": "bytes32"
        },
        {
          "indexed": false,
          "internalType": "uint256",
          "name": "timestamp",
          "type": "uint256"
        }
      ],
      "name": "JobFinalized",
      "type": "event"
    },
    {
      "anonymous": false,
      "inputs": [
        {
          "indexed": true,
          "internalType": "uint256",
          "name": "jobId",
          "type": "uint256"
        },
        {
          "indexed": true,
          "internalType": "address",
          "name": "poster",
          "type": "address"
        },
        {
          "indexed": false,
          "internalType": "bytes32",
          "name": "descriptionHash",
          "type": "bytes32"
        },
        {
          "indexed": false,
          "internalType": "uint256",
          "name": "escrowAmount",
          "type": "uint256"
        },
        {
          "indexed": false,
          "internalType": "uint256",
          "name": "deadline",
          "type": "uint256"
        },
        {
          "indexed": false,
          "internalType": "uint256",
          "name": "timestamp",
          "type": "uint256"
        }
      ],
      "name": "JobPosted",
      "type": "event"
    },
    {
      "inputs": [],
      "name": "MAX_DEADLINE",
      "outputs": [
        {
          "internalType": "uint256",
          "name": "",
          "type": "uint256"
        }
      ],
      "stateMutability": "view",
      "type": "function"
    },
    {
      "inputs": [],
      "name": "MIN_DEADLINE",
      "outputs": [
        {
          "internalType": "uint256",
          "name": "",
          "type": "uint256"
        }
      ],
      "stateMutability": "view",
      "type": "function"
    },
    {
      "inputs": [
        {
          "internalType": "uint256",
          "name": "jobId",
          "type": "uint256"
        },
        {
          "internalType": "uint256",
          "name": "bidId",
          "type": "uint256"
        }
      ],
      "name": "acceptBid",
      "outputs": [],
      "stateMutability": "nonpayable",
      "type": "function"
    },
    {
      "inputs": [],
      "name": "bidCounter",
      "outputs": [
        {
          "internalType": "uint256",
          "name": "",
          "type": "uint256"
        }
      ],
      "stateMutability": "view",
      "type": "function"
    },
    {
      "inputs": [
        {
          "internalType": "uint256",
          "name": "jobId",
          "type": "uint256"
        },
        {
          "internalType": "uint256",
          "name": "price",
          "type": "uint256"
        },
        {
          "internalType": "bytes32",
          "name": "bidHash",
          "type": "bytes32"
        }
      ],
      "name": "bidOnJob",
      "outputs": [],
      "stateMutability": "nonpayable",
      "type": "function"
    },
    {
      "inputs": [
        {
          "internalType": "uint256",
          "name": "",
          "type": "uint256"
        }
      ],
      "name": "bids",
      "outputs": [
        {
          "internalType": "uint256",
          "name": "id",
          "type": "uint256"
        },
        {
          "internalType": "uint256",
          "name": "jobId",
          "type": "uint256"
        },
        {
          "internalType": "address",
          "name": "bidder",
          "type": "address"
        },
        {
          "internalType": "uint256",
          "name": "price",
          "type": "uint256"
        },
        {
          "internalType": "bytes32",
          "name": "bidHash",
          "type": "bytes32"
        },
        {
          "internalType": "uint256",
          "name": "createdAt",
          "type": "uint256"
        },
        {
          "internalType": "enum AgentMarketplace.BidState",
          "name": "state",
          "type": "uint8"
        }
      ],
      "stateMutability": "view",
      "type": "function"
    },
    {
      "inputs": [
        {
          "internalType": "uint256",
          "name": "jobId",
          "type": "uint256"
        }
      ],
      "name": "cancelJob",
      "outputs": [],
      "stateMutability": "nonpayable",
      "type": "function"
    },
    {
      "inputs": [
        {
          "internalType": "uint256",
          "name": "jobId",
          "type": "uint256"
        }
      ],
      "name": "finalizeAfterDeadline",
      "outputs": [],
      "stateMutability": "nonpayable",
      "type": "function"
    },
    {
      "inputs": [
        {
          "internalType": "uint256",
          "name": "jobId",
          "type": "uint256"
        },
        {
          "internalType": "bool",
          "name": "success",
          "type": "bool"
        },
        {
          "internalType": "uint8",
          "name": "rating",
          "type": "uint8"
        },
        {
          "internalType": "bytes32",
          "name": "evidenceHash",
          "type": "bytes32"
        }
      ],
      "name": "finalizeJob",
      "outputs": [],
      "stateMutability": "nonpayable",
      "type": "function"
    },
    {
      "inputs": [
        {
          "internalType": "uint256",
          "name": "bidId",
          "type": "uint256"
        }
      ],
      "name": "getBid",
      "outputs": [
        {
          "components": [
            {
              "internalType": "uint256",
              "name": "id",
              "type": "uint256"
            },
            {
              "internalType": "uint256",
              "name": "jobId",
              "type": "uint256"
            },
            {
              "internalType": "address",
              "name": "bidder",
              "type": "address"
            },
            {
              "internalType": "uint256",
              "name": "price",
              "type": "uint256"
            },
            {
              "internalType": "bytes32",
              "name": "bidHash",
              "type": "bytes32"
            },
            {
              "internalType": "uint256",
              "name": "createdAt",
              "type": "uint256"
            },
            {
              "internalType": "enum AgentMarketplace.BidState",
              "name": "state",
              "type": "uint8"
            }
          ],
          "internalType": "struct AgentMarketplace.Bid",
          "name": "",
          "type": "tuple"
        }
      ],
      "stateMutability": "view",
      "type": "function"
    },
    {
      "inputs": [
        {
          "internalType": "uint256",
          "name": "jobId",
          "type": "uint256"
        }
      ],
      "name": "getJob",
      "outputs": [
        {
          "components": [
            {
              "internalType": "uint256",
              "name": "id",
              "type": "uint256"
            },
            {
              "internalType": "address",
              "name": "poster",
              "type": "address"
            },
            {
              "internalType": "bytes32",
              "name": "descriptionHash",
              "type": "bytes32"
            },
            {
              "internalType": "uint256",
              "name": "escrowAmount",
              "type": "uint256"
            },
            {
              "internalType": "uint256",
              "name": "deadline",
              "type": "uint256"
            },
            {
              "internalType": "uint256",
              "name": "createdAt",
              "type": "uint256"
            },
            {
              "internalType": "enum AgentMarketplace.JobState",
              "name": "state",
              "type": "uint8"
            },
            {
              "internalType": "uint256",
              "name": "acceptedBidId",
              "type": "uint256"
            },
            {
              "internalType": "address",
              "name": "assignedWorker",
              "type": "address"
            },
            {
              "internalType": "bytes32",
              "name": "deliverableHash",
              "type": "bytes32"
            },
            {
              "internalType": "uint8",
              "name": "rating",
              "type": "uint8"
            },
            {
              "internalType": "bytes32",
              "name": "evidenceHash",
              "type": "bytes32"
            },
            {
              "internalType": "bool",
              "name": "clientRated",
              "type": "bool"
            }
          ],
          "internalType": "struct AgentMarketplace.Job",
          "name": "",
          "type": "tuple"
        }
      ],
      "stateMutability": "view",
      "type": "function"
    },
    {
      "inputs": [
        {
          "internalType": "uint256",
          "name": "jobId",
          "type": "uint256"
        }
      ],
      "name": "getJobBids",
      "outputs": [
        {
          "internalType": "uint256[]",
          "name": "",
          "type": "uint256[]"
        }
      ],
      "stateMutability": "view",
      "type": "function"
    },
    {
      "inputs": [],
      "name": "getOpenJobs",
      "outputs": [
        {
          "internalType": "uint256[]",
          "name": "",
          "type": "uint256[]"
        }
      ],
      "stateMutability": "view",
      "type": "function"
    },
    {
      "inputs": [],
      "name": "identityContract",
      "outputs": [
        {
          "internalType": "contract AgentIdentity",
          "name": "",
          "type": "address"
        }
      ],
      "stateMutability": "view",
      "type": "function"
    },
    {
      "inputs": [
        {
          "internalType": "uint256",
          "name": "",
          "type": "uint256"
        },
        {
          "internalType": "uint256",
          "name": "",
          "type": "uint256"
        }
      ],
      "name": "jobBids",
      "outputs": [
        {
          "internalType": "uint256",
          "name": "",
          "type": "uint256"
        }
      ],
      "stateMutability": "view",
      "type": "function"
    },
    {
      "inputs": [],
      "name": "jobCounter",
      "outputs": [
        {
          "internalType": "uint256",
          "name": "",
          "type": "uint256"
        }
      ],
      "stateMutability": "view",
      "type": "function"
    },
    {
      "inputs": [
        {
          "internalType": "uint256",
          "name": "",
          "type": "uint256"
        }
      ],
      "name": "jobs",
      "outputs": [
        {
          "internalType": "uint256",
          "name": "id",
          "type": "uint256"
        },
        {
          "internalType": "address",
          "name": "poster",
          "type": "address"
        },
        {
          "internalType": "bytes32",
          "name": "descriptionHash",
          "type": "bytes32"
        },
        {
          "internalType": "uint256",
          "name": "escrowAmount",
          "type": "uint256"
        },
        {
          "internalType": "uint256",
          "name": "deadline",
          "type": "uint256"
        },
        {
          "internalType": "uint256",
          "name": "createdAt",
          "type": "uint256"
        },
        {
          "internalType": "enum AgentMarketplace.JobState",
          "name": "state",
          "type": "uint8"
        },
        {
          "internalType": "uint256",
          "name": "acceptedBidId",
          "type": "uint256"
        },
        {
          "internalType": "address",
          "name": "assignedWorker",
          "type": "address"
        },
        {
          "internalType": "bytes32",
          "name": "deliverableHash",
          "type": "bytes32"
        },
        {
          "internalType": "uint8",
          "name": "rating",
          "type": "uint8"
        },
        {
          "internalType": "bytes32",
          "name": "evidenceHash",
          "type": "bytes32"
        },
        {
          "internalType": "bool",
          "name": "clientRated",
          "type": "bool"
        }
      ],
      "stateMutability": "view",
      "type": "function"
    },
    {
      "inputs": [
        {
          "internalType": "bytes32",
          "name": "descriptionHash",
          "type": "bytes32"
        },
        {
          "internalType": "uint256",
          "name": "deadline",
          "type": "uint256"
        }
      ],
      "name": "postJob",
      "outputs": [],
      "stateMutability": "payable",
      "type": "function"
    },
    {
      "inputs": [
        {
          "internalType": "uint256",
          "name": "jobId",
          "type": "uint256"
        },
        {
          "internalType": "uint8",
          "name": "rating",
          "type": "uint8"
        }
      ],
      "name": "rateClient",
      "outputs": [],
      "stateMutability": "nonpayable",
      "type": "function"
    },
    {
      "inputs": [
        {
          "internalType": "uint256",
          "name": "jobId",
          "type": "uint256"
        },
        {
          "internalType": "bytes32",
          "name": "deliverableHash",
          "type": "bytes32"
        }
      ],
      "name": "submitDelivery",
      "outputs": [],
      "stateMutability": "nonpayable",
      "type": "function"
    }
  ],
  "bytecode": "0x60803461007457601f61212438819003918201601f19168301916001600160401b038311848410176100795780849260209460405283398101031261007457516001600160a01b0381169081900361007457600080546001600160a01b03191691909117905560405161209490816100908239f35b600080fd5b634e487b7160e01b600052604160045260246000fdfe6080604052600436101561001257600080fd5b6000803560e01c806302e9d5e414611a5857806303f6935414611a3a5780630a197a0d146118025780631321c95e146116df578063180aedf31461160b5780631dffa3dc1461146c5780633c889e6f146113575780634423c5f1146112d85780634cb9d7fd1461124557806350355d761461122757806367031bae146112005780636f0e530f146111e2578063840850d1146111a257806385ae341d14611185578063bb8bdced14610e75578063bf22c45714610c6a578063d2f5b5d214610844578063d8dc8c281461066a578063d9badb5d1461041d5763ecde458a146100f957600080fd5b3461041a57606036600319011261041a5760043560249081359160443560018060a01b03918286541692604051809463c3c5a54760e01b8252336004830152818460209788935afa801561040f576101589189916103e2575b50611eaa565b841515806103d6575b61016a90611f1f565b848752600384526040872060ff60068201541660068110156103c3576103875781600182015416331461034b578615158061033d575b156103055787916101b8600460069301544210611f60565b6101c3600254611eed565b80600255858988604051946101d786611e37565b8486528186018c81526040896004828a019533875260608b0197885260808b0198895260a08b0199428b5260c08c019d8e528352522096518755516001870155600286019151166001600160601b0360a01b82541617905551600384015551600483015551600582015501905160038110156102f25760ff8019835416911617905583865260058352604086209060025491805491680100000000000000008310156102e057509061028e91600182018155611ddf565b819291549060031b91821b91600019901b1916179055600254916040519485528401524260408401527f453d1b64723c7c78bd4fe45db34908788013a27f13786884b2ea90ff660375d560603394a480f35b634e487b7160e01b8952604160045288fd5b634e487b7160e01b885260216004528288fd5b60405162461bcd60e51b81526004810186905260118185015270496e76616c69642062696420707269636560781b6044820152606490fd5b5060038101548711156101a0565b60405162461bcd60e51b8152600481018690526015818501527421b0b73737ba103134b21037b71037bbb7103537b160591b6044820152606490fd5b60405162461bcd60e51b815260048101869052601581850152744a6f62206e6f74206f70656e20666f72206269647360581b6044820152606490fd5b634e487b7160e01b895260216004528389fd5b50600154851115610161565b6104029150863d8811610408575b6103fa8183611e70565b810190611e92565b38610152565b503d6103f0565b6040513d8a823e3d90fd5b80fd5b503461041a57602080600319360112610666576004358015158061065a575b61044590611f1f565b80835260038252604083206004810154421061061f5760068101805460ff8116600681101561060b5760018114908115610600575b50156105bb5760ff19166004179055600181015460038201546001600160a01b039291869182918291829187168282156105b2575bf1156105a7576008019084818354168015156000146105765782825416803b15610572576040516342e2071960e01b81526001600160a01b0392909216600483015260006024830181905260448301819052606483015282908290608490829084905af180156105675761054f575b50507f6cd89a2112165729f32b36e2b1fc73bfc7c6acc4649ef7ddb14f5f99ec321e7591541692604051428152a380f35b61055890611e0d565b61056357843861051e565b8480fd5b6040513d84823e3d90fd5b8280fd5b50505050907f7e3805011acb8d49832d7ef085841e251e66267c06e54e0ac20cb09f3c696d3b90604051428152a280f35b6040513d86823e3d90fd5b506108fc6104af565b60405162461bcd60e51b815260048101869052601960248201527f496e76616c696420737461746520666f722074696d656f7574000000000000006044820152606490fd5b60029150143861047a565b634e487b7160e01b87526021600452602487fd5b60405162461bcd60e51b8152600481018490526013602482015272111958591b1a5b99481b9bdd081c185cdcd959606a1b6044820152606490fd5b5060015481111561043c565b5080fd5b503461041a57604036600319011261041a5760043560249081359181151580610838575b61069790611f1f565b81845260036020908152604085206008810154919290916001600160a01b031633036107ff57600682019081549060ff821660068110156107ec576001036107a95760048401544210156107745786156107315750916009916002879460ff1916179055015560405192835242908301527ff46a13d6d6628b4030d28874eaa1507890be050b8d2a85ced0bf95c46229bab560403393a380f35b8460196064926040519262461bcd60e51b845260048401528201527f44656c6976657261626c652068617368207265717569726564000000000000006044820152fd5b84600f6064926040519262461bcd60e51b845260048401528201526e111958591b1a5b99481c185cdcd959608a1b6044820152fd5b8460196064926040519262461bcd60e51b845260048401528201527f4a6f62206e6f7420696e2061737369676e6564207374617465000000000000006044820152fd5b50634e487b7160e01b8852602160045287fd5b8260136064926040519262461bcd60e51b84526004840152820152722737ba1030b9b9b4b3b732b2103bb7b935b2b960691b6044820152fd5b5060015482111561068e565b503461041a57608036600319011261041a57602460043581358015158103610a6c576044359260ff8416809403610c655760643583151580610c59575b61088a90611f1f565b838652602091600383526040872090600182019160018060a01b039586845416803303610c1557600683019182549060ff82166006811015610c0257600203610bca57918c918c936108df6064861115612003565b600a870160ff19958682541617905589600b880155600014610ac55750505060039082541617905560078101548952600485526040892061096f60405161092581611e37565b8254815260018301548882015288600284015416604082015260c060ff60066003860154956060850196875260048101546080860152600581015460a08601520154169101611fa2565b519260038201549084820391808311610ab257918b9392918987869414918215610a86575b50505050506008019181808080878b885416828215610a7d575bf115610a705786825416908784541690823b15610a6c57608484928388958e60405197889687956342e2071960e01b875260048701528501526044840152600160648401525af1801561056757610a4c575b5050907fa524c1b9832972b3599646a423b8ad058ce6e38720fd41e9ecb6019eaedb39d49460a0949392541696604051936001855284015260408301526060820152426080820152a380f35b610a5a909594939295611e0d565b610a68579091928738610a00565b8780fd5b8380fd5b50604051903d90823e3d90fd5b506108fc6109ae565b9284939284939284935416908390610aa9575bf115610a70578138808981610994565b506108fc610a99565b634e487b7160e01b8c526011600452848cfd5b82965082959750829491929360049116179055600386015490828215610bc1575bf115610bb657866008858254169201918583541690803b15610572576040516342e2071960e01b81526001600160a01b0392909216600483015260006024830181905260448301819052606483015282908290608490829084905af1801561056757610b98575b5050907fa524c1b9832972b3599646a423b8ad058ce6e38720fd41e9ecb6019eaedb39d49360a09392541695604051928884528301528660408301526060820152426080820152a380f35b610ba59094939294611e0d565b610bb25790918638610b4d565b8680fd5b6040513d88823e3d90fd5b506108fc610ae6565b60405162461bcd60e51b8152600481018a905260118188015270129bd8881b9bdd0819195b1a5d995c9959607a1b6044820152606490fd5b634e487b7160e01b8e526021600452868efd5b60405162461bcd60e51b8152600481018890526018818601527f4f6e6c7920706f737465722063616e2066696e616c697a6500000000000000006044820152606490fd5b50600154841115610881565b600080fd5b503461041a57602036600319011261041a57604090600435816101808451610c9181611e53565b82815282602082015282868201528260608201528260808201528260a08201528260c08201528260e082015282610100820152826101208201528261014082015282610160820152015280151580610e69575b610ced90611f1f565b8152600360205220604051610d0181611e53565b8154815260018201546001600160a01b03166020820152600282015460408201526003820154606082015260048201546080820152600582015460a082015260068083015460ff169290831015610e5357600c60ff916101a09460c0850152600781015460e085015260018060a01b03600882015416610100850152600981015461012085015282600a82015416610140850152600b8101546101608501520154161515610180820152610180604051918051835260018060a01b03602082015116602084015260408101516040840152606081015160608401526080810151608084015260a081015160a0840152610e0260c082015160c0850190611dc5565b60e081015160e084015260018060a01b036101008201511661010084015261012081015161012084015260ff6101408201511661014084015261016081015161016084015201511515610180820152f35b634e487b7160e01b600052602160045260246000fd5b50600154811115610ce4565b50604036600319011261041a576004356024356024602060018060a01b038554166040519283809263c3c5a54760e01b82523360048301525afa80156105a757610ec591859161116c5750611eaa565b34156111275761012c8110158061111a575b156110e257811561109d57610eed600154611eed565b80600155610efb8242611f12565b9060405191610f0983611e53565b81835233602084015284604084015234606084015260808301524260a08301528460c08301528460e08301528461010083015284610120830152846101408301528461016083015284610180830152845260036020526040842081518155600181019060018060a01b03602084015116916001600160601b0360a01b928382541617905560408301516002820155606083015160038201556080830151600482015560a08301516005820155600681019160c08401519260068410156110895760ff9261018092600c928519968688835416911617905560e08701516007830155600882019060018060a01b0361010089015116908254161790556101208601516009820155600a8101846101408801511686825416179055610160860151600b8201550193015115159183541691161790556110496001549142611f12565b60405192835234602084015260408301524260608301527ff67a067d6343d772e6d49193d7ead92e1e0586282af6e88f8affe9a081ca8fca60803393a380f35b634e487b7160e01b88526021600452602488fd5b60405162461bcd60e51b815260206004820152601960248201527f4465736372697074696f6e2068617368207265717569726564000000000000006044820152606490fd5b60405162461bcd60e51b815260206004820152601060248201526f496e76616c696420646561646c696e6560801b6044820152606490fd5b5062015180811115610ed7565b60405162461bcd60e51b815260206004820152601960248201527f457363726f7720616d6f756e74206d757374206265203e2030000000000000006044820152606490fd5b610402915060203d602011610408576103fa8183611e70565b503461041a578060031936011261041a57602060405161012c8152f35b503461041a576111b136611d74565b9190815260056020526040812090815483101561041a5760206111d48484611ddf565b90546040519160031b1c8152f35b503461041a578060031936011261041a576020604051620151808152f35b503461041a578060031936011261041a57546040516001600160a01b039091168152602090f35b503461041a578060031936011261041a576020600154604051908152f35b503461041a5760208060031936011261066657600435801515806112cc575b61126d90611f1f565b82526005815260408220916040518092808554928381520194835280832092905b8282106112b5576112b1856112a581890382611e70565b60405191829182611d8a565b0390f35b83548652948501946001938401939091019061128e565b50600154811115611264565b503461041a57602036600319011261041a57604060e091600435815260046020522061135581549160018101549060018060a01b03600282015416600382015460048301549160ff600660058601549501541694604051978852602088015260408701526060860152608085015260a084015260c0830190611dd2565bf35b503461041a57602036600319011261041a57604060e0916004358160c0845161137f81611e37565b82815282602082015282868201528260608201528260808201528260a0820152015280151580611460575b6113b390611fae565b8152600460205220611355604051916113cb83611e37565b805483526001810154906020840191825260018060a01b03806002830154169060408601918252600383015490606087019182526004840154926080880193845260ff600660058701549660a08b019788520154169561142f60c08a019788611fa2565b60405198518952516020890152511660408701525160608601525160808501525160a08401525160c0830190611dd2565b506002548111156113aa565b503461041a576020806003193601126106665760043590811515806115ff575b61149590611f1f565b818352600381526040832060018101546001600160a01b031690338290036115c15760068101805460ff811660068110156110895761157c578587526005855260408720546115375760ff191660051790556003015484918291829182919082821561152e575bf115610567577f7e3805011acb8d49832d7ef085841e251e66267c06e54e0ac20cb09f3c696d3b90604051428152a280f35b506108fc6114fc565b60405162461bcd60e51b815260048101869052601b60248201527f43616e6e6f742063616e63656c206a6f622077697468206269647300000000006044820152606490fd5b60405162461bcd60e51b815260048101869052601960248201527f43616e206f6e6c792063616e63656c206f70656e206a6f6273000000000000006044820152606490fd5b60405162461bcd60e51b815260048101849052601660248201527513db9b1e481c1bdcdd195c8818d85b8818d85b98d95b60521b6044820152606490fd5b5060015482111561148c565b503461041a57602036600319011261041a5760406101a091600435815260036020522080549060018060a01b039081600182015416916002820154906003830154906004840154906116b8600586015460ff600688015416906007880154936008890154169460098901549660ff600a8b0154169860ff600c600b8d01549c0154169b60206040519e8f908152015260408d015260608c015260808b015260a08a015260c0890190611dc5565b60e08701526101008601526101208501526101408401526101608301521515610180820152f35b503461041a578060031936011261041a57806001908154915b828111156117a9575061170a83612046565b926117186040519485611e70565b808452611727601f1991612046565b01906020913683860137809160015b8481111561174c57604051806112b18882611d8a565b80835260038252600660ff8160408620015416908110156117955790611776911561177b57611eed565b611736565b8061178f61178887611eed565b9689611fef565b52611eed565b634e487b7160e01b84526021600452602484fd5b8082526003602052600660ff8160408520015416908110156117ee57156117d9575b6117d490611eed565b6116f8565b926117e66117d491611eed565b9390506117cb565b634e487b7160e01b83526021600452602483fd5b503461041a57604036600319011261041a5760043560249081359160ff8316809303610a6c5781151580611a2e575b61183a90611f1f565b81845260036020526040842060088101546001600160a01b03929190831633036119dd5760ff60068201541660068110156119ca57600381149081156119bf575b501561198357600c8101805460ff81166119355760019061189f6064891115612003565b60ff1916179055856001848254169201928484541692803b1561057257879383604492604051968795869463bc6e44b760e01b865260048601528401525af18015610bb657611922575b505416906040519283524260208401527f3b808369a5237d9d11d2775db815c2c160f8875be08d2a36cc90f191281a65e460403394a480f35b61192e90959195611e0d565b93386118e9565b60405162461bcd60e51b8152602060048201526021818601527f436c69656e7420616c726561647920726174656420666f722074686973206a6f6044820152603160f91b6064820152608490fd5b60405162461bcd60e51b81526020600482015260158184015274129bd8881b9bdd081e595d08199a5b985b1a5e9959605a1b6044820152606490fd5b60049150143861187b565b634e487b7160e01b875260216004528287fd5b60405162461bcd60e51b8152602060048201528083018390527f4f6e6c792061737369676e656420776f726b65722063616e207261746520636c6044820152631a595b9d60e21b6064820152608490fd5b50600154821115611831565b503461041a578060031936011261041a576020600254604051908152f35b503461041a57611a6736611d74565b9080151580611d68575b611a7a90611f1f565b81151580611d5c575b611a8c90611fae565b808352600360205260408320918084526004602052604084209260018060a01b036001820154163303611d1757600681019081549160ff8316600681101561108957611ce35784600187015403611ca757600686019260ff8454166003811015611c9357611c5c57600190611b0660048501544210611f60565b60ff1916179055826007820155600860018060a01b036002870154169101906001600160601b0360a01b825416179055600160ff19825416179055818452600560205260408420916040518084602082965493848152019088526020882092885b818110611c43575050611b7c92500384611e70565b845b8351811015611c045782611b928286611fef565b51141580611bd7575b90611ba991611bae57611eed565b611b7e565b611bb88186611fef565b518752600460205260408720600601805460ff19166002179055611eed565b50611be28185611fef565b518652600460205260ff600660408820015416600381101561060b5715611b9b565b50849184600260018060a01b0391015416917ffc3d557e46010cdf2a5a80a495f308239f5be888eb5bb151be68d5c369728b246020604051428152a480f35b8454835260019485019488945060209093019201611b67565b60405162461bcd60e51b815260206004820152600f60248201526e426964206e6f742070656e64696e6760881b6044820152606490fd5b634e487b7160e01b89526021600452602489fd5b60405162461bcd60e51b81526020600482015260146024820152732134b2103737ba103337b9103a3434b9903537b160611b6044820152606490fd5b60405162461bcd60e51b815260206004820152600c60248201526b2537b1103737ba1037b832b760a11b6044820152606490fd5b60405162461bcd60e51b815260206004820152601b60248201527f4f6e6c7920706f737465722063616e20616363657074206269647300000000006044820152606490fd5b50600254821115611a83565b50600154811115611a71565b6040906003190112610c65576004359060243590565b6020908160408183019282815285518094520193019160005b828110611db1575050505090565b835185529381019392810192600101611da3565b906006821015610e535752565b906003821015610e535752565b8054821015611df75760005260206000200190600090565b634e487b7160e01b600052603260045260246000fd5b67ffffffffffffffff8111611e2157604052565b634e487b7160e01b600052604160045260246000fd5b60e0810190811067ffffffffffffffff821117611e2157604052565b6101a0810190811067ffffffffffffffff821117611e2157604052565b90601f8019910116810190811067ffffffffffffffff821117611e2157604052565b90816020910312610c6557518015158103610c655790565b15611eb157565b60405162461bcd60e51b81526020600482015260146024820152731059d95b9d081b9bdd081c9959da5cdd195c995960621b6044820152606490fd5b6000198114611efc5760010190565b634e487b7160e01b600052601160045260246000fd5b91908201809211611efc57565b15611f2657565b60405162461bcd60e51b8152602060048201526012602482015271129bd888191bd95cc81b9bdd08195e1a5cdd60721b6044820152606490fd5b15611f6757565b60405162461bcd60e51b8152602060048201526013602482015272129bd888191958591b1a5b99481c185cdcd959606a1b6044820152606490fd5b6003821015610e535752565b15611fb557565b60405162461bcd60e51b8152602060048201526012602482015271109a5908191bd95cc81b9bdd08195e1a5cdd60721b6044820152606490fd5b8051821015611df75760209160051b010190565b1561200a57565b60405162461bcd60e51b81526020600482015260146024820152730526174696e67206d75737420626520302d3130360641b6044820152606490fd5b67ffffffffffffffff8111611e215760051b6020019056fea264697066735822122007ed3183a90fd4583fc54913c4e2478ebaaa70546c19051c968bef27a36fa23f64736f6c63430008140033",
  "linkReferences": {},
  "deployedLinkReferences": {}
}