{
  "_format": "hh-sol-artifact-1",
  "contractName": "AgentIdentity",
  "sourceName": "contracts/AgentIdentity.sol",
  "abi": [
    {
      "inputs": [],
      "stateMutability": "nonpayable",
      "type": "constructor"
    },
    {
      "anonymous": false,
      "inputs": [
        {
          "indexed": true,
          "internalType": "address",
          "name": "agentAddress",
          "type": "address"
        },
        {
          "indexed": false,
          "internalType": "string",
          "name": "name",
          "type": "string"
        },
        {
          "indexed": false,
          "internalType": "bool",
          "name": "verified",
          "type": "bool"
        },
        {
          "indexed": false,
          "internalType": "uint256",
          "name": "timestamp",
          "type": "uint256"
        }
      ],
      "name": "AgentRegistered",
      "type": "event"
    },
    {
      "anonymous": false,
      "inputs": [
        {
          "indexed": true,
          "internalType": "address",
          "name": "reported",
          "type": "address"
        },
        {
          "indexed": true,
          "internalType": "address",
          "name": "reporter",
          "type": "address"
        },
        {
          "indexed": false,
          "internalType": "string",
          "name": "reason",
          "type": "string"
        },
        {
          "indexed": false,
          "internalType": "uint256",
          "name": "timestamp",
          "type": "uint256"
        }
      ],
      "name": "AgentReported",
      "type": "event"
    },
    {
      "anonymous": false,
      "inputs": [
        {
          "indexed": true,
          "internalType": "address",
          "name": "agentAddress",
          "type": "address"
        },
        {
          "indexed": false,
          "internalType": "uint256",
          "name": "timestamp",
          "type": "uint256"
        }
      ],
      "name": "AgentUnregistered",
      "type": "event"
    },
    {
      "anonymous": false,
      "inputs": [
        {
          "indexed": true,
          "internalType": "address",
          "name": "client",
          "type": "address"
        },
        {
          "indexed": false,
          "internalType": "uint256",
          "name": "newClientScore",
          "type": "uint256"
        },
        {
          "indexed": true,
          "internalType": "address",
          "name": "rater",
          "type": "address"
        }
      ],
      "name": "ClientRated",
      "type": "event"
    },
    {
      "anonymous": false,
      "inputs": [
        {
          "indexed": true,
          "internalType": "address",
          "name": "worker",
          "type": "address"
        },
        {
          "indexed": false,
          "internalType": "uint256",
          "name": "newReputationScore",
          "type": "uint256"
        },
        {
          "indexed": false,
          "internalType": "uint256",
          "name": "payment",
          "type": "uint256"
        }
      ],
      "name": "WorkerRated",
      "type": "event"
    },
    {
      "inputs": [
        {
          "internalType": "uint256",
          "name": "",
          "type": "uint256"
        }
      ],
      "name": "agentList",
      "outputs": [
        {
          "internalType": "address",
          "name": "",
          "type": "address"
        }
      ],
      "stateMutability": "view",
      "type": "function"
    },
    {
      "inputs": [
        {
          "internalType": "address",
          "name": "agentAddress",
          "type": "address"
        }
      ],
      "name": "getAgent",
      "outputs": [
        {
          "components": [
            {
              "internalType": "string",
              "name": "name",
              "type": "string"
            },
            {
              "internalType": "string",
              "name": "description",
              "type": "string"
            },
            {
              "internalType": "string",
              "name": "capabilities",
              "type": "string"
            },
            {
              "internalType": "uint256",
              "name": "registeredAt",
              "type": "uint256"
            },
            {
              "internalType": "bool",
              "name": "active",
              "type": "bool"
            },
            {
              "internalType": "bool",
              "name": "verifiedMachineAgent",
              "type": "bool"
            },
            {
              "internalType": "uint256",
              "name": "jobsCompleted",
              "type": "uint256"
            },
            {
              "internalType": "uint256",
              "name": "jobsFailed",
              "type": "uint256"
            },
            {
              "internalType": "uint256",
              "name": "totalEarned",
              "type": "uint256"
            },
            {
              "internalType": "uint256",
              "name": "reputationScore",
              "type": "uint256"
            },
            {
              "internalType": "uint256",
              "name": "totalRatings",
              "type": "uint256"
            },
            {
              "internalType": "uint256",
              "name": "clientScore",
              "type": "uint256"
            },
            {
              "internalType": "uint256",
              "name": "clientRatings",
              "type": "uint256"
            },
            {
              "internalType": "uint256",
              "name": "reportCount",
              "type": "uint256"
            }
          ],
          "internalType": "struct AgentIdentity.Agent",
          "name": "",
          "type": "tuple"
        }
      ],
      "stateMutability": "view",
      "type": "function"
    },
    {
      "inputs": [],
      "name": "getAllAgents",
      "outputs": [
        {
          "internalType": "address[]",
          "name": "",
          "type": "address[]"
        }
      ],
      "stateMutability": "view",
      "type": "function"
    },
    {
      "inputs": [
        {
          "internalType": "address",
          "name": "agentAddress",
          "type": "address"
        }
      ],
      "name": "getClientScore",
      "outputs": [
        {
          "internalType": "uint256",
          "name": "",
          "type": "uint256"
        }
      ],
      "stateMutability": "view",
      "type": "function"
    },
    {
      "inputs": [
        {
          "internalType": "address",
          "name": "agentAddress",
          "type": "address"
        }
      ],
      "name": "getReportCount",
      "outputs": [
        {
          "internalType": "uint256",
          "name": "",
          "type": "uint256"
        }
      ],
      "stateMutability": "view",
      "type": "function"
    },
    {
      "inputs": [
        {
          "internalType": "address",
          "name": "",
          "type": "address"
        },
        {
          "internalType": "address",
          "name": "",
          "type": "address"
        }
      ],
      "name": "hasReported",
      "outputs": [
        {
          "internalType": "bool",
          "name": "",
          "type": "bool"
        }
      ],
      "stateMutability": "view",
      "type": "function"
    },
    {
      "inputs": [
        {
          "internalType": "address",
          "name": "agentAddress",
          "type": "address"
        }
      ],
      "name": "isRegistered",
      "outputs": [
        {
          "internalType": "bool",
          "name": "",
          "type": "bool"
        }
      ],
      "stateMutability": "view",
      "type": "function"
    },
    {
      "inputs": [
        {
          "internalType": "address",
          "name": "agentAddress",
          "type": "address"
        }
      ],
      "name": "isVerified",
      "outputs": [
        {
          "internalType": "bool",
          "name": "",
          "type": "bool"
        }
      ],
      "stateMutability": "view",
      "type": "function"
    },
    {
      "inputs": [
        {
          "internalType": "address",
          "name": "agentAddress",
          "type": "address"
        }
      ],
      "name": "isWarned",
      "outputs": [
        {
          "internalType": "bool",
          "name": "",
          "type": "bool"
        }
      ],
      "stateMutability": "view",
      "type": "function"
    },
    {
      "inputs": [],
      "name": "marketplace",
      "outputs": [
        {
          "internalType": "address",
          "name": "",
          "type": "address"
        }
      ],
      "stateMutability": "view",
      "type": "function"
    },
    {
      "inputs": [],
      "name": "reactivate",
      "outputs": [],
      "stateMutability": "nonpayable",
      "type": "function"
    },
    {
      "inputs": [
        {
          "internalType": "string",
          "name": "name",
          "type": "string"
        },
        {
          "internalType": "string",
          "name": "description",
          "type": "string"
        },
        {
          "internalType": "string",
          "name": "capabilities",
          "type": "string"
        }
      ],
      "name": "register",
      "outputs": [],
      "stateMutability": "nonpayable",
      "type": "function"
    },
    {
      "inputs": [
        {
          "internalType": "string",
          "name": "name",
          "type": "string"
        },
        {
          "internalType": "string",
          "name": "description",
          "type": "string"
        },
        {
          "internalType": "string",
          "name": "capabilities",
          "type": "string"
        },
        {
          "internalType": "bytes",
          "name": "signature",
          "type": "bytes"
        }
      ],
      "name": "registerVerified",
      "outputs": [],
      "stateMutability": "nonpayable",
      "type": "function"
    },
    {
      "inputs": [],
      "name": "registryAuthority",
      "outputs": [
        {
          "internalType": "address",
          "name": "",
          "type": "address"
        }
      ],
      "stateMutability": "view",
      "type": "function"
    },
    {
      "inputs": [
        {
          "internalType": "address",
          "name": "badActor",
          "type": "address"
        },
        {
          "internalType": "string",
          "name": "reason",
          "type": "string"
        }
      ],
      "name": "reportAgent",
      "outputs": [],
      "stateMutability": "nonpayable",
      "type": "function"
    },
    {
      "inputs": [
        {
          "internalType": "address",
          "name": "_marketplace",
          "type": "address"
        }
      ],
      "name": "setMarketplace",
      "outputs": [],
      "stateMutability": "nonpayable",
      "type": "function"
    },
    {
      "inputs": [],
      "name": "totalAgents",
      "outputs": [
        {
          "internalType": "uint256",
          "name": "",
          "type": "uint256"
        }
      ],
      "stateMutability": "view",
      "type": "function"
    },
    {
      "inputs": [],
      "name": "unregister",
      "outputs": [],
      "stateMutability": "nonpayable",
      "type": "function"
    },
    {
      "inputs": [
        {
          "internalType": "address",
          "name": "agentAddress",
          "type": "address"
        },
        {
          "internalType": "uint256",
          "name": "payment",
          "type": "uint256"
        },
        {
          "internalType": "uint256",
          "name": "rating",
          "type": "uint256"
        },
        {
          "internalType": "bool",
          "name": "success",
          "type": "bool"
        }
      ],
      "name": "updateAgentStats",
      "outputs": [],
      "stateMutability": "nonpayable",
      "type": "function"
    },
    {
      "inputs": [
        {
          "internalType": "address",
          "name": "posterAddress",
          "type": "address"
        },
        {
          "internalType": "uint256",
          "name": "rating",
          "type": "uint256"
        }
      ],
      "name": "updateClientStats",
      "outputs": [],
      "stateMutability": "nonpayable",
      "type": "function"
    }
  ],
  "bytecode": "0x60a080604052346100315733608052611b0b908161003782396080518181816106b0015281816108fe01526110330152f35b600080fdfe6080604052600436101561001257600080fd5b60003560e01c806322fcf488146101575780632f80c54f1461015257806342e207191461014d5780634cd08d031461014857806358aa1c431461014357806373ad6c2d1461013e5780637d20fce914610139578063860e4ac6146101345780639e22a8931461012f578063ab27e6a41461012a578063abc8c7af14610125578063b0f94e1a14610120578063b9209e331461011b578063bc6e44b714610116578063c3c5a54714610111578063c50537121461010c578063d18611d614610107578063df8da49c14610102578063e79a198f146100fd5763fb3551ff146100f857600080fd5b610dc2565b610c3c565b610ba7565b610aaa565b610a8c565b610a4a565b610986565b61092d565b6108e8565b6108bf565b610882565b610845565b61077b565b61073a565b61068c565b610629565b610591565b610432565b6103d7565b610245565b600435906001600160a01b038216820361017257565b600080fd5b634e487b7160e01b600052604160045260246000fd5b6101c0810190811067ffffffffffffffff8211176101aa57604052565b610177565b90601f8019910116810190811067ffffffffffffffff8211176101aa57604052565b604051906101de8261018d565b565b92919267ffffffffffffffff82116101aa576040519161020a601f8201601f1916602001846101af565b829481845281830111610172578281602093846000960137010152565b9080601f8301121561017257816020610242933591016101e0565b90565b346101725760403660031901126101725761025e61015c565b60243567ffffffffffffffff81116101725761027e903690600401610227565b903360005260016020526102a361029e600460406000200160ff90541690565b611305565b6102d46102cf60046102c78460018060a01b03166000526001602052604060002090565b015460ff1690565b611351565b6001600160a01b03811690600c90610393906102f23385141561139d565b61034261033d6103396103328461031b3360018060a01b03166000526002602052604060002090565b9060018060a01b0316600052602052604060002090565b5460ff1690565b1590565b6113e2565b61034e8551151561142e565b3360009081526002602052604090206103799061036c90839061031b565b805460ff19166001179055565b6001600160a01b0316600090815260016020526040902090565b0161039e8154611249565b90557fff3a99848e62270e33c18711d123df402e08fc4abd861227c07c47104e086557604051806103d2339542908361146c565b0390a3005b34610172576020366003190112610172576004356004548110156101725760046000527f8a35acfbc15ff81a39ae7d344fd709f28e8600b4aa8c65c6b64bfe7fe36bd19b01546040516001600160a01b039091168152602090f35b346101725760803660031901126101725761044b61015c565b602435906044356064359182151583036101725761052b60087f44f54b89abec6bf7012c19b9e986e3307c6a4a087bd10a2b402360947a5878df9460018060a01b039461049d866000541633146111e7565b6104c66104c160046102c78860018060a01b03166000526001602052604060002090565b61106b565b6001600160a01b0385166000908152600160205260409020911561057c57600582016104f28154611249565b90556007820161050389825461126b565b90555b80610530575b5001549460405193849316958360209093929193604081019481520152565b0390a2005b610574600983019182549061056d6105478361125d565b6105688888019361056261055c87875461128e565b91611278565b9061126b565b6112a1565b9055611249565b90553861050c565b6006820161058a8154611249565b9055610506565b346101725760603660031901126101725767ffffffffffffffff600435818111610172576105c3903690600401610227565b602435828111610172576105db903690600401610227565b604435928311610172576105f6610627933690600401610227565b9133600052600160205261061560ff6004604060002001541615610e78565b61062181511515610ec4565b3361181b565b005b346101725760403660031901126101725761064261015c565b602435906001600160a01b03908183168303610172571660009081526002602090815260408083206001600160a01b03909416835292815291902060ff9054166040519015158152f35b34610172576020366003190112610172576106a561015c565b6001600160a01b03907f0000000000000000000000000000000000000000000000000000000000000000821633036106f557166bffffffffffffffffffffffff60a01b6000541617600055600080f35b60405162461bcd60e51b815260206004820152601760248201527f4f6e6c7920726567697374727920617574686f726974790000000000000000006044820152606490fd5b34610172576020366003190112610172576001600160a01b0361075b61015c565b16600052600160205260206002600c604060002001541015604051908152f35b34610172576000806003193601126108425760405180916004549081835260208093018092600483527f8a35acfbc15ff81a39ae7d344fd709f28e8600b4aa8c65c6b64bfe7fe36bd19b90835b81811061082557505050846107de9103856101af565b60405193838594850191818652518092526040850193925b82811061080557505050500390f35b83516001600160a01b0316855286955093810193928101926001016107f6565b82546001600160a01b0316845292860192600192830192016107c8565b80fd5b34610172576020366003190112610172576001600160a01b0361086661015c565b1660005260016020526020600c60406000200154604051908152f35b34610172576020366003190112610172576001600160a01b036108a361015c565b1660005260016020526020600a60406000200154604051908152f35b34610172576000366003190112610172576000546040516001600160a01b039091168152602090f35b34610172576000366003190112610172576040517f00000000000000000000000000000000000000000000000000000000000000006001600160a01b03168152602090f35b34610172576020366003190112610172576001600160a01b0361094e61015c565b166000526001602052602060046040600020015460ff81169081610978575b506040519015158152f35b60ff915060081c163861096d565b346101725760403660031901126101725761099f61015c565b6109d860018060a01b036109b8816000541633146111e7565b82169182600052600160205261037960ff600460406000200154166112c1565b90600b8201610a148154610a0c600a6109f08361125d565b960195610568610a0184895461128e565b610562602435611278565b809555611249565b905560405191825232917f01f5ede1e41c52791e4039ac3cce580834f3d959f316c97ed36947eb788767a39080602081016103d2565b34610172576020366003190112610172576001600160a01b03610a6b61015c565b166000526001602052602060ff600460406000200154166040519015158152f35b34610172576000366003190112610172576020600354604051908152f35b346101725760008060031936011261084257338152600160205260ff600460408320015416610b6b57336000908152600160205260409020610af1906003015415156110ae565b336000908152600160205260409020610b1490600401805460ff19166001179055565b33600090815260016020526040902060048101547f26189cae495d0d6186e014c260bceac02ea314e154afce1711c36bfc1ec2b07e90610b659060081c60ff169260405191829133954291846111c3565b0390a280f35b60405162461bcd60e51b81526020600482015260146024820152734167656e7420616c72656164792061637469766560601b6044820152606490fd5b346101725760803660031901126101725767ffffffffffffffff60043581811161017257610bd9903690600401610227565b60243582811161017257610bf1903690600401610227565b60443583811161017257610c09903690600401610227565b90606435938411610172573660238501121561017257610c366106279436906024816004013591016101e0565b92610f6d565b3461017257600080600319360112610842573381526001602052610c6960ff60046040842001541661106b565b33815260016020526004604082200160ff1981541690556040514281527ff0a1214ef5ae8963b4589231f47cc936d51c90495de03083c6551ff2f5120f4860203392a280f35b919082519283825260005b848110610cdb575050826000602080949584010152601f8019910116010190565b602081830181015184830182015201610cba565b602081528151610d41610d106101c0928360208601526101e0850190610caf565b610d2c602086015191601f199283878303016040880152610caf565b90604086015190858303016060860152610caf565b9260608101516080840152610d5f608082015160a085019015159052565b60a0810151151560c084015260c081015160e084015260e081015161010090818501528101516101209081850152810151610140908185015281015161016090818501528101516101809081850152810151906101a09182850152015191015290565b3461017257602036600319011261017257610e74610e68610e63610de461015c565b604051610df08161018d565b6060815260606020820152606060408201526101a06000918260608201528260808201528260a08201528260c08201528260e08201528261010082015282610120820152826101408201528261016082015282610180820152015260018060a01b03166000526001602052604060002090565b6114a3565b60405191829182610cef565b0390f35b15610e7f57565b60405162461bcd60e51b815260206004820152601860248201527f4167656e7420616c7265616479207265676973746572656400000000000000006044820152606490fd5b15610ecb57565b60405162461bcd60e51b81526020600482015260146024820152734e616d652063616e6e6f7420626520656d70747960601b6044820152606490fd5b15610f0e57565b60405162461bcd60e51b815260206004820152603160248201527f4e6f7420617574686f72697a65643a2076616c696420726567697374727920736044820152701a59db985d1d5c99481c995c5d5a5c9959607a1b6064820152608490fd5b6110656110316101de95336000526001602052610f9d610f9860ff6004604060002001541615151590565b610e78565b610fa984511515610ec4565b6040516bffffffffffffffffffffffff193360601b166020820190815260148252601f1991610fd96034826101af565b51902090611029604051918261101d602082019586603c917f19457468657265756d205369676e6564204d6573736167653a0a3332000000008252601c8201520190565b039081018352826101af565b519020611a09565b7f00000000000000000000000000000000000000000000000000000000000000006001600160a01b03908116911614610f07565b3361190a565b1561107257565b60405162461bcd60e51b81526020600482015260146024820152731059d95b9d081b9bdd081c9959da5cdd195c995960621b6044820152606490fd5b156110b557565b60405162461bcd60e51b81526020600482015260166024820152751059d95b9d081b995d995c881c9959da5cdd195c995960521b6044820152606490fd5b90600182811c92168015611123575b602083101461110d57565b634e487b7160e01b600052602260045260246000fd5b91607f1691611102565b906000929180549161113e836110f3565b9182825260019384811690816000146111a05750600114611160575b50505050565b90919394506000526020928360002092846000945b83861061118c57505050500101903880808061115a565b805485870183015294019385908201611175565b9294505050602093945060ff191683830152151560051b0101903880808061115a565b6111db6040929594939560608352606083019061112d565b94151560208201520152565b156111ee57565b60405162461bcd60e51b815260206004820152601960248201527f4f6e6c79206d61726b6574706c61636520636f6e7472616374000000000000006044820152606490fd5b634e487b7160e01b600052601160045260246000fd5b60001981146112585760010190565b611233565b906001820180921161125857565b9190820180921161125857565b90600a820291808304600a149015171561125857565b8181029291811591840414171561125857565b81156112ab570490565b634e487b7160e01b600052601260045260246000fd5b156112c857565b60405162461bcd60e51b815260206004820152601560248201527410db1a595b9d081b9bdd081c9959da5cdd195c9959605a1b6044820152606490fd5b1561130c57565b60405162461bcd60e51b815260206004820152601b60248201527f5265706f72746572206d757374206265207265676973746572656400000000006044820152606490fd5b1561135857565b60405162461bcd60e51b815260206004820152601960248201527f546172676574206d7573742062652072656769737465726564000000000000006044820152606490fd5b156113a457565b60405162461bcd60e51b815260206004820152601660248201527521b0b73737ba103932b837b93a103cb7bab939b2b63360511b6044820152606490fd5b156113e957565b60405162461bcd60e51b815260206004820152601b60248201527f416c7265616479207265706f727465642074686973206167656e7400000000006044820152606490fd5b1561143557565b60405162461bcd60e51b815260206004820152600f60248201526e1499585cdbdb881c995c5d5a5c9959608a1b6044820152606490fd5b929190611483602091604086526040860190610caf565b930152565b906101de61149c926040519384809261112d565b03836101af565b90600c6114ae6101d1565b926114b881611488565b84526114c660018201611488565b60208501526114d760028201611488565b604085015260038101546060850152600481015460ff818116151560808701526115089160081c16151560a0860152565b600581015460c0850152600681015460e0850152600781015461010085015260088101546101208501526009810154610140850152600a810154610160850152600b81015461018085015201546101a0830152565b90601f811161156b57505050565b600091825260208220906020601f850160051c830194106115a7575b601f0160051c01915b82811061159c57505050565b818155600101611590565b9092508290611587565b919091825167ffffffffffffffff81116101aa576115d9816115d384546110f3565b8461155d565b602080601f831160011461161557508192939460009261160a575b50508160011b916000199060031b1c1916179055565b0151905038806115f4565b90601f1983169561162b85600052602060002090565b926000905b8882106116685750508360019596971061164f575b505050811b019055565b015160001960f88460031b161c19169055388080611645565b80600185968294968601518155019501930190611630565b906101a0600c916116928151856115b1565b6116a36020820151600186016115b1565b6116b46040820151600286016115b1565b60608101516003850155611704600485016116e76116d56080850151151590565b829060ff801983541691151516179055565b60a08301511515815461ff00191690151560081b61ff0016179055565b60c0810151600585015560e08101516006850155610100810151600785015561012081015160088501556101408101516009850155610160810151600a850155610180810151600b8501550151910155565b600454680100000000000000008110156101aa5760018101806004558110156117bf5760046000527f8a35acfbc15ff81a39ae7d344fd709f28e8600b4aa8c65c6b64bfe7fe36bd19b0180546001600160a01b0319166001600160a01b03909216919091179055565b634e487b7160e01b600052603260045260246000fd5b9291906117ec604091606086526060860190610caf565b93600060208201520152565b92919061180f604091606086526060860190610caf565b93600160208201520152565b6118ce7f26189cae495d0d6186e014c260bceac02ea314e154afce1711c36bfc1ec2b07e93611905939561184d6101d1565b918783526020830152604082015242606082015261186e6080820160019052565b60008060a08301528060c08301528060e0830152806101008301526101f48061012084015281610140840152610160830152806101808301526101a08201526118c98360018060a01b03166000526001602052604060002090565b611680565b6118d781611756565b6118ea6118e5600354611249565b600355565b6040516001600160a01b0390911693909182914290836117d5565b0390a2565b6119b97f26189cae495d0d6186e014c260bceac02ea314e154afce1711c36bfc1ec2b07e93611905939561193c6101d1565b918783526020830152604082015242606082015261195d6080820160019052565b600160a082015260008060c08301528060e0830152806101008301526101f48061012084015281610140840152610160830152806101808301526101a08201526118c98360018060a01b03166000526001602052604060002090565b6119c281611756565b6119d06118e5600354611249565b6040516001600160a01b0390911693909182914290836117f8565b60ff601b9116019060ff821161125857565b6040513d6000823e3d90fd5b6041825103611a90576020916000918291848101519260606040830151920151901a92601b8410611a79575b90611a6091604051948594859094939260ff6060936080840197845216602083015260408201520152565b838052039060015afa15611a745760005190565b6119fd565b9290611a87611a60926119eb565b93909150611a35565b60405162461bcd60e51b815260206004820152601860248201527f496e76616c6964207369676e6174757265206c656e67746800000000000000006044820152606490fdfea26469706673582212204ba3d35774a4efd60bf1bd8517f85a2ab5b5e111dfa5ffb1d711c6e81cb6ab1164736f6c63430008140033",
  "linkReferences": {},
  "deployedLinkReferences": {}
}